{
	"contracts/3_Ballot.sol": {
		"AnimalToken": {
			"abi": [
				{
					"inputs": [
						{
							"internalType": "address",
							"name": "_teamPlayer2",
							"type": "address"
						},
						{
							"internalType": "address",
							"name": "_teamPlayer3",
							"type": "address"
						},
						{
							"internalType": "address",
							"name": "_liquidityWallet",
							"type": "address"
						},
						{
							"internalType": "address",
							"name": "_animalFundWallet",
							"type": "address"
						},
						{
							"internalType": "address",
							"name": "_communityRewardsWallet",
							"type": "address"
						},
						{
							"internalType": "address",
							"name": "_devMarketingWallet",
							"type": "address"
						}
					],
					"stateMutability": "nonpayable",
					"type": "constructor"
				},
				{
					"inputs": [
						{
							"internalType": "address",
							"name": "spender",
							"type": "address"
						},
						{
							"internalType": "uint256",
							"name": "allowance",
							"type": "uint256"
						},
						{
							"internalType": "uint256",
							"name": "needed",
							"type": "uint256"
						}
					],
					"name": "ERC20InsufficientAllowance",
					"type": "error"
				},
				{
					"inputs": [
						{
							"internalType": "address",
							"name": "sender",
							"type": "address"
						},
						{
							"internalType": "uint256",
							"name": "balance",
							"type": "uint256"
						},
						{
							"internalType": "uint256",
							"name": "needed",
							"type": "uint256"
						}
					],
					"name": "ERC20InsufficientBalance",
					"type": "error"
				},
				{
					"inputs": [
						{
							"internalType": "address",
							"name": "approver",
							"type": "address"
						}
					],
					"name": "ERC20InvalidApprover",
					"type": "error"
				},
				{
					"inputs": [
						{
							"internalType": "address",
							"name": "receiver",
							"type": "address"
						}
					],
					"name": "ERC20InvalidReceiver",
					"type": "error"
				},
				{
					"inputs": [
						{
							"internalType": "address",
							"name": "sender",
							"type": "address"
						}
					],
					"name": "ERC20InvalidSender",
					"type": "error"
				},
				{
					"inputs": [
						{
							"internalType": "address",
							"name": "spender",
							"type": "address"
						}
					],
					"name": "ERC20InvalidSpender",
					"type": "error"
				},
				{
					"inputs": [
						{
							"internalType": "address",
							"name": "owner",
							"type": "address"
						}
					],
					"name": "OwnableInvalidOwner",
					"type": "error"
				},
				{
					"inputs": [
						{
							"internalType": "address",
							"name": "account",
							"type": "address"
						}
					],
					"name": "OwnableUnauthorizedAccount",
					"type": "error"
				},
				{
					"anonymous": false,
					"inputs": [
						{
							"indexed": true,
							"internalType": "address",
							"name": "owner",
							"type": "address"
						},
						{
							"indexed": true,
							"internalType": "address",
							"name": "spender",
							"type": "address"
						},
						{
							"indexed": false,
							"internalType": "uint256",
							"name": "value",
							"type": "uint256"
						}
					],
					"name": "Approval",
					"type": "event"
				},
				{
					"anonymous": false,
					"inputs": [
						{
							"indexed": true,
							"internalType": "address",
							"name": "previousOwner",
							"type": "address"
						},
						{
							"indexed": true,
							"internalType": "address",
							"name": "newOwner",
							"type": "address"
						}
					],
					"name": "OwnershipTransferred",
					"type": "event"
				},
				{
					"anonymous": false,
					"inputs": [
						{
							"indexed": true,
							"internalType": "address",
							"name": "from",
							"type": "address"
						},
						{
							"indexed": true,
							"internalType": "address",
							"name": "to",
							"type": "address"
						},
						{
							"indexed": false,
							"internalType": "uint256",
							"name": "value",
							"type": "uint256"
						}
					],
					"name": "Transfer",
					"type": "event"
				},
				{
					"inputs": [],
					"name": "TOTAL_SUPPLY",
					"outputs": [
						{
							"internalType": "uint256",
							"name": "",
							"type": "uint256"
						}
					],
					"stateMutability": "view",
					"type": "function"
				},
				{
					"inputs": [
						{
							"internalType": "address",
							"name": "owner",
							"type": "address"
						},
						{
							"internalType": "address",
							"name": "spender",
							"type": "address"
						}
					],
					"name": "allowance",
					"outputs": [
						{
							"internalType": "uint256",
							"name": "",
							"type": "uint256"
						}
					],
					"stateMutability": "view",
					"type": "function"
				},
				{
					"inputs": [],
					"name": "animalFundWallet",
					"outputs": [
						{
							"internalType": "address",
							"name": "",
							"type": "address"
						}
					],
					"stateMutability": "view",
					"type": "function"
				},
				{
					"inputs": [
						{
							"internalType": "address",
							"name": "spender",
							"type": "address"
						},
						{
							"internalType": "uint256",
							"name": "value",
							"type": "uint256"
						}
					],
					"name": "approve",
					"outputs": [
						{
							"internalType": "bool",
							"name": "",
							"type": "bool"
						}
					],
					"stateMutability": "nonpayable",
					"type": "function"
				},
				{
					"inputs": [
						{
							"internalType": "address",
							"name": "account",
							"type": "address"
						}
					],
					"name": "balanceOf",
					"outputs": [
						{
							"internalType": "uint256",
							"name": "",
							"type": "uint256"
						}
					],
					"stateMutability": "view",
					"type": "function"
				},
				{
					"inputs": [],
					"name": "claimVestedTokens",
					"outputs": [],
					"stateMutability": "nonpayable",
					"type": "function"
				},
				{
					"inputs": [
						{
							"internalType": "address",
							"name": "",
							"type": "address"
						}
					],
					"name": "claimed",
					"outputs": [
						{
							"internalType": "uint256",
							"name": "",
							"type": "uint256"
						}
					],
					"stateMutability": "view",
					"type": "function"
				},
				{
					"inputs": [],
					"name": "communityRewardsWallet",
					"outputs": [
						{
							"internalType": "address",
							"name": "",
							"type": "address"
						}
					],
					"stateMutability": "view",
					"type": "function"
				},
				{
					"inputs": [],
					"name": "decimals",
					"outputs": [
						{
							"internalType": "uint8",
							"name": "",
							"type": "uint8"
						}
					],
					"stateMutability": "view",
					"type": "function"
				},
				{
					"inputs": [],
					"name": "devMarketingWallet",
					"outputs": [
						{
							"internalType": "address",
							"name": "",
							"type": "address"
						}
					],
					"stateMutability": "view",
					"type": "function"
				},
				{
					"inputs": [
						{
							"internalType": "address",
							"name": "user",
							"type": "address"
						},
						{
							"internalType": "uint256",
							"name": "total",
							"type": "uint256"
						}
					],
					"name": "getClaimable",
					"outputs": [
						{
							"internalType": "uint256",
							"name": "",
							"type": "uint256"
						}
					],
					"stateMutability": "view",
					"type": "function"
				},
				{
					"inputs": [],
					"name": "liquidityWallet",
					"outputs": [
						{
							"internalType": "address",
							"name": "",
							"type": "address"
						}
					],
					"stateMutability": "view",
					"type": "function"
				},
				{
					"inputs": [],
					"name": "name",
					"outputs": [
						{
							"internalType": "string",
							"name": "",
							"type": "string"
						}
					],
					"stateMutability": "view",
					"type": "function"
				},
				{
					"inputs": [],
					"name": "owner",
					"outputs": [
						{
							"internalType": "address",
							"name": "",
							"type": "address"
						}
					],
					"stateMutability": "view",
					"type": "function"
				},
				{
					"inputs": [],
					"name": "ownerAddress",
					"outputs": [
						{
							"internalType": "address",
							"name": "",
							"type": "address"
						}
					],
					"stateMutability": "view",
					"type": "function"
				},
				{
					"inputs": [],
					"name": "presaleEnded",
					"outputs": [
						{
							"internalType": "bool",
							"name": "",
							"type": "bool"
						}
					],
					"stateMutability": "view",
					"type": "function"
				},
				{
					"inputs": [],
					"name": "renounceOwnership",
					"outputs": [],
					"stateMutability": "nonpayable",
					"type": "function"
				},
				{
					"inputs": [],
					"name": "startVesting",
					"outputs": [],
					"stateMutability": "nonpayable",
					"type": "function"
				},
				{
					"inputs": [],
					"name": "symbol",
					"outputs": [
						{
							"internalType": "string",
							"name": "",
							"type": "string"
						}
					],
					"stateMutability": "view",
					"type": "function"
				},
				{
					"inputs": [],
					"name": "teamPlayer2",
					"outputs": [
						{
							"internalType": "address",
							"name": "",
							"type": "address"
						}
					],
					"stateMutability": "view",
					"type": "function"
				},
				{
					"inputs": [],
					"name": "teamPlayer3",
					"outputs": [
						{
							"internalType": "address",
							"name": "",
							"type": "address"
						}
					],
					"stateMutability": "view",
					"type": "function"
				},
				{
					"inputs": [],
					"name": "totalSupply",
					"outputs": [
						{
							"internalType": "uint256",
							"name": "",
							"type": "uint256"
						}
					],
					"stateMutability": "view",
					"type": "function"
				},
				{
					"inputs": [
						{
							"internalType": "address",
							"name": "to",
							"type": "address"
						},
						{
							"internalType": "uint256",
							"name": "value",
							"type": "uint256"
						}
					],
					"name": "transfer",
					"outputs": [
						{
							"internalType": "bool",
							"name": "",
							"type": "bool"
						}
					],
					"stateMutability": "nonpayable",
					"type": "function"
				},
				{
					"inputs": [
						{
							"internalType": "address",
							"name": "from",
							"type": "address"
						},
						{
							"internalType": "address",
							"name": "to",
							"type": "address"
						},
						{
							"internalType": "uint256",
							"name": "value",
							"type": "uint256"
						}
					],
					"name": "transferFrom",
					"outputs": [
						{
							"internalType": "bool",
							"name": "",
							"type": "bool"
						}
					],
					"stateMutability": "nonpayable",
					"type": "function"
				},
				{
					"inputs": [
						{
							"internalType": "address",
							"name": "newOwner",
							"type": "address"
						}
					],
					"name": "transferOwnership",
					"outputs": [],
					"stateMutability": "nonpayable",
					"type": "function"
				},
				{
					"inputs": [
						{
							"internalType": "address",
							"name": "",
							"type": "address"
						}
					],
					"name": "vestedAmount",
					"outputs": [
						{
							"internalType": "uint256",
							"name": "",
							"type": "uint256"
						}
					],
					"stateMutability": "view",
					"type": "function"
				},
				{
					"inputs": [],
					"name": "vestingStart",
					"outputs": [
						{
							"internalType": "uint256",
							"name": "",
							"type": "uint256"
						}
					],
					"stateMutability": "view",
					"type": "function"
				}
			],
			"devdoc": {
				"errors": {
					"ERC20InsufficientAllowance(address,uint256,uint256)": [
						{
							"details": "Indicates a failure with the `spender`’s `allowance`. Used in transfers.",
							"params": {
								"allowance": "Amount of tokens a `spender` is allowed to operate with.",
								"needed": "Minimum amount required to perform a transfer.",
								"spender": "Address that may be allowed to operate on tokens without being their owner."
							}
						}
					],
					"ERC20InsufficientBalance(address,uint256,uint256)": [
						{
							"details": "Indicates an error related to the current `balance` of a `sender`. Used in transfers.",
							"params": {
								"balance": "Current balance for the interacting account.",
								"needed": "Minimum amount required to perform a transfer.",
								"sender": "Address whose tokens are being transferred."
							}
						}
					],
					"ERC20InvalidApprover(address)": [
						{
							"details": "Indicates a failure with the `approver` of a token to be approved. Used in approvals.",
							"params": {
								"approver": "Address initiating an approval operation."
							}
						}
					],
					"ERC20InvalidReceiver(address)": [
						{
							"details": "Indicates a failure with the token `receiver`. Used in transfers.",
							"params": {
								"receiver": "Address to which tokens are being transferred."
							}
						}
					],
					"ERC20InvalidSender(address)": [
						{
							"details": "Indicates a failure with the token `sender`. Used in transfers.",
							"params": {
								"sender": "Address whose tokens are being transferred."
							}
						}
					],
					"ERC20InvalidSpender(address)": [
						{
							"details": "Indicates a failure with the `spender` to be approved. Used in approvals.",
							"params": {
								"spender": "Address that may be allowed to operate on tokens without being their owner."
							}
						}
					],
					"OwnableInvalidOwner(address)": [
						{
							"details": "The owner is not a valid owner account. (eg. `address(0)`)"
						}
					],
					"OwnableUnauthorizedAccount(address)": [
						{
							"details": "The caller account is not authorized to perform an operation."
						}
					]
				},
				"events": {
					"Approval(address,address,uint256)": {
						"details": "Emitted when the allowance of a `spender` for an `owner` is set by a call to {approve}. `value` is the new allowance."
					},
					"Transfer(address,address,uint256)": {
						"details": "Emitted when `value` tokens are moved from one account (`from`) to another (`to`). Note that `value` may be zero."
					}
				},
				"kind": "dev",
				"methods": {
					"allowance(address,address)": {
						"details": "See {IERC20-allowance}."
					},
					"approve(address,uint256)": {
						"details": "See {IERC20-approve}. NOTE: If `value` is the maximum `uint256`, the allowance is not updated on `transferFrom`. This is semantically equivalent to an infinite approval. Requirements: - `spender` cannot be the zero address."
					},
					"balanceOf(address)": {
						"details": "See {IERC20-balanceOf}."
					},
					"decimals()": {
						"details": "Returns the number of decimals used to get its user representation. For example, if `decimals` equals `2`, a balance of `505` tokens should be displayed to a user as `5.05` (`505 / 10 ** 2`). Tokens usually opt for a value of 18, imitating the relationship between Ether and Wei. This is the default value returned by this function, unless it's overridden. NOTE: This information is only used for _display_ purposes: it in no way affects any of the arithmetic of the contract, including {IERC20-balanceOf} and {IERC20-transfer}."
					},
					"name()": {
						"details": "Returns the name of the token."
					},
					"owner()": {
						"details": "Returns the address of the current owner."
					},
					"renounceOwnership()": {
						"details": "Leaves the contract without owner. It will not be possible to call `onlyOwner` functions. Can only be called by the current owner. NOTE: Renouncing ownership will leave the contract without an owner, thereby disabling any functionality that is only available to the owner."
					},
					"symbol()": {
						"details": "Returns the symbol of the token, usually a shorter version of the name."
					},
					"totalSupply()": {
						"details": "See {IERC20-totalSupply}."
					},
					"transfer(address,uint256)": {
						"details": "See {IERC20-transfer}. Requirements: - `to` cannot be the zero address. - the caller must have a balance of at least `value`."
					},
					"transferFrom(address,address,uint256)": {
						"details": "See {IERC20-transferFrom}. Skips emitting an {Approval} event indicating an allowance update. This is not required by the ERC. See {xref-ERC20-_approve-address-address-uint256-bool-}[_approve]. NOTE: Does not update the allowance if the current allowance is the maximum `uint256`. Requirements: - `from` and `to` cannot be the zero address. - `from` must have a balance of at least `value`. - the caller must have allowance for ``from``'s tokens of at least `value`."
					},
					"transferOwnership(address)": {
						"details": "Transfers ownership of the contract to a new account (`newOwner`). Can only be called by the current owner."
					}
				},
				"version": 1
			},
			"evm": {
				"assembly": "    /* \"contracts/3_Ballot.sol\":168:3904  contract AnimalToken is ERC20, Ownable {... */\n  mstore(0x40, 0x80)\n    /* \"contracts/3_Ballot.sol\":756:2393  constructor(... */\n  callvalue\n  dup1\n  iszero\n  tag_1\n  jumpi\n  0x00\n  dup1\n  revert\ntag_1:\n  pop\n  mload(0x40)\n  sub(codesize, bytecodeSize)\n  dup1\n  bytecodeSize\n  dup4\n  codecopy\n  dup2\n  dup2\n  add\n  0x40\n  mstore\n  dup2\n  add\n  swap1\n  tag_2\n  swap2\n  swap1\n  tag_3\n  jump\t// in\ntag_2:\n    /* \"contracts/3_Ballot.sol\":1018:1028  msg.sender */\n  caller\n    /* \"@openzeppelin/contracts/token/ERC20/ERC20.sol\":1582:1695  constructor(string memory name_, string memory symbol_) {... */\n  mload(0x40)\n  dup1\n  0x40\n  add\n  0x40\n  mstore\n  dup1\n  0x0b\n  dup2\n  mstore\n  0x20\n  add\n  0x416e696d616c546f6b656e000000000000000000000000000000000000000000\n  dup2\n  mstore\n  pop\n  mload(0x40)\n  dup1\n  0x40\n  add\n  0x40\n  mstore\n  dup1\n  0x04\n  dup2\n  mstore\n  0x20\n  add\n  0x414e4d4c00000000000000000000000000000000000000000000000000000000\n  dup2\n  mstore\n  pop\n    /* \"@openzeppelin/contracts/token/ERC20/ERC20.sol\":1656:1661  name_ */\n  dup2\n    /* \"@openzeppelin/contracts/token/ERC20/ERC20.sol\":1648:1653  _name */\n  0x03\n    /* \"@openzeppelin/contracts/token/ERC20/ERC20.sol\":1648:1661  _name = name_ */\n  swap1\n  dup2\n  tag_8\n  swap2\n  swap1\n  tag_9\n  jump\t// in\ntag_8:\n  pop\n    /* \"@openzeppelin/contracts/token/ERC20/ERC20.sol\":1681:1688  symbol_ */\n  dup1\n    /* \"@openzeppelin/contracts/token/ERC20/ERC20.sol\":1671:1678  _symbol */\n  0x04\n    /* \"@openzeppelin/contracts/token/ERC20/ERC20.sol\":1671:1688  _symbol = symbol_ */\n  swap1\n  dup2\n  tag_10\n  swap2\n  swap1\n  tag_9\n  jump\t// in\ntag_10:\n  pop\n    /* \"@openzeppelin/contracts/token/ERC20/ERC20.sol\":1582:1695  constructor(string memory name_, string memory symbol_) {... */\n  pop\n  pop\n    /* \"@openzeppelin/contracts/access/Ownable.sol\":1297:1298  0 */\n  0x00\n    /* \"@openzeppelin/contracts/access/Ownable.sol\":1273:1299  initialOwner == address(0) */\n  0xffffffffffffffffffffffffffffffffffffffff\n  and\n    /* \"@openzeppelin/contracts/access/Ownable.sol\":1273:1285  initialOwner */\n  dup2\n    /* \"@openzeppelin/contracts/access/Ownable.sol\":1273:1299  initialOwner == address(0) */\n  0xffffffffffffffffffffffffffffffffffffffff\n  and\n  sub\n    /* \"@openzeppelin/contracts/access/Ownable.sol\":1269:1364  if (initialOwner == address(0)) {... */\n  tag_12\n  jumpi\n    /* \"@openzeppelin/contracts/access/Ownable.sol\":1350:1351  0 */\n  0x00\n    /* \"@openzeppelin/contracts/access/Ownable.sol\":1322:1353  OwnableInvalidOwner(address(0)) */\n  mload(0x40)\n  0x1e4fbdf700000000000000000000000000000000000000000000000000000000\n  dup2\n  mstore\n  0x04\n  add\n  tag_13\n  swap2\n  swap1\n  tag_14\n  jump\t// in\ntag_13:\n  mload(0x40)\n  dup1\n  swap2\n  sub\n  swap1\n  revert\n    /* \"@openzeppelin/contracts/access/Ownable.sol\":1269:1364  if (initialOwner == address(0)) {... */\ntag_12:\n    /* \"@openzeppelin/contracts/access/Ownable.sol\":1373:1405  _transferOwnership(initialOwner) */\n  tag_15\n    /* \"@openzeppelin/contracts/access/Ownable.sol\":1392:1404  initialOwner */\n  dup2\n    /* \"@openzeppelin/contracts/access/Ownable.sol\":1373:1391  _transferOwnership */\n  shl(0x20, tag_16)\n    /* \"@openzeppelin/contracts/access/Ownable.sol\":1373:1405  _transferOwnership(initialOwner) */\n  0x20\n  shr\n  jump\t// in\ntag_15:\n    /* \"@openzeppelin/contracts/access/Ownable.sol\":1225:1412  constructor(address initialOwner) {... */\n  pop\n    /* \"contracts/3_Ballot.sol\":1072:1073  0 */\n  0x00\n    /* \"contracts/3_Ballot.sol\":1048:1074  _teamPlayer2 != address(0) */\n  0xffffffffffffffffffffffffffffffffffffffff\n  and\n    /* \"contracts/3_Ballot.sol\":1048:1060  _teamPlayer2 */\n  dup7\n    /* \"contracts/3_Ballot.sol\":1048:1074  _teamPlayer2 != address(0) */\n  0xffffffffffffffffffffffffffffffffffffffff\n  and\n  eq\n  iszero\n    /* \"contracts/3_Ballot.sol\":1048:1104  _teamPlayer2 != address(0) && _teamPlayer3 != address(0) */\n  dup1\n  iszero\n  tag_18\n  jumpi\n  pop\n    /* \"contracts/3_Ballot.sol\":1102:1103  0 */\n  0x00\n    /* \"contracts/3_Ballot.sol\":1078:1104  _teamPlayer3 != address(0) */\n  0xffffffffffffffffffffffffffffffffffffffff\n  and\n    /* \"contracts/3_Ballot.sol\":1078:1090  _teamPlayer3 */\n  dup6\n    /* \"contracts/3_Ballot.sol\":1078:1104  _teamPlayer3 != address(0) */\n  0xffffffffffffffffffffffffffffffffffffffff\n  and\n  eq\n  iszero\n    /* \"contracts/3_Ballot.sol\":1048:1104  _teamPlayer2 != address(0) && _teamPlayer3 != address(0) */\ntag_18:\n    /* \"contracts/3_Ballot.sol\":1040:1121  require(_teamPlayer2 != address(0) && _teamPlayer3 != address(0), \"Invalid team\") */\n  tag_19\n  jumpi\n  mload(0x40)\n  0x08c379a000000000000000000000000000000000000000000000000000000000\n  dup2\n  mstore\n  0x04\n  add\n  tag_20\n  swap1\n  tag_21\n  jump\t// in\ntag_20:\n  mload(0x40)\n  dup1\n  swap2\n  sub\n  swap1\n  revert\ntag_19:\n    /* \"contracts/3_Ballot.sol\":1146:1158  _teamPlayer2 */\n  dup6\n    /* \"contracts/3_Ballot.sol\":1132:1143  teamPlayer2 */\n  0x06\n  0x00\n    /* \"contracts/3_Ballot.sol\":1132:1158  teamPlayer2 = _teamPlayer2 */\n  0x0100\n  exp\n  dup2\n  sload\n  dup2\n  0xffffffffffffffffffffffffffffffffffffffff\n  mul\n  not\n  and\n  swap1\n  dup4\n  0xffffffffffffffffffffffffffffffffffffffff\n  and\n  mul\n  or\n  swap1\n  sstore\n  pop\n    /* \"contracts/3_Ballot.sol\":1182:1194  _teamPlayer3 */\n  dup5\n    /* \"contracts/3_Ballot.sol\":1168:1179  teamPlayer3 */\n  0x07\n  0x00\n    /* \"contracts/3_Ballot.sol\":1168:1194  teamPlayer3 = _teamPlayer3 */\n  0x0100\n  exp\n  dup2\n  sload\n  dup2\n  0xffffffffffffffffffffffffffffffffffffffff\n  mul\n  not\n  and\n  swap1\n  dup4\n  0xffffffffffffffffffffffffffffffffffffffff\n  and\n  mul\n  or\n  swap1\n  sstore\n  pop\n    /* \"contracts/3_Ballot.sol\":1219:1229  msg.sender */\n  caller\n    /* \"contracts/3_Ballot.sol\":1204:1216  ownerAddress */\n  0x08\n  0x00\n    /* \"contracts/3_Ballot.sol\":1204:1229  ownerAddress = msg.sender */\n  0x0100\n  exp\n  dup2\n  sload\n  dup2\n  0xffffffffffffffffffffffffffffffffffffffff\n  mul\n  not\n  and\n  swap1\n  dup4\n  0xffffffffffffffffffffffffffffffffffffffff\n  and\n  mul\n  or\n  swap1\n  sstore\n  pop\n    /* \"contracts/3_Ballot.sol\":1258:1274  _liquidityWallet */\n  dup4\n    /* \"contracts/3_Ballot.sol\":1240:1255  liquidityWallet */\n  0x09\n  0x00\n    /* \"contracts/3_Ballot.sol\":1240:1274  liquidityWallet = _liquidityWallet */\n  0x0100\n  exp\n  dup2\n  sload\n  dup2\n  0xffffffffffffffffffffffffffffffffffffffff\n  mul\n  not\n  and\n  swap1\n  dup4\n  0xffffffffffffffffffffffffffffffffffffffff\n  and\n  mul\n  or\n  swap1\n  sstore\n  pop\n    /* \"contracts/3_Ballot.sol\":1303:1320  _animalFundWallet */\n  dup3\n    /* \"contracts/3_Ballot.sol\":1284:1300  animalFundWallet */\n  0x0a\n  0x00\n    /* \"contracts/3_Ballot.sol\":1284:1320  animalFundWallet = _animalFundWallet */\n  0x0100\n  exp\n  dup2\n  sload\n  dup2\n  0xffffffffffffffffffffffffffffffffffffffff\n  mul\n  not\n  and\n  swap1\n  dup4\n  0xffffffffffffffffffffffffffffffffffffffff\n  and\n  mul\n  or\n  swap1\n  sstore\n  pop\n    /* \"contracts/3_Ballot.sol\":1355:1378  _communityRewardsWallet */\n  dup2\n    /* \"contracts/3_Ballot.sol\":1330:1352  communityRewardsWallet */\n  0x0b\n  0x00\n    /* \"contracts/3_Ballot.sol\":1330:1378  communityRewardsWallet = _communityRewardsWallet */\n  0x0100\n  exp\n  dup2\n  sload\n  dup2\n  0xffffffffffffffffffffffffffffffffffffffff\n  mul\n  not\n  and\n  swap1\n  dup4\n  0xffffffffffffffffffffffffffffffffffffffff\n  and\n  mul\n  or\n  swap1\n  sstore\n  pop\n    /* \"contracts/3_Ballot.sol\":1409:1428  _devMarketingWallet */\n  dup1\n    /* \"contracts/3_Ballot.sol\":1388:1406  devMarketingWallet */\n  0x0c\n  0x00\n    /* \"contracts/3_Ballot.sol\":1388:1428  devMarketingWallet = _devMarketingWallet */\n  0x0100\n  exp\n  dup2\n  sload\n  dup2\n  0xffffffffffffffffffffffffffffffffffffffff\n  mul\n  not\n  and\n  swap1\n  dup4\n  0xffffffffffffffffffffffffffffffffffffffff\n  and\n  mul\n  or\n  swap1\n  sstore\n  pop\n    /* \"contracts/3_Ballot.sol\":1480:1514  _mint(address(this), TOTAL_SUPPLY) */\n  tag_22\n    /* \"contracts/3_Ballot.sol\":1494:1498  this */\n  address\n    /* \"contracts/3_Ballot.sol\":252:278  111_000_000_000_000 * 1e18 */\n  0x05790457fe4e8cb32891c0000000\n    /* \"contracts/3_Ballot.sol\":1480:1485  _mint */\n  shl(0x20, tag_23)\n    /* \"contracts/3_Ballot.sol\":1480:1514  _mint(address(this), TOTAL_SUPPLY) */\n  0x20\n  shr\n  jump\t// in\ntag_22:\n    /* \"contracts/3_Ballot.sol\":1596:1657  _transfer(address(this), teamPlayer2, 750_000_000_000 * 1e18) */\n  tag_24\n    /* \"contracts/3_Ballot.sol\":1614:1618  this */\n  address\n    /* \"contracts/3_Ballot.sol\":1621:1632  teamPlayer2 */\n  0x06\n  0x00\n  swap1\n  sload\n  swap1\n  0x0100\n  exp\n  swap1\n  div\n  0xffffffffffffffffffffffffffffffffffffffff\n  and\n    /* \"contracts/3_Ballot.sol\":1634:1656  750_000_000_000 * 1e18 */\n  0x097761759c34d7b26fb0000000\n    /* \"contracts/3_Ballot.sol\":1596:1605  _transfer */\n  shl(0x20, tag_25)\n    /* \"contracts/3_Ballot.sol\":1596:1657  _transfer(address(this), teamPlayer2, 750_000_000_000 * 1e18) */\n  0x20\n  shr\n  jump\t// in\ntag_24:\n    /* \"contracts/3_Ballot.sol\":1667:1728  _transfer(address(this), teamPlayer3, 750_000_000_000 * 1e18) */\n  tag_26\n    /* \"contracts/3_Ballot.sol\":1685:1689  this */\n  address\n    /* \"contracts/3_Ballot.sol\":1692:1703  teamPlayer3 */\n  0x07\n  0x00\n  swap1\n  sload\n  swap1\n  0x0100\n  exp\n  swap1\n  div\n  0xffffffffffffffffffffffffffffffffffffffff\n  and\n    /* \"contracts/3_Ballot.sol\":1705:1727  750_000_000_000 * 1e18 */\n  0x097761759c34d7b26fb0000000\n    /* \"contracts/3_Ballot.sol\":1667:1676  _transfer */\n  shl(0x20, tag_25)\n    /* \"contracts/3_Ballot.sol\":1667:1728  _transfer(address(this), teamPlayer3, 750_000_000_000 * 1e18) */\n  0x20\n  shr\n  jump\t// in\ntag_26:\n    /* \"contracts/3_Ballot.sol\":1738:1802  _transfer(address(this), ownerAddress, 5_500_000_000_000 * 1e18) */\n  tag_27\n    /* \"contracts/3_Ballot.sol\":1756:1760  this */\n  address\n    /* \"contracts/3_Ballot.sol\":1763:1775  ownerAddress */\n  0x08\n  0x00\n  swap1\n  sload\n  swap1\n  0x0100\n  exp\n  swap1\n  div\n  0xffffffffffffffffffffffffffffffffffffffff\n  and\n    /* \"contracts/3_Ballot.sol\":1777:1801  5_500_000_000_000 * 1e18 */\n  0x456b755e7983831c8860000000\n    /* \"contracts/3_Ballot.sol\":1738:1747  _transfer */\n  shl(0x20, tag_25)\n    /* \"contracts/3_Ballot.sol\":1738:1802  _transfer(address(this), ownerAddress, 5_500_000_000_000 * 1e18) */\n  0x20\n  shr\n  jump\t// in\ntag_27:\n    /* \"contracts/3_Ballot.sol\":1875:1899  2_250_000_000_000 * 1e18 */\n  0x1c662460d49e87174f10000000\n    /* \"contracts/3_Ballot.sol\":1847:1859  vestedAmount */\n  0x0f\n    /* \"contracts/3_Ballot.sol\":1847:1872  vestedAmount[teamPlayer2] */\n  0x00\n    /* \"contracts/3_Ballot.sol\":1860:1871  teamPlayer2 */\n  0x06\n  0x00\n  swap1\n  sload\n  swap1\n  0x0100\n  exp\n  swap1\n  div\n  0xffffffffffffffffffffffffffffffffffffffff\n  and\n    /* \"contracts/3_Ballot.sol\":1847:1872  vestedAmount[teamPlayer2] */\n  0xffffffffffffffffffffffffffffffffffffffff\n  and\n  0xffffffffffffffffffffffffffffffffffffffff\n  and\n  dup2\n  mstore\n  0x20\n  add\n  swap1\n  dup2\n  mstore\n  0x20\n  add\n  0x00\n  keccak256\n    /* \"contracts/3_Ballot.sol\":1847:1899  vestedAmount[teamPlayer2] = 2_250_000_000_000 * 1e18 */\n  dup2\n  swap1\n  sstore\n  pop\n    /* \"contracts/3_Ballot.sol\":1937:1961  2_250_000_000_000 * 1e18 */\n  0x1c662460d49e87174f10000000\n    /* \"contracts/3_Ballot.sol\":1909:1921  vestedAmount */\n  0x0f\n    /* \"contracts/3_Ballot.sol\":1909:1934  vestedAmount[teamPlayer3] */\n  0x00\n    /* \"contracts/3_Ballot.sol\":1922:1933  teamPlayer3 */\n  0x07\n  0x00\n  swap1\n  sload\n  swap1\n  0x0100\n  exp\n  swap1\n  div\n  0xffffffffffffffffffffffffffffffffffffffff\n  and\n    /* \"contracts/3_Ballot.sol\":1909:1934  vestedAmount[teamPlayer3] */\n  0xffffffffffffffffffffffffffffffffffffffff\n  and\n  0xffffffffffffffffffffffffffffffffffffffff\n  and\n  dup2\n  mstore\n  0x20\n  add\n  swap1\n  dup2\n  mstore\n  0x20\n  add\n  0x00\n  keccak256\n    /* \"contracts/3_Ballot.sol\":1909:1961  vestedAmount[teamPlayer3] = 2_250_000_000_000 * 1e18 */\n  dup2\n  swap1\n  sstore\n  pop\n    /* \"contracts/3_Ballot.sol\":2000:2025  16_500_000_000_000 * 1e18 */\n  0xd042601b6c8a89559920000000\n    /* \"contracts/3_Ballot.sol\":1971:1983  vestedAmount */\n  0x0f\n    /* \"contracts/3_Ballot.sol\":1971:1997  vestedAmount[ownerAddress] */\n  0x00\n    /* \"contracts/3_Ballot.sol\":1984:1996  ownerAddress */\n  0x08\n  0x00\n  swap1\n  sload\n  swap1\n  0x0100\n  exp\n  swap1\n  div\n  0xffffffffffffffffffffffffffffffffffffffff\n  and\n    /* \"contracts/3_Ballot.sol\":1971:1997  vestedAmount[ownerAddress] */\n  0xffffffffffffffffffffffffffffffffffffffff\n  and\n  0xffffffffffffffffffffffffffffffffffffffff\n  and\n  dup2\n  mstore\n  0x20\n  add\n  swap1\n  dup2\n  mstore\n  0x20\n  add\n  0x00\n  keccak256\n    /* \"contracts/3_Ballot.sol\":1971:2025  vestedAmount[ownerAddress] = 16_500_000_000_000 * 1e18 */\n  dup2\n  swap1\n  sstore\n  pop\n    /* \"contracts/3_Ballot.sol\":2073:2141  _transfer(address(this), liquidityWallet, 22_200_000_000_000 * 1e18) */\n  tag_28\n    /* \"contracts/3_Ballot.sol\":2091:2095  this */\n  address\n    /* \"contracts/3_Ballot.sol\":2098:2113  liquidityWallet */\n  0x09\n  0x00\n  swap1\n  sload\n  swap1\n  0x0100\n  exp\n  swap1\n  div\n  0xffffffffffffffffffffffffffffffffffffffff\n  and\n    /* \"contracts/3_Ballot.sol\":2115:2140  22_200_000_000_000 * 1e18 */\n  0x011834119942e8f0a1b6c0000000\n    /* \"contracts/3_Ballot.sol\":2073:2082  _transfer */\n  shl(0x20, tag_25)\n    /* \"contracts/3_Ballot.sol\":2073:2141  _transfer(address(this), liquidityWallet, 22_200_000_000_000 * 1e18) */\n  0x20\n  shr\n  jump\t// in\ntag_28:\n    /* \"contracts/3_Ballot.sol\":2151:2220  _transfer(address(this), animalFundWallet, 11_100_000_000_000 * 1e18) */\n  tag_29\n    /* \"contracts/3_Ballot.sol\":2169:2173  this */\n  address\n    /* \"contracts/3_Ballot.sol\":2176:2192  animalFundWallet */\n  0x0a\n  0x00\n  swap1\n  sload\n  swap1\n  0x0100\n  exp\n  swap1\n  div\n  0xffffffffffffffffffffffffffffffffffffffff\n  and\n    /* \"contracts/3_Ballot.sol\":2194:2219  11_100_000_000_000 * 1e18 */\n  0x8c1a08cca1747850db60000000\n    /* \"contracts/3_Ballot.sol\":2151:2160  _transfer */\n  shl(0x20, tag_25)\n    /* \"contracts/3_Ballot.sol\":2151:2220  _transfer(address(this), animalFundWallet, 11_100_000_000_000 * 1e18) */\n  0x20\n  shr\n  jump\t// in\ntag_29:\n    /* \"contracts/3_Ballot.sol\":2230:2305  _transfer(address(this), communityRewardsWallet, 11_100_000_000_000 * 1e18) */\n  tag_30\n    /* \"contracts/3_Ballot.sol\":2248:2252  this */\n  address\n    /* \"contracts/3_Ballot.sol\":2255:2277  communityRewardsWallet */\n  0x0b\n  0x00\n  swap1\n  sload\n  swap1\n  0x0100\n  exp\n  swap1\n  div\n  0xffffffffffffffffffffffffffffffffffffffff\n  and\n    /* \"contracts/3_Ballot.sol\":2279:2304  11_100_000_000_000 * 1e18 */\n  0x8c1a08cca1747850db60000000\n    /* \"contracts/3_Ballot.sol\":2230:2239  _transfer */\n  shl(0x20, tag_25)\n    /* \"contracts/3_Ballot.sol\":2230:2305  _transfer(address(this), communityRewardsWallet, 11_100_000_000_000 * 1e18) */\n  0x20\n  shr\n  jump\t// in\ntag_30:\n    /* \"contracts/3_Ballot.sol\":2315:2386  _transfer(address(this), devMarketingWallet, 11_100_000_000_000 * 1e18) */\n  tag_31\n    /* \"contracts/3_Ballot.sol\":2333:2337  this */\n  address\n    /* \"contracts/3_Ballot.sol\":2340:2358  devMarketingWallet */\n  0x0c\n  0x00\n  swap1\n  sload\n  swap1\n  0x0100\n  exp\n  swap1\n  div\n  0xffffffffffffffffffffffffffffffffffffffff\n  and\n    /* \"contracts/3_Ballot.sol\":2360:2385  11_100_000_000_000 * 1e18 */\n  0x8c1a08cca1747850db60000000\n    /* \"contracts/3_Ballot.sol\":2315:2324  _transfer */\n  shl(0x20, tag_25)\n    /* \"contracts/3_Ballot.sol\":2315:2386  _transfer(address(this), devMarketingWallet, 11_100_000_000_000 * 1e18) */\n  0x20\n  shr\n  jump\t// in\ntag_31:\n    /* \"contracts/3_Ballot.sol\":756:2393  constructor(... */\n  pop\n  pop\n  pop\n  pop\n  pop\n  pop\n    /* \"contracts/3_Ballot.sol\":168:3904  contract AnimalToken is ERC20, Ownable {... */\n  jump(tag_32)\n    /* \"@openzeppelin/contracts/access/Ownable.sol\":2912:3099  function _transferOwnership(address newOwner) internal virtual {... */\ntag_16:\n    /* \"@openzeppelin/contracts/access/Ownable.sol\":2985:3001  address oldOwner */\n  0x00\n    /* \"@openzeppelin/contracts/access/Ownable.sol\":3004:3010  _owner */\n  0x05\n  0x00\n  swap1\n  sload\n  swap1\n  0x0100\n  exp\n  swap1\n  div\n  0xffffffffffffffffffffffffffffffffffffffff\n  and\n    /* \"@openzeppelin/contracts/access/Ownable.sol\":2985:3010  address oldOwner = _owner */\n  swap1\n  pop\n    /* \"@openzeppelin/contracts/access/Ownable.sol\":3029:3037  newOwner */\n  dup2\n    /* \"@openzeppelin/contracts/access/Ownable.sol\":3020:3026  _owner */\n  0x05\n  0x00\n    /* \"@openzeppelin/contracts/access/Ownable.sol\":3020:3037  _owner = newOwner */\n  0x0100\n  exp\n  dup2\n  sload\n  dup2\n  0xffffffffffffffffffffffffffffffffffffffff\n  mul\n  not\n  and\n  swap1\n  dup4\n  0xffffffffffffffffffffffffffffffffffffffff\n  and\n  mul\n  or\n  swap1\n  sstore\n  pop\n    /* \"@openzeppelin/contracts/access/Ownable.sol\":3083:3091  newOwner */\n  dup2\n    /* \"@openzeppelin/contracts/access/Ownable.sol\":3052:3092  OwnershipTransferred(oldOwner, newOwner) */\n  0xffffffffffffffffffffffffffffffffffffffff\n  and\n    /* \"@openzeppelin/contracts/access/Ownable.sol\":3073:3081  oldOwner */\n  dup2\n    /* \"@openzeppelin/contracts/access/Ownable.sol\":3052:3092  OwnershipTransferred(oldOwner, newOwner) */\n  0xffffffffffffffffffffffffffffffffffffffff\n  and\n  0x8be0079c531659141344cd1fd0a4f28419497f9722a3daafe3b4186f6b6457e0\n  mload(0x40)\n  mload(0x40)\n  dup1\n  swap2\n  sub\n  swap1\n  log3\n    /* \"@openzeppelin/contracts/access/Ownable.sol\":2975:3099  {... */\n  pop\n    /* \"@openzeppelin/contracts/access/Ownable.sol\":2912:3099  function _transferOwnership(address newOwner) internal virtual {... */\n  pop\n  jump\t// out\n    /* \"@openzeppelin/contracts/token/ERC20/ERC20.sol\":7439:7647  function _mint(address account, uint256 value) internal {... */\ntag_23:\n    /* \"@openzeppelin/contracts/token/ERC20/ERC20.sol\":7528:7529  0 */\n  0x00\n    /* \"@openzeppelin/contracts/token/ERC20/ERC20.sol\":7509:7530  account == address(0) */\n  0xffffffffffffffffffffffffffffffffffffffff\n  and\n    /* \"@openzeppelin/contracts/token/ERC20/ERC20.sol\":7509:7516  account */\n  dup3\n    /* \"@openzeppelin/contracts/token/ERC20/ERC20.sol\":7509:7530  account == address(0) */\n  0xffffffffffffffffffffffffffffffffffffffff\n  and\n  sub\n    /* \"@openzeppelin/contracts/token/ERC20/ERC20.sol\":7505:7596  if (account == address(0)) {... */\n  tag_35\n  jumpi\n    /* \"@openzeppelin/contracts/token/ERC20/ERC20.sol\":7582:7583  0 */\n  0x00\n    /* \"@openzeppelin/contracts/token/ERC20/ERC20.sol\":7553:7585  ERC20InvalidReceiver(address(0)) */\n  mload(0x40)\n  0xec442f0500000000000000000000000000000000000000000000000000000000\n  dup2\n  mstore\n  0x04\n  add\n  tag_36\n  swap2\n  swap1\n  tag_14\n  jump\t// in\ntag_36:\n  mload(0x40)\n  dup1\n  swap2\n  sub\n  swap1\n  revert\n    /* \"@openzeppelin/contracts/token/ERC20/ERC20.sol\":7505:7596  if (account == address(0)) {... */\ntag_35:\n    /* \"@openzeppelin/contracts/token/ERC20/ERC20.sol\":7605:7640  _update(address(0), account, value) */\n  tag_37\n    /* \"@openzeppelin/contracts/token/ERC20/ERC20.sol\":7621:7622  0 */\n  0x00\n    /* \"@openzeppelin/contracts/token/ERC20/ERC20.sol\":7625:7632  account */\n  dup4\n    /* \"@openzeppelin/contracts/token/ERC20/ERC20.sol\":7634:7639  value */\n  dup4\n    /* \"@openzeppelin/contracts/token/ERC20/ERC20.sol\":7605:7612  _update */\n  shl(0x20, tag_38)\n    /* \"@openzeppelin/contracts/token/ERC20/ERC20.sol\":7605:7640  _update(address(0), account, value) */\n  0x20\n  shr\n  jump\t// in\ntag_37:\n    /* \"@openzeppelin/contracts/token/ERC20/ERC20.sol\":7439:7647  function _mint(address account, uint256 value) internal {... */\n  pop\n  pop\n  jump\t// out\n    /* \"@openzeppelin/contracts/token/ERC20/ERC20.sol\":5374:5674  function _transfer(address from, address to, uint256 value) internal {... */\ntag_25:\n    /* \"@openzeppelin/contracts/token/ERC20/ERC20.sol\":5473:5474  0 */\n  0x00\n    /* \"@openzeppelin/contracts/token/ERC20/ERC20.sol\":5457:5475  from == address(0) */\n  0xffffffffffffffffffffffffffffffffffffffff\n  and\n    /* \"@openzeppelin/contracts/token/ERC20/ERC20.sol\":5457:5461  from */\n  dup4\n    /* \"@openzeppelin/contracts/token/ERC20/ERC20.sol\":5457:5475  from == address(0) */\n  0xffffffffffffffffffffffffffffffffffffffff\n  and\n  sub\n    /* \"@openzeppelin/contracts/token/ERC20/ERC20.sol\":5453:5539  if (from == address(0)) {... */\n  tag_40\n  jumpi\n    /* \"@openzeppelin/contracts/token/ERC20/ERC20.sol\":5525:5526  0 */\n  0x00\n    /* \"@openzeppelin/contracts/token/ERC20/ERC20.sol\":5498:5528  ERC20InvalidSender(address(0)) */\n  mload(0x40)\n  0x96c6fd1e00000000000000000000000000000000000000000000000000000000\n  dup2\n  mstore\n  0x04\n  add\n  tag_41\n  swap2\n  swap1\n  tag_14\n  jump\t// in\ntag_41:\n  mload(0x40)\n  dup1\n  swap2\n  sub\n  swap1\n  revert\n    /* \"@openzeppelin/contracts/token/ERC20/ERC20.sol\":5453:5539  if (from == address(0)) {... */\ntag_40:\n    /* \"@openzeppelin/contracts/token/ERC20/ERC20.sol\":5566:5567  0 */\n  0x00\n    /* \"@openzeppelin/contracts/token/ERC20/ERC20.sol\":5552:5568  to == address(0) */\n  0xffffffffffffffffffffffffffffffffffffffff\n  and\n    /* \"@openzeppelin/contracts/token/ERC20/ERC20.sol\":5552:5554  to */\n  dup3\n    /* \"@openzeppelin/contracts/token/ERC20/ERC20.sol\":5552:5568  to == address(0) */\n  0xffffffffffffffffffffffffffffffffffffffff\n  and\n  sub\n    /* \"@openzeppelin/contracts/token/ERC20/ERC20.sol\":5548:5634  if (to == address(0)) {... */\n  tag_42\n  jumpi\n    /* \"@openzeppelin/contracts/token/ERC20/ERC20.sol\":5620:5621  0 */\n  0x00\n    /* \"@openzeppelin/contracts/token/ERC20/ERC20.sol\":5591:5623  ERC20InvalidReceiver(address(0)) */\n  mload(0x40)\n  0xec442f0500000000000000000000000000000000000000000000000000000000\n  dup2\n  mstore\n  0x04\n  add\n  tag_43\n  swap2\n  swap1\n  tag_14\n  jump\t// in\ntag_43:\n  mload(0x40)\n  dup1\n  swap2\n  sub\n  swap1\n  revert\n    /* \"@openzeppelin/contracts/token/ERC20/ERC20.sol\":5548:5634  if (to == address(0)) {... */\ntag_42:\n    /* \"@openzeppelin/contracts/token/ERC20/ERC20.sol\":5643:5667  _update(from, to, value) */\n  tag_44\n    /* \"@openzeppelin/contracts/token/ERC20/ERC20.sol\":5651:5655  from */\n  dup4\n    /* \"@openzeppelin/contracts/token/ERC20/ERC20.sol\":5657:5659  to */\n  dup4\n    /* \"@openzeppelin/contracts/token/ERC20/ERC20.sol\":5661:5666  value */\n  dup4\n    /* \"@openzeppelin/contracts/token/ERC20/ERC20.sol\":5643:5650  _update */\n  shl(0x20, tag_38)\n    /* \"@openzeppelin/contracts/token/ERC20/ERC20.sol\":5643:5667  _update(from, to, value) */\n  0x20\n  shr\n  jump\t// in\ntag_44:\n    /* \"@openzeppelin/contracts/token/ERC20/ERC20.sol\":5374:5674  function _transfer(address from, address to, uint256 value) internal {... */\n  pop\n  pop\n  pop\n  jump\t// out\n    /* \"@openzeppelin/contracts/token/ERC20/ERC20.sol\":5989:7096  function _update(address from, address to, uint256 value) internal virtual {... */\ntag_38:\n    /* \"@openzeppelin/contracts/token/ERC20/ERC20.sol\":6094:6095  0 */\n  0x00\n    /* \"@openzeppelin/contracts/token/ERC20/ERC20.sol\":6078:6096  from == address(0) */\n  0xffffffffffffffffffffffffffffffffffffffff\n  and\n    /* \"@openzeppelin/contracts/token/ERC20/ERC20.sol\":6078:6082  from */\n  dup4\n    /* \"@openzeppelin/contracts/token/ERC20/ERC20.sol\":6078:6096  from == address(0) */\n  0xffffffffffffffffffffffffffffffffffffffff\n  and\n  sub\n    /* \"@openzeppelin/contracts/token/ERC20/ERC20.sol\":6074:6614  if (from == address(0)) {... */\n  tag_46\n  jumpi\n    /* \"@openzeppelin/contracts/token/ERC20/ERC20.sol\":6230:6235  value */\n  dup1\n    /* \"@openzeppelin/contracts/token/ERC20/ERC20.sol\":6214:6226  _totalSupply */\n  0x02\n  0x00\n    /* \"@openzeppelin/contracts/token/ERC20/ERC20.sol\":6214:6235  _totalSupply += value */\n  dup3\n  dup3\n  sload\n  tag_47\n  swap2\n  swap1\n  tag_48\n  jump\t// in\ntag_47:\n  swap3\n  pop\n  pop\n  dup2\n  swap1\n  sstore\n  pop\n    /* \"@openzeppelin/contracts/token/ERC20/ERC20.sol\":6074:6614  if (from == address(0)) {... */\n  jump(tag_49)\ntag_46:\n    /* \"@openzeppelin/contracts/token/ERC20/ERC20.sol\":6266:6285  uint256 fromBalance */\n  0x00\n    /* \"@openzeppelin/contracts/token/ERC20/ERC20.sol\":6288:6297  _balances */\n  dup1\n    /* \"@openzeppelin/contracts/token/ERC20/ERC20.sol\":6288:6303  _balances[from] */\n  0x00\n    /* \"@openzeppelin/contracts/token/ERC20/ERC20.sol\":6298:6302  from */\n  dup6\n    /* \"@openzeppelin/contracts/token/ERC20/ERC20.sol\":6288:6303  _balances[from] */\n  0xffffffffffffffffffffffffffffffffffffffff\n  and\n  0xffffffffffffffffffffffffffffffffffffffff\n  and\n  dup2\n  mstore\n  0x20\n  add\n  swap1\n  dup2\n  mstore\n  0x20\n  add\n  0x00\n  keccak256\n  sload\n    /* \"@openzeppelin/contracts/token/ERC20/ERC20.sol\":6266:6303  uint256 fromBalance = _balances[from] */\n  swap1\n  pop\n    /* \"@openzeppelin/contracts/token/ERC20/ERC20.sol\":6335:6340  value */\n  dup2\n    /* \"@openzeppelin/contracts/token/ERC20/ERC20.sol\":6321:6332  fromBalance */\n  dup2\n    /* \"@openzeppelin/contracts/token/ERC20/ERC20.sol\":6321:6340  fromBalance < value */\n  lt\n    /* \"@openzeppelin/contracts/token/ERC20/ERC20.sol\":6317:6432  if (fromBalance < value) {... */\n  iszero\n  tag_50\n  jumpi\n    /* \"@openzeppelin/contracts/token/ERC20/ERC20.sol\":6392:6396  from */\n  dup4\n    /* \"@openzeppelin/contracts/token/ERC20/ERC20.sol\":6398:6409  fromBalance */\n  dup2\n    /* \"@openzeppelin/contracts/token/ERC20/ERC20.sol\":6411:6416  value */\n  dup4\n    /* \"@openzeppelin/contracts/token/ERC20/ERC20.sol\":6367:6417  ERC20InsufficientBalance(from, fromBalance, value) */\n  mload(0x40)\n  0xe450d38c00000000000000000000000000000000000000000000000000000000\n  dup2\n  mstore\n  0x04\n  add\n  tag_51\n  swap4\n  swap3\n  swap2\n  swap1\n  tag_52\n  jump\t// in\ntag_51:\n  mload(0x40)\n  dup1\n  swap2\n  sub\n  swap1\n  revert\n    /* \"@openzeppelin/contracts/token/ERC20/ERC20.sol\":6317:6432  if (fromBalance < value) {... */\ntag_50:\n    /* \"@openzeppelin/contracts/token/ERC20/ERC20.sol\":6584:6589  value */\n  dup2\n    /* \"@openzeppelin/contracts/token/ERC20/ERC20.sol\":6570:6581  fromBalance */\n  dup2\n    /* \"@openzeppelin/contracts/token/ERC20/ERC20.sol\":6570:6589  fromBalance - value */\n  sub\n    /* \"@openzeppelin/contracts/token/ERC20/ERC20.sol\":6552:6561  _balances */\n  0x00\n    /* \"@openzeppelin/contracts/token/ERC20/ERC20.sol\":6552:6567  _balances[from] */\n  dup1\n    /* \"@openzeppelin/contracts/token/ERC20/ERC20.sol\":6562:6566  from */\n  dup7\n    /* \"@openzeppelin/contracts/token/ERC20/ERC20.sol\":6552:6567  _balances[from] */\n  0xffffffffffffffffffffffffffffffffffffffff\n  and\n  0xffffffffffffffffffffffffffffffffffffffff\n  and\n  dup2\n  mstore\n  0x20\n  add\n  swap1\n  dup2\n  mstore\n  0x20\n  add\n  0x00\n  keccak256\n    /* \"@openzeppelin/contracts/token/ERC20/ERC20.sol\":6552:6589  _balances[from] = fromBalance - value */\n  dup2\n  swap1\n  sstore\n  pop\n    /* \"@openzeppelin/contracts/token/ERC20/ERC20.sol\":6252:6614  {... */\n  pop\n    /* \"@openzeppelin/contracts/token/ERC20/ERC20.sol\":6074:6614  if (from == address(0)) {... */\ntag_49:\n    /* \"@openzeppelin/contracts/token/ERC20/ERC20.sol\":6642:6643  0 */\n  0x00\n    /* \"@openzeppelin/contracts/token/ERC20/ERC20.sol\":6628:6644  to == address(0) */\n  0xffffffffffffffffffffffffffffffffffffffff\n  and\n    /* \"@openzeppelin/contracts/token/ERC20/ERC20.sol\":6628:6630  to */\n  dup3\n    /* \"@openzeppelin/contracts/token/ERC20/ERC20.sol\":6628:6644  to == address(0) */\n  0xffffffffffffffffffffffffffffffffffffffff\n  and\n  sub\n    /* \"@openzeppelin/contracts/token/ERC20/ERC20.sol\":6624:7049  if (to == address(0)) {... */\n  tag_53\n  jumpi\n    /* \"@openzeppelin/contracts/token/ERC20/ERC20.sol\":6807:6812  value */\n  dup1\n    /* \"@openzeppelin/contracts/token/ERC20/ERC20.sol\":6791:6803  _totalSupply */\n  0x02\n  0x00\n    /* \"@openzeppelin/contracts/token/ERC20/ERC20.sol\":6791:6812  _totalSupply -= value */\n  dup3\n  dup3\n  sload\n  sub\n  swap3\n  pop\n  pop\n  dup2\n  swap1\n  sstore\n  pop\n    /* \"@openzeppelin/contracts/token/ERC20/ERC20.sol\":6624:7049  if (to == address(0)) {... */\n  jump(tag_54)\ntag_53:\n    /* \"@openzeppelin/contracts/token/ERC20/ERC20.sol\":7019:7024  value */\n  dup1\n    /* \"@openzeppelin/contracts/token/ERC20/ERC20.sol\":7002:7011  _balances */\n  0x00\n    /* \"@openzeppelin/contracts/token/ERC20/ERC20.sol\":7002:7015  _balances[to] */\n  dup1\n    /* \"@openzeppelin/contracts/token/ERC20/ERC20.sol\":7012:7014  to */\n  dup5\n    /* \"@openzeppelin/contracts/token/ERC20/ERC20.sol\":7002:7015  _balances[to] */\n  0xffffffffffffffffffffffffffffffffffffffff\n  and\n  0xffffffffffffffffffffffffffffffffffffffff\n  and\n  dup2\n  mstore\n  0x20\n  add\n  swap1\n  dup2\n  mstore\n  0x20\n  add\n  0x00\n  keccak256\n  0x00\n    /* \"@openzeppelin/contracts/token/ERC20/ERC20.sol\":7002:7024  _balances[to] += value */\n  dup3\n  dup3\n  sload\n  add\n  swap3\n  pop\n  pop\n  dup2\n  swap1\n  sstore\n  pop\n    /* \"@openzeppelin/contracts/token/ERC20/ERC20.sol\":6624:7049  if (to == address(0)) {... */\ntag_54:\n    /* \"@openzeppelin/contracts/token/ERC20/ERC20.sol\":7079:7081  to */\n  dup2\n    /* \"@openzeppelin/contracts/token/ERC20/ERC20.sol\":7064:7089  Transfer(from, to, value) */\n  0xffffffffffffffffffffffffffffffffffffffff\n  and\n    /* \"@openzeppelin/contracts/token/ERC20/ERC20.sol\":7073:7077  from */\n  dup4\n    /* \"@openzeppelin/contracts/token/ERC20/ERC20.sol\":7064:7089  Transfer(from, to, value) */\n  0xffffffffffffffffffffffffffffffffffffffff\n  and\n  0xddf252ad1be2c89b69c2b068fc378daa952ba7f163c4a11628f55a4df523b3ef\n    /* \"@openzeppelin/contracts/token/ERC20/ERC20.sol\":7083:7088  value */\n  dup4\n    /* \"@openzeppelin/contracts/token/ERC20/ERC20.sol\":7064:7089  Transfer(from, to, value) */\n  mload(0x40)\n  tag_55\n  swap2\n  swap1\n  tag_56\n  jump\t// in\ntag_55:\n  mload(0x40)\n  dup1\n  swap2\n  sub\n  swap1\n  log3\n    /* \"@openzeppelin/contracts/token/ERC20/ERC20.sol\":5989:7096  function _update(address from, address to, uint256 value) internal virtual {... */\n  pop\n  pop\n  pop\n  jump\t// out\n    /* \"#utility.yul\":88:205   */\ntag_58:\n    /* \"#utility.yul\":197:198   */\n  0x00\n    /* \"#utility.yul\":194:195   */\n  dup1\n    /* \"#utility.yul\":187:199   */\n  revert\n    /* \"#utility.yul\":334:460   */\ntag_60:\n    /* \"#utility.yul\":371:378   */\n  0x00\n    /* \"#utility.yul\":411:453   */\n  0xffffffffffffffffffffffffffffffffffffffff\n    /* \"#utility.yul\":404:409   */\n  dup3\n    /* \"#utility.yul\":400:454   */\n  and\n    /* \"#utility.yul\":389:454   */\n  swap1\n  pop\n    /* \"#utility.yul\":334:460   */\n  swap2\n  swap1\n  pop\n  jump\t// out\n    /* \"#utility.yul\":466:562   */\ntag_61:\n    /* \"#utility.yul\":503:510   */\n  0x00\n    /* \"#utility.yul\":532:556   */\n  tag_96\n    /* \"#utility.yul\":550:555   */\n  dup3\n    /* \"#utility.yul\":532:556   */\n  tag_60\n  jump\t// in\ntag_96:\n    /* \"#utility.yul\":521:556   */\n  swap1\n  pop\n    /* \"#utility.yul\":466:562   */\n  swap2\n  swap1\n  pop\n  jump\t// out\n    /* \"#utility.yul\":568:690   */\ntag_62:\n    /* \"#utility.yul\":641:665   */\n  tag_98\n    /* \"#utility.yul\":659:664   */\n  dup2\n    /* \"#utility.yul\":641:665   */\n  tag_61\n  jump\t// in\ntag_98:\n    /* \"#utility.yul\":634:639   */\n  dup2\n    /* \"#utility.yul\":631:666   */\n  eq\n    /* \"#utility.yul\":621:684   */\n  tag_99\n  jumpi\n    /* \"#utility.yul\":680:681   */\n  0x00\n    /* \"#utility.yul\":677:678   */\n  dup1\n    /* \"#utility.yul\":670:682   */\n  revert\n    /* \"#utility.yul\":621:684   */\ntag_99:\n    /* \"#utility.yul\":568:690   */\n  pop\n  jump\t// out\n    /* \"#utility.yul\":696:839   */\ntag_63:\n    /* \"#utility.yul\":753:758   */\n  0x00\n    /* \"#utility.yul\":784:790   */\n  dup2\n    /* \"#utility.yul\":778:791   */\n  mload\n    /* \"#utility.yul\":769:791   */\n  swap1\n  pop\n    /* \"#utility.yul\":800:833   */\n  tag_101\n    /* \"#utility.yul\":827:832   */\n  dup2\n    /* \"#utility.yul\":800:833   */\n  tag_62\n  jump\t// in\ntag_101:\n    /* \"#utility.yul\":696:839   */\n  swap3\n  swap2\n  pop\n  pop\n  jump\t// out\n    /* \"#utility.yul\":845:1979   */\ntag_3:\n    /* \"#utility.yul\":960:966   */\n  0x00\n    /* \"#utility.yul\":968:974   */\n  dup1\n    /* \"#utility.yul\":976:982   */\n  0x00\n    /* \"#utility.yul\":984:990   */\n  dup1\n    /* \"#utility.yul\":992:998   */\n  0x00\n    /* \"#utility.yul\":1000:1006   */\n  dup1\n    /* \"#utility.yul\":1049:1052   */\n  0xc0\n    /* \"#utility.yul\":1037:1046   */\n  dup8\n    /* \"#utility.yul\":1028:1035   */\n  dup10\n    /* \"#utility.yul\":1024:1047   */\n  sub\n    /* \"#utility.yul\":1020:1053   */\n  slt\n    /* \"#utility.yul\":1017:1137   */\n  iszero\n  tag_103\n  jumpi\n    /* \"#utility.yul\":1056:1135   */\n  tag_104\n  tag_58\n  jump\t// in\ntag_104:\n    /* \"#utility.yul\":1017:1137   */\ntag_103:\n    /* \"#utility.yul\":1176:1177   */\n  0x00\n    /* \"#utility.yul\":1201:1265   */\n  tag_105\n    /* \"#utility.yul\":1257:1264   */\n  dup10\n    /* \"#utility.yul\":1248:1254   */\n  dup3\n    /* \"#utility.yul\":1237:1246   */\n  dup11\n    /* \"#utility.yul\":1233:1255   */\n  add\n    /* \"#utility.yul\":1201:1265   */\n  tag_63\n  jump\t// in\ntag_105:\n    /* \"#utility.yul\":1191:1265   */\n  swap7\n  pop\n    /* \"#utility.yul\":1147:1275   */\n  pop\n    /* \"#utility.yul\":1314:1316   */\n  0x20\n    /* \"#utility.yul\":1340:1404   */\n  tag_106\n    /* \"#utility.yul\":1396:1403   */\n  dup10\n    /* \"#utility.yul\":1387:1393   */\n  dup3\n    /* \"#utility.yul\":1376:1385   */\n  dup11\n    /* \"#utility.yul\":1372:1394   */\n  add\n    /* \"#utility.yul\":1340:1404   */\n  tag_63\n  jump\t// in\ntag_106:\n    /* \"#utility.yul\":1330:1404   */\n  swap6\n  pop\n    /* \"#utility.yul\":1285:1414   */\n  pop\n    /* \"#utility.yul\":1453:1455   */\n  0x40\n    /* \"#utility.yul\":1479:1543   */\n  tag_107\n    /* \"#utility.yul\":1535:1542   */\n  dup10\n    /* \"#utility.yul\":1526:1532   */\n  dup3\n    /* \"#utility.yul\":1515:1524   */\n  dup11\n    /* \"#utility.yul\":1511:1533   */\n  add\n    /* \"#utility.yul\":1479:1543   */\n  tag_63\n  jump\t// in\ntag_107:\n    /* \"#utility.yul\":1469:1543   */\n  swap5\n  pop\n    /* \"#utility.yul\":1424:1553   */\n  pop\n    /* \"#utility.yul\":1592:1594   */\n  0x60\n    /* \"#utility.yul\":1618:1682   */\n  tag_108\n    /* \"#utility.yul\":1674:1681   */\n  dup10\n    /* \"#utility.yul\":1665:1671   */\n  dup3\n    /* \"#utility.yul\":1654:1663   */\n  dup11\n    /* \"#utility.yul\":1650:1672   */\n  add\n    /* \"#utility.yul\":1618:1682   */\n  tag_63\n  jump\t// in\ntag_108:\n    /* \"#utility.yul\":1608:1682   */\n  swap4\n  pop\n    /* \"#utility.yul\":1563:1692   */\n  pop\n    /* \"#utility.yul\":1731:1734   */\n  0x80\n    /* \"#utility.yul\":1758:1822   */\n  tag_109\n    /* \"#utility.yul\":1814:1821   */\n  dup10\n    /* \"#utility.yul\":1805:1811   */\n  dup3\n    /* \"#utility.yul\":1794:1803   */\n  dup11\n    /* \"#utility.yul\":1790:1812   */\n  add\n    /* \"#utility.yul\":1758:1822   */\n  tag_63\n  jump\t// in\ntag_109:\n    /* \"#utility.yul\":1748:1822   */\n  swap3\n  pop\n    /* \"#utility.yul\":1702:1832   */\n  pop\n    /* \"#utility.yul\":1871:1874   */\n  0xa0\n    /* \"#utility.yul\":1898:1962   */\n  tag_110\n    /* \"#utility.yul\":1954:1961   */\n  dup10\n    /* \"#utility.yul\":1945:1951   */\n  dup3\n    /* \"#utility.yul\":1934:1943   */\n  dup11\n    /* \"#utility.yul\":1930:1952   */\n  add\n    /* \"#utility.yul\":1898:1962   */\n  tag_63\n  jump\t// in\ntag_110:\n    /* \"#utility.yul\":1888:1962   */\n  swap2\n  pop\n    /* \"#utility.yul\":1842:1972   */\n  pop\n    /* \"#utility.yul\":845:1979   */\n  swap3\n  swap6\n  pop\n  swap3\n  swap6\n  pop\n  swap3\n  swap6\n  jump\t// out\n    /* \"#utility.yul\":1985:2084   */\ntag_64:\n    /* \"#utility.yul\":2037:2043   */\n  0x00\n    /* \"#utility.yul\":2071:2076   */\n  dup2\n    /* \"#utility.yul\":2065:2077   */\n  mload\n    /* \"#utility.yul\":2055:2077   */\n  swap1\n  pop\n    /* \"#utility.yul\":1985:2084   */\n  swap2\n  swap1\n  pop\n  jump\t// out\n    /* \"#utility.yul\":2090:2270   */\ntag_65:\n    /* \"#utility.yul\":2138:2215   */\n  0x4e487b7100000000000000000000000000000000000000000000000000000000\n    /* \"#utility.yul\":2135:2136   */\n  0x00\n    /* \"#utility.yul\":2128:2216   */\n  mstore\n    /* \"#utility.yul\":2235:2239   */\n  0x41\n    /* \"#utility.yul\":2232:2233   */\n  0x04\n    /* \"#utility.yul\":2225:2240   */\n  mstore\n    /* \"#utility.yul\":2259:2263   */\n  0x24\n    /* \"#utility.yul\":2256:2257   */\n  0x00\n    /* \"#utility.yul\":2249:2264   */\n  revert\n    /* \"#utility.yul\":2276:2456   */\ntag_66:\n    /* \"#utility.yul\":2324:2401   */\n  0x4e487b7100000000000000000000000000000000000000000000000000000000\n    /* \"#utility.yul\":2321:2322   */\n  0x00\n    /* \"#utility.yul\":2314:2402   */\n  mstore\n    /* \"#utility.yul\":2421:2425   */\n  0x22\n    /* \"#utility.yul\":2418:2419   */\n  0x04\n    /* \"#utility.yul\":2411:2426   */\n  mstore\n    /* \"#utility.yul\":2445:2449   */\n  0x24\n    /* \"#utility.yul\":2442:2443   */\n  0x00\n    /* \"#utility.yul\":2435:2450   */\n  revert\n    /* \"#utility.yul\":2462:2782   */\ntag_67:\n    /* \"#utility.yul\":2506:2512   */\n  0x00\n    /* \"#utility.yul\":2543:2544   */\n  0x02\n    /* \"#utility.yul\":2537:2541   */\n  dup3\n    /* \"#utility.yul\":2533:2545   */\n  div\n    /* \"#utility.yul\":2523:2545   */\n  swap1\n  pop\n    /* \"#utility.yul\":2590:2591   */\n  0x01\n    /* \"#utility.yul\":2584:2588   */\n  dup3\n    /* \"#utility.yul\":2580:2592   */\n  and\n    /* \"#utility.yul\":2611:2629   */\n  dup1\n    /* \"#utility.yul\":2601:2682   */\n  tag_115\n  jumpi\n    /* \"#utility.yul\":2667:2671   */\n  0x7f\n    /* \"#utility.yul\":2659:2665   */\n  dup3\n    /* \"#utility.yul\":2655:2672   */\n  and\n    /* \"#utility.yul\":2645:2672   */\n  swap2\n  pop\n    /* \"#utility.yul\":2601:2682   */\ntag_115:\n    /* \"#utility.yul\":2729:2731   */\n  0x20\n    /* \"#utility.yul\":2721:2727   */\n  dup3\n    /* \"#utility.yul\":2718:2732   */\n  lt\n    /* \"#utility.yul\":2698:2716   */\n  dup2\n    /* \"#utility.yul\":2695:2733   */\n  sub\n    /* \"#utility.yul\":2692:2776   */\n  tag_116\n  jumpi\n    /* \"#utility.yul\":2748:2766   */\n  tag_117\n  tag_66\n  jump\t// in\ntag_117:\n    /* \"#utility.yul\":2692:2776   */\ntag_116:\n    /* \"#utility.yul\":2513:2782   */\n  pop\n    /* \"#utility.yul\":2462:2782   */\n  swap2\n  swap1\n  pop\n  jump\t// out\n    /* \"#utility.yul\":2788:2929   */\ntag_68:\n    /* \"#utility.yul\":2837:2841   */\n  0x00\n    /* \"#utility.yul\":2860:2863   */\n  dup2\n    /* \"#utility.yul\":2852:2863   */\n  swap1\n  pop\n    /* \"#utility.yul\":2883:2886   */\n  dup2\n    /* \"#utility.yul\":2880:2881   */\n  0x00\n    /* \"#utility.yul\":2873:2887   */\n  mstore\n    /* \"#utility.yul\":2917:2921   */\n  0x20\n    /* \"#utility.yul\":2914:2915   */\n  0x00\n    /* \"#utility.yul\":2904:2922   */\n  keccak256\n    /* \"#utility.yul\":2896:2922   */\n  swap1\n  pop\n    /* \"#utility.yul\":2788:2929   */\n  swap2\n  swap1\n  pop\n  jump\t// out\n    /* \"#utility.yul\":2935:3028   */\ntag_69:\n    /* \"#utility.yul\":2972:2978   */\n  0x00\n    /* \"#utility.yul\":3019:3021   */\n  0x20\n    /* \"#utility.yul\":3014:3016   */\n  0x1f\n    /* \"#utility.yul\":3007:3012   */\n  dup4\n    /* \"#utility.yul\":3003:3017   */\n  add\n    /* \"#utility.yul\":2999:3022   */\n  div\n    /* \"#utility.yul\":2989:3022   */\n  swap1\n  pop\n    /* \"#utility.yul\":2935:3028   */\n  swap2\n  swap1\n  pop\n  jump\t// out\n    /* \"#utility.yul\":3034:3141   */\ntag_70:\n    /* \"#utility.yul\":3078:3086   */\n  0x00\n    /* \"#utility.yul\":3128:3133   */\n  dup3\n    /* \"#utility.yul\":3122:3126   */\n  dup3\n    /* \"#utility.yul\":3118:3134   */\n  shl\n    /* \"#utility.yul\":3097:3134   */\n  swap1\n  pop\n    /* \"#utility.yul\":3034:3141   */\n  swap3\n  swap2\n  pop\n  pop\n  jump\t// out\n    /* \"#utility.yul\":3147:3540   */\ntag_71:\n    /* \"#utility.yul\":3216:3222   */\n  0x00\n    /* \"#utility.yul\":3266:3267   */\n  0x08\n    /* \"#utility.yul\":3254:3264   */\n  dup4\n    /* \"#utility.yul\":3250:3268   */\n  mul\n    /* \"#utility.yul\":3289:3386   */\n  tag_122\n    /* \"#utility.yul\":3319:3385   */\n  0xffffffffffffffffffffffffffffffffffffffffffffffffffffffffffffffff\n    /* \"#utility.yul\":3308:3317   */\n  dup3\n    /* \"#utility.yul\":3289:3386   */\n  tag_70\n  jump\t// in\ntag_122:\n    /* \"#utility.yul\":3407:3446   */\n  tag_123\n    /* \"#utility.yul\":3437:3445   */\n  dup7\n    /* \"#utility.yul\":3426:3435   */\n  dup4\n    /* \"#utility.yul\":3407:3446   */\n  tag_70\n  jump\t// in\ntag_123:\n    /* \"#utility.yul\":3395:3446   */\n  swap6\n  pop\n    /* \"#utility.yul\":3479:3483   */\n  dup1\n    /* \"#utility.yul\":3475:3484   */\n  not\n    /* \"#utility.yul\":3468:3473   */\n  dup5\n    /* \"#utility.yul\":3464:3485   */\n  and\n    /* \"#utility.yul\":3455:3485   */\n  swap4\n  pop\n    /* \"#utility.yul\":3528:3532   */\n  dup1\n    /* \"#utility.yul\":3518:3526   */\n  dup7\n    /* \"#utility.yul\":3514:3533   */\n  and\n    /* \"#utility.yul\":3507:3512   */\n  dup5\n    /* \"#utility.yul\":3504:3534   */\n  or\n    /* \"#utility.yul\":3494:3534   */\n  swap3\n  pop\n    /* \"#utility.yul\":3223:3540   */\n  pop\n  pop\n    /* \"#utility.yul\":3147:3540   */\n  swap4\n  swap3\n  pop\n  pop\n  pop\n  jump\t// out\n    /* \"#utility.yul\":3546:3623   */\ntag_72:\n    /* \"#utility.yul\":3583:3590   */\n  0x00\n    /* \"#utility.yul\":3612:3617   */\n  dup2\n    /* \"#utility.yul\":3601:3617   */\n  swap1\n  pop\n    /* \"#utility.yul\":3546:3623   */\n  swap2\n  swap1\n  pop\n  jump\t// out\n    /* \"#utility.yul\":3629:3689   */\ntag_73:\n    /* \"#utility.yul\":3657:3660   */\n  0x00\n    /* \"#utility.yul\":3678:3683   */\n  dup2\n    /* \"#utility.yul\":3671:3683   */\n  swap1\n  pop\n    /* \"#utility.yul\":3629:3689   */\n  swap2\n  swap1\n  pop\n  jump\t// out\n    /* \"#utility.yul\":3695:3837   */\ntag_74:\n    /* \"#utility.yul\":3745:3754   */\n  0x00\n    /* \"#utility.yul\":3778:3831   */\n  tag_127\n    /* \"#utility.yul\":3796:3830   */\n  tag_128\n    /* \"#utility.yul\":3805:3829   */\n  tag_129\n    /* \"#utility.yul\":3823:3828   */\n  dup5\n    /* \"#utility.yul\":3805:3829   */\n  tag_72\n  jump\t// in\ntag_129:\n    /* \"#utility.yul\":3796:3830   */\n  tag_73\n  jump\t// in\ntag_128:\n    /* \"#utility.yul\":3778:3831   */\n  tag_72\n  jump\t// in\ntag_127:\n    /* \"#utility.yul\":3765:3831   */\n  swap1\n  pop\n    /* \"#utility.yul\":3695:3837   */\n  swap2\n  swap1\n  pop\n  jump\t// out\n    /* \"#utility.yul\":3843:3918   */\ntag_75:\n    /* \"#utility.yul\":3886:3889   */\n  0x00\n    /* \"#utility.yul\":3907:3912   */\n  dup2\n    /* \"#utility.yul\":3900:3912   */\n  swap1\n  pop\n    /* \"#utility.yul\":3843:3918   */\n  swap2\n  swap1\n  pop\n  jump\t// out\n    /* \"#utility.yul\":3924:4193   */\ntag_76:\n    /* \"#utility.yul\":4034:4073   */\n  tag_132\n    /* \"#utility.yul\":4065:4072   */\n  dup4\n    /* \"#utility.yul\":4034:4073   */\n  tag_74\n  jump\t// in\ntag_132:\n    /* \"#utility.yul\":4095:4186   */\n  tag_133\n    /* \"#utility.yul\":4144:4185   */\n  tag_134\n    /* \"#utility.yul\":4168:4184   */\n  dup3\n    /* \"#utility.yul\":4144:4185   */\n  tag_75\n  jump\t// in\ntag_134:\n    /* \"#utility.yul\":4136:4142   */\n  dup5\n    /* \"#utility.yul\":4129:4133   */\n  dup5\n    /* \"#utility.yul\":4123:4134   */\n  sload\n    /* \"#utility.yul\":4095:4186   */\n  tag_71\n  jump\t// in\ntag_133:\n    /* \"#utility.yul\":4089:4093   */\n  dup3\n    /* \"#utility.yul\":4082:4187   */\n  sstore\n    /* \"#utility.yul\":4000:4193   */\n  pop\n    /* \"#utility.yul\":3924:4193   */\n  pop\n  pop\n  pop\n  jump\t// out\n    /* \"#utility.yul\":4199:4272   */\ntag_77:\n    /* \"#utility.yul\":4244:4247   */\n  0x00\n    /* \"#utility.yul\":4199:4272   */\n  swap1\n  jump\t// out\n    /* \"#utility.yul\":4278:4467   */\ntag_78:\n    /* \"#utility.yul\":4355:4387   */\n  tag_137\n  tag_77\n  jump\t// in\ntag_137:\n    /* \"#utility.yul\":4396:4461   */\n  tag_138\n    /* \"#utility.yul\":4454:4460   */\n  dup2\n    /* \"#utility.yul\":4446:4452   */\n  dup5\n    /* \"#utility.yul\":4440:4444   */\n  dup5\n    /* \"#utility.yul\":4396:4461   */\n  tag_76\n  jump\t// in\ntag_138:\n    /* \"#utility.yul\":4331:4467   */\n  pop\n    /* \"#utility.yul\":4278:4467   */\n  pop\n  pop\n  jump\t// out\n    /* \"#utility.yul\":4473:4659   */\ntag_79:\n    /* \"#utility.yul\":4533:4653   */\ntag_140:\n    /* \"#utility.yul\":4550:4553   */\n  dup2\n    /* \"#utility.yul\":4543:4548   */\n  dup2\n    /* \"#utility.yul\":4540:4554   */\n  lt\n    /* \"#utility.yul\":4533:4653   */\n  iszero\n  tag_142\n  jumpi\n    /* \"#utility.yul\":4604:4643   */\n  tag_143\n    /* \"#utility.yul\":4641:4642   */\n  0x00\n    /* \"#utility.yul\":4634:4639   */\n  dup3\n    /* \"#utility.yul\":4604:4643   */\n  tag_78\n  jump\t// in\ntag_143:\n    /* \"#utility.yul\":4577:4578   */\n  0x01\n    /* \"#utility.yul\":4570:4575   */\n  dup2\n    /* \"#utility.yul\":4566:4579   */\n  add\n    /* \"#utility.yul\":4557:4579   */\n  swap1\n  pop\n    /* \"#utility.yul\":4533:4653   */\n  jump(tag_140)\ntag_142:\n    /* \"#utility.yul\":4473:4659   */\n  pop\n  pop\n  jump\t// out\n    /* \"#utility.yul\":4665:5208   */\ntag_80:\n    /* \"#utility.yul\":4766:4768   */\n  0x1f\n    /* \"#utility.yul\":4761:4764   */\n  dup3\n    /* \"#utility.yul\":4758:4769   */\n  gt\n    /* \"#utility.yul\":4755:5201   */\n  iszero\n  tag_145\n  jumpi\n    /* \"#utility.yul\":4800:4838   */\n  tag_146\n    /* \"#utility.yul\":4832:4837   */\n  dup2\n    /* \"#utility.yul\":4800:4838   */\n  tag_68\n  jump\t// in\ntag_146:\n    /* \"#utility.yul\":4884:4913   */\n  tag_147\n    /* \"#utility.yul\":4902:4912   */\n  dup5\n    /* \"#utility.yul\":4884:4913   */\n  tag_69\n  jump\t// in\ntag_147:\n    /* \"#utility.yul\":4874:4882   */\n  dup2\n    /* \"#utility.yul\":4870:4914   */\n  add\n    /* \"#utility.yul\":5067:5069   */\n  0x20\n    /* \"#utility.yul\":5055:5065   */\n  dup6\n    /* \"#utility.yul\":5052:5070   */\n  lt\n    /* \"#utility.yul\":5049:5098   */\n  iszero\n  tag_148\n  jumpi\n    /* \"#utility.yul\":5088:5096   */\n  dup2\n    /* \"#utility.yul\":5073:5096   */\n  swap1\n  pop\n    /* \"#utility.yul\":5049:5098   */\ntag_148:\n    /* \"#utility.yul\":5111:5191   */\n  tag_149\n    /* \"#utility.yul\":5167:5189   */\n  tag_150\n    /* \"#utility.yul\":5185:5188   */\n  dup6\n    /* \"#utility.yul\":5167:5189   */\n  tag_69\n  jump\t// in\ntag_150:\n    /* \"#utility.yul\":5157:5165   */\n  dup4\n    /* \"#utility.yul\":5153:5190   */\n  add\n    /* \"#utility.yul\":5140:5151   */\n  dup3\n    /* \"#utility.yul\":5111:5191   */\n  tag_79\n  jump\t// in\ntag_149:\n    /* \"#utility.yul\":4770:5201   */\n  pop\n  pop\n    /* \"#utility.yul\":4755:5201   */\ntag_145:\n    /* \"#utility.yul\":4665:5208   */\n  pop\n  pop\n  pop\n  jump\t// out\n    /* \"#utility.yul\":5214:5331   */\ntag_81:\n    /* \"#utility.yul\":5268:5276   */\n  0x00\n    /* \"#utility.yul\":5318:5323   */\n  dup3\n    /* \"#utility.yul\":5312:5316   */\n  dup3\n    /* \"#utility.yul\":5308:5324   */\n  shr\n    /* \"#utility.yul\":5287:5324   */\n  swap1\n  pop\n    /* \"#utility.yul\":5214:5331   */\n  swap3\n  swap2\n  pop\n  pop\n  jump\t// out\n    /* \"#utility.yul\":5337:5506   */\ntag_82:\n    /* \"#utility.yul\":5381:5387   */\n  0x00\n    /* \"#utility.yul\":5414:5465   */\n  tag_153\n    /* \"#utility.yul\":5462:5463   */\n  0x00\n    /* \"#utility.yul\":5458:5464   */\n  not\n    /* \"#utility.yul\":5450:5455   */\n  dup5\n    /* \"#utility.yul\":5447:5448   */\n  0x08\n    /* \"#utility.yul\":5443:5456   */\n  mul\n    /* \"#utility.yul\":5414:5465   */\n  tag_81\n  jump\t// in\ntag_153:\n    /* \"#utility.yul\":5410:5466   */\n  not\n    /* \"#utility.yul\":5495:5499   */\n  dup1\n    /* \"#utility.yul\":5489:5493   */\n  dup4\n    /* \"#utility.yul\":5485:5500   */\n  and\n    /* \"#utility.yul\":5475:5500   */\n  swap2\n  pop\n    /* \"#utility.yul\":5388:5506   */\n  pop\n    /* \"#utility.yul\":5337:5506   */\n  swap3\n  swap2\n  pop\n  pop\n  jump\t// out\n    /* \"#utility.yul\":5511:5806   */\ntag_83:\n    /* \"#utility.yul\":5587:5591   */\n  0x00\n    /* \"#utility.yul\":5733:5762   */\n  tag_155\n    /* \"#utility.yul\":5758:5761   */\n  dup4\n    /* \"#utility.yul\":5752:5756   */\n  dup4\n    /* \"#utility.yul\":5733:5762   */\n  tag_82\n  jump\t// in\ntag_155:\n    /* \"#utility.yul\":5725:5762   */\n  swap2\n  pop\n    /* \"#utility.yul\":5795:5798   */\n  dup3\n    /* \"#utility.yul\":5792:5793   */\n  0x02\n    /* \"#utility.yul\":5788:5799   */\n  mul\n    /* \"#utility.yul\":5782:5786   */\n  dup3\n    /* \"#utility.yul\":5779:5800   */\n  or\n    /* \"#utility.yul\":5771:5800   */\n  swap1\n  pop\n    /* \"#utility.yul\":5511:5806   */\n  swap3\n  swap2\n  pop\n  pop\n  jump\t// out\n    /* \"#utility.yul\":5811:7206   */\ntag_9:\n    /* \"#utility.yul\":5928:5965   */\n  tag_157\n    /* \"#utility.yul\":5961:5964   */\n  dup3\n    /* \"#utility.yul\":5928:5965   */\n  tag_64\n  jump\t// in\ntag_157:\n    /* \"#utility.yul\":6030:6048   */\n  0xffffffffffffffff\n    /* \"#utility.yul\":6022:6028   */\n  dup2\n    /* \"#utility.yul\":6019:6049   */\n  gt\n    /* \"#utility.yul\":6016:6072   */\n  iszero\n  tag_158\n  jumpi\n    /* \"#utility.yul\":6052:6070   */\n  tag_159\n  tag_65\n  jump\t// in\ntag_159:\n    /* \"#utility.yul\":6016:6072   */\ntag_158:\n    /* \"#utility.yul\":6096:6134   */\n  tag_160\n    /* \"#utility.yul\":6128:6132   */\n  dup3\n    /* \"#utility.yul\":6122:6133   */\n  sload\n    /* \"#utility.yul\":6096:6134   */\n  tag_67\n  jump\t// in\ntag_160:\n    /* \"#utility.yul\":6181:6248   */\n  tag_161\n    /* \"#utility.yul\":6241:6247   */\n  dup3\n    /* \"#utility.yul\":6233:6239   */\n  dup3\n    /* \"#utility.yul\":6227:6231   */\n  dup6\n    /* \"#utility.yul\":6181:6248   */\n  tag_80\n  jump\t// in\ntag_161:\n    /* \"#utility.yul\":6275:6276   */\n  0x00\n    /* \"#utility.yul\":6299:6303   */\n  0x20\n    /* \"#utility.yul\":6286:6303   */\n  swap1\n  pop\n    /* \"#utility.yul\":6331:6333   */\n  0x1f\n    /* \"#utility.yul\":6323:6329   */\n  dup4\n    /* \"#utility.yul\":6320:6334   */\n  gt\n    /* \"#utility.yul\":6348:6349   */\n  0x01\n    /* \"#utility.yul\":6343:6961   */\n  dup2\n  eq\n  tag_163\n  jumpi\n    /* \"#utility.yul\":7005:7006   */\n  0x00\n    /* \"#utility.yul\":7022:7028   */\n  dup5\n    /* \"#utility.yul\":7019:7096   */\n  iszero\n  tag_164\n  jumpi\n    /* \"#utility.yul\":7071:7080   */\n  dup3\n    /* \"#utility.yul\":7066:7069   */\n  dup8\n    /* \"#utility.yul\":7062:7081   */\n  add\n    /* \"#utility.yul\":7056:7082   */\n  mload\n    /* \"#utility.yul\":7047:7082   */\n  swap1\n  pop\n    /* \"#utility.yul\":7019:7096   */\ntag_164:\n    /* \"#utility.yul\":7122:7189   */\n  tag_165\n    /* \"#utility.yul\":7182:7188   */\n  dup6\n    /* \"#utility.yul\":7175:7180   */\n  dup3\n    /* \"#utility.yul\":7122:7189   */\n  tag_83\n  jump\t// in\ntag_165:\n    /* \"#utility.yul\":7116:7120   */\n  dup7\n    /* \"#utility.yul\":7109:7190   */\n  sstore\n    /* \"#utility.yul\":6978:7200   */\n  pop\n    /* \"#utility.yul\":6313:7200   */\n  jump(tag_162)\n    /* \"#utility.yul\":6343:6961   */\ntag_163:\n    /* \"#utility.yul\":6395:6399   */\n  0x1f\n    /* \"#utility.yul\":6391:6400   */\n  not\n    /* \"#utility.yul\":6383:6389   */\n  dup5\n    /* \"#utility.yul\":6379:6401   */\n  and\n    /* \"#utility.yul\":6429:6466   */\n  tag_166\n    /* \"#utility.yul\":6461:6465   */\n  dup7\n    /* \"#utility.yul\":6429:6466   */\n  tag_68\n  jump\t// in\ntag_166:\n    /* \"#utility.yul\":6488:6489   */\n  0x00\n    /* \"#utility.yul\":6502:6710   */\ntag_167:\n    /* \"#utility.yul\":6516:6523   */\n  dup3\n    /* \"#utility.yul\":6513:6514   */\n  dup2\n    /* \"#utility.yul\":6510:6524   */\n  lt\n    /* \"#utility.yul\":6502:6710   */\n  iszero\n  tag_169\n  jumpi\n    /* \"#utility.yul\":6595:6604   */\n  dup5\n    /* \"#utility.yul\":6590:6593   */\n  dup10\n    /* \"#utility.yul\":6586:6605   */\n  add\n    /* \"#utility.yul\":6580:6606   */\n  mload\n    /* \"#utility.yul\":6572:6578   */\n  dup3\n    /* \"#utility.yul\":6565:6607   */\n  sstore\n    /* \"#utility.yul\":6646:6647   */\n  0x01\n    /* \"#utility.yul\":6638:6644   */\n  dup3\n    /* \"#utility.yul\":6634:6648   */\n  add\n    /* \"#utility.yul\":6624:6648   */\n  swap2\n  pop\n    /* \"#utility.yul\":6693:6695   */\n  0x20\n    /* \"#utility.yul\":6682:6691   */\n  dup6\n    /* \"#utility.yul\":6678:6696   */\n  add\n    /* \"#utility.yul\":6665:6696   */\n  swap5\n  pop\n    /* \"#utility.yul\":6539:6543   */\n  0x20\n    /* \"#utility.yul\":6536:6537   */\n  dup2\n    /* \"#utility.yul\":6532:6544   */\n  add\n    /* \"#utility.yul\":6527:6544   */\n  swap1\n  pop\n    /* \"#utility.yul\":6502:6710   */\n  jump(tag_167)\ntag_169:\n    /* \"#utility.yul\":6738:6744   */\n  dup7\n    /* \"#utility.yul\":6729:6736   */\n  dup4\n    /* \"#utility.yul\":6726:6745   */\n  lt\n    /* \"#utility.yul\":6723:6902   */\n  iszero\n  tag_170\n  jumpi\n    /* \"#utility.yul\":6796:6805   */\n  dup5\n    /* \"#utility.yul\":6791:6794   */\n  dup10\n    /* \"#utility.yul\":6787:6806   */\n  add\n    /* \"#utility.yul\":6781:6807   */\n  mload\n    /* \"#utility.yul\":6839:6887   */\n  tag_171\n    /* \"#utility.yul\":6881:6885   */\n  0x1f\n    /* \"#utility.yul\":6873:6879   */\n  dup10\n    /* \"#utility.yul\":6869:6886   */\n  and\n    /* \"#utility.yul\":6858:6867   */\n  dup3\n    /* \"#utility.yul\":6839:6887   */\n  tag_82\n  jump\t// in\ntag_171:\n    /* \"#utility.yul\":6831:6837   */\n  dup4\n    /* \"#utility.yul\":6824:6888   */\n  sstore\n    /* \"#utility.yul\":6746:6902   */\n  pop\n    /* \"#utility.yul\":6723:6902   */\ntag_170:\n    /* \"#utility.yul\":6948:6949   */\n  0x01\n    /* \"#utility.yul\":6944:6945   */\n  0x02\n    /* \"#utility.yul\":6936:6942   */\n  dup9\n    /* \"#utility.yul\":6932:6946   */\n  mul\n    /* \"#utility.yul\":6928:6950   */\n  add\n    /* \"#utility.yul\":6922:6926   */\n  dup9\n    /* \"#utility.yul\":6915:6951   */\n  sstore\n    /* \"#utility.yul\":6350:6961   */\n  pop\n  pop\n  pop\n    /* \"#utility.yul\":6313:7200   */\ntag_162:\n  pop\n    /* \"#utility.yul\":5903:7206   */\n  pop\n  pop\n  pop\n    /* \"#utility.yul\":5811:7206   */\n  pop\n  pop\n  jump\t// out\n    /* \"#utility.yul\":7212:7330   */\ntag_84:\n    /* \"#utility.yul\":7299:7323   */\n  tag_173\n    /* \"#utility.yul\":7317:7322   */\n  dup2\n    /* \"#utility.yul\":7299:7323   */\n  tag_61\n  jump\t// in\ntag_173:\n    /* \"#utility.yul\":7294:7297   */\n  dup3\n    /* \"#utility.yul\":7287:7324   */\n  mstore\n    /* \"#utility.yul\":7212:7330   */\n  pop\n  pop\n  jump\t// out\n    /* \"#utility.yul\":7336:7558   */\ntag_14:\n    /* \"#utility.yul\":7429:7433   */\n  0x00\n    /* \"#utility.yul\":7467:7469   */\n  0x20\n    /* \"#utility.yul\":7456:7465   */\n  dup3\n    /* \"#utility.yul\":7452:7470   */\n  add\n    /* \"#utility.yul\":7444:7470   */\n  swap1\n  pop\n    /* \"#utility.yul\":7480:7551   */\n  tag_175\n    /* \"#utility.yul\":7548:7549   */\n  0x00\n    /* \"#utility.yul\":7537:7546   */\n  dup4\n    /* \"#utility.yul\":7533:7550   */\n  add\n    /* \"#utility.yul\":7524:7530   */\n  dup5\n    /* \"#utility.yul\":7480:7551   */\n  tag_84\n  jump\t// in\ntag_175:\n    /* \"#utility.yul\":7336:7558   */\n  swap3\n  swap2\n  pop\n  pop\n  jump\t// out\n    /* \"#utility.yul\":7564:7733   */\ntag_85:\n    /* \"#utility.yul\":7648:7659   */\n  0x00\n    /* \"#utility.yul\":7682:7688   */\n  dup3\n    /* \"#utility.yul\":7677:7680   */\n  dup3\n    /* \"#utility.yul\":7670:7689   */\n  mstore\n    /* \"#utility.yul\":7722:7726   */\n  0x20\n    /* \"#utility.yul\":7717:7720   */\n  dup3\n    /* \"#utility.yul\":7713:7727   */\n  add\n    /* \"#utility.yul\":7698:7727   */\n  swap1\n  pop\n    /* \"#utility.yul\":7564:7733   */\n  swap3\n  swap2\n  pop\n  pop\n  jump\t// out\n    /* \"#utility.yul\":7739:7901   */\ntag_86:\n    /* \"#utility.yul\":7879:7893   */\n  0x496e76616c6964207465616d0000000000000000000000000000000000000000\n    /* \"#utility.yul\":7875:7876   */\n  0x00\n    /* \"#utility.yul\":7867:7873   */\n  dup3\n    /* \"#utility.yul\":7863:7877   */\n  add\n    /* \"#utility.yul\":7856:7894   */\n  mstore\n    /* \"#utility.yul\":7739:7901   */\n  pop\n  jump\t// out\n    /* \"#utility.yul\":7907:8273   */\ntag_87:\n    /* \"#utility.yul\":8049:8052   */\n  0x00\n    /* \"#utility.yul\":8070:8137   */\n  tag_179\n    /* \"#utility.yul\":8134:8136   */\n  0x0c\n    /* \"#utility.yul\":8129:8132   */\n  dup4\n    /* \"#utility.yul\":8070:8137   */\n  tag_85\n  jump\t// in\ntag_179:\n    /* \"#utility.yul\":8063:8137   */\n  swap2\n  pop\n    /* \"#utility.yul\":8146:8239   */\n  tag_180\n    /* \"#utility.yul\":8235:8238   */\n  dup3\n    /* \"#utility.yul\":8146:8239   */\n  tag_86\n  jump\t// in\ntag_180:\n    /* \"#utility.yul\":8264:8266   */\n  0x20\n    /* \"#utility.yul\":8259:8262   */\n  dup3\n    /* \"#utility.yul\":8255:8267   */\n  add\n    /* \"#utility.yul\":8248:8267   */\n  swap1\n  pop\n    /* \"#utility.yul\":7907:8273   */\n  swap2\n  swap1\n  pop\n  jump\t// out\n    /* \"#utility.yul\":8279:8698   */\ntag_21:\n    /* \"#utility.yul\":8445:8449   */\n  0x00\n    /* \"#utility.yul\":8483:8485   */\n  0x20\n    /* \"#utility.yul\":8472:8481   */\n  dup3\n    /* \"#utility.yul\":8468:8486   */\n  add\n    /* \"#utility.yul\":8460:8486   */\n  swap1\n  pop\n    /* \"#utility.yul\":8532:8541   */\n  dup2\n    /* \"#utility.yul\":8526:8530   */\n  dup2\n    /* \"#utility.yul\":8522:8542   */\n  sub\n    /* \"#utility.yul\":8518:8519   */\n  0x00\n    /* \"#utility.yul\":8507:8516   */\n  dup4\n    /* \"#utility.yul\":8503:8520   */\n  add\n    /* \"#utility.yul\":8496:8543   */\n  mstore\n    /* \"#utility.yul\":8560:8691   */\n  tag_182\n    /* \"#utility.yul\":8686:8690   */\n  dup2\n    /* \"#utility.yul\":8560:8691   */\n  tag_87\n  jump\t// in\ntag_182:\n    /* \"#utility.yul\":8552:8691   */\n  swap1\n  pop\n    /* \"#utility.yul\":8279:8698   */\n  swap2\n  swap1\n  pop\n  jump\t// out\n    /* \"#utility.yul\":8704:8884   */\ntag_88:\n    /* \"#utility.yul\":8752:8829   */\n  0x4e487b7100000000000000000000000000000000000000000000000000000000\n    /* \"#utility.yul\":8749:8750   */\n  0x00\n    /* \"#utility.yul\":8742:8830   */\n  mstore\n    /* \"#utility.yul\":8849:8853   */\n  0x11\n    /* \"#utility.yul\":8846:8847   */\n  0x04\n    /* \"#utility.yul\":8839:8854   */\n  mstore\n    /* \"#utility.yul\":8873:8877   */\n  0x24\n    /* \"#utility.yul\":8870:8871   */\n  0x00\n    /* \"#utility.yul\":8863:8878   */\n  revert\n    /* \"#utility.yul\":8890:9081   */\ntag_48:\n    /* \"#utility.yul\":8930:8933   */\n  0x00\n    /* \"#utility.yul\":8949:8969   */\n  tag_185\n    /* \"#utility.yul\":8967:8968   */\n  dup3\n    /* \"#utility.yul\":8949:8969   */\n  tag_72\n  jump\t// in\ntag_185:\n    /* \"#utility.yul\":8944:8969   */\n  swap2\n  pop\n    /* \"#utility.yul\":8983:9003   */\n  tag_186\n    /* \"#utility.yul\":9001:9002   */\n  dup4\n    /* \"#utility.yul\":8983:9003   */\n  tag_72\n  jump\t// in\ntag_186:\n    /* \"#utility.yul\":8978:9003   */\n  swap3\n  pop\n    /* \"#utility.yul\":9026:9027   */\n  dup3\n    /* \"#utility.yul\":9023:9024   */\n  dup3\n    /* \"#utility.yul\":9019:9028   */\n  add\n    /* \"#utility.yul\":9012:9028   */\n  swap1\n  pop\n    /* \"#utility.yul\":9047:9050   */\n  dup1\n    /* \"#utility.yul\":9044:9045   */\n  dup3\n    /* \"#utility.yul\":9041:9051   */\n  gt\n    /* \"#utility.yul\":9038:9074   */\n  iszero\n  tag_187\n  jumpi\n    /* \"#utility.yul\":9054:9072   */\n  tag_188\n  tag_88\n  jump\t// in\ntag_188:\n    /* \"#utility.yul\":9038:9074   */\ntag_187:\n    /* \"#utility.yul\":8890:9081   */\n  swap3\n  swap2\n  pop\n  pop\n  jump\t// out\n    /* \"#utility.yul\":9087:9205   */\ntag_89:\n    /* \"#utility.yul\":9174:9198   */\n  tag_190\n    /* \"#utility.yul\":9192:9197   */\n  dup2\n    /* \"#utility.yul\":9174:9198   */\n  tag_72\n  jump\t// in\ntag_190:\n    /* \"#utility.yul\":9169:9172   */\n  dup3\n    /* \"#utility.yul\":9162:9199   */\n  mstore\n    /* \"#utility.yul\":9087:9205   */\n  pop\n  pop\n  jump\t// out\n    /* \"#utility.yul\":9211:9653   */\ntag_52:\n    /* \"#utility.yul\":9360:9364   */\n  0x00\n    /* \"#utility.yul\":9398:9400   */\n  0x60\n    /* \"#utility.yul\":9387:9396   */\n  dup3\n    /* \"#utility.yul\":9383:9401   */\n  add\n    /* \"#utility.yul\":9375:9401   */\n  swap1\n  pop\n    /* \"#utility.yul\":9411:9482   */\n  tag_192\n    /* \"#utility.yul\":9479:9480   */\n  0x00\n    /* \"#utility.yul\":9468:9477   */\n  dup4\n    /* \"#utility.yul\":9464:9481   */\n  add\n    /* \"#utility.yul\":9455:9461   */\n  dup7\n    /* \"#utility.yul\":9411:9482   */\n  tag_84\n  jump\t// in\ntag_192:\n    /* \"#utility.yul\":9492:9564   */\n  tag_193\n    /* \"#utility.yul\":9560:9562   */\n  0x20\n    /* \"#utility.yul\":9549:9558   */\n  dup4\n    /* \"#utility.yul\":9545:9563   */\n  add\n    /* \"#utility.yul\":9536:9542   */\n  dup6\n    /* \"#utility.yul\":9492:9564   */\n  tag_89\n  jump\t// in\ntag_193:\n    /* \"#utility.yul\":9574:9646   */\n  tag_194\n    /* \"#utility.yul\":9642:9644   */\n  0x40\n    /* \"#utility.yul\":9631:9640   */\n  dup4\n    /* \"#utility.yul\":9627:9645   */\n  add\n    /* \"#utility.yul\":9618:9624   */\n  dup5\n    /* \"#utility.yul\":9574:9646   */\n  tag_89\n  jump\t// in\ntag_194:\n    /* \"#utility.yul\":9211:9653   */\n  swap5\n  swap4\n  pop\n  pop\n  pop\n  pop\n  jump\t// out\n    /* \"#utility.yul\":9659:9881   */\ntag_56:\n    /* \"#utility.yul\":9752:9756   */\n  0x00\n    /* \"#utility.yul\":9790:9792   */\n  0x20\n    /* \"#utility.yul\":9779:9788   */\n  dup3\n    /* \"#utility.yul\":9775:9793   */\n  add\n    /* \"#utility.yul\":9767:9793   */\n  swap1\n  pop\n    /* \"#utility.yul\":9803:9874   */\n  tag_196\n    /* \"#utility.yul\":9871:9872   */\n  0x00\n    /* \"#utility.yul\":9860:9869   */\n  dup4\n    /* \"#utility.yul\":9856:9873   */\n  add\n    /* \"#utility.yul\":9847:9853   */\n  dup5\n    /* \"#utility.yul\":9803:9874   */\n  tag_89\n  jump\t// in\ntag_196:\n    /* \"#utility.yul\":9659:9881   */\n  swap3\n  swap2\n  pop\n  pop\n  jump\t// out\n    /* \"contracts/3_Ballot.sol\":168:3904  contract AnimalToken is ERC20, Ownable {... */\ntag_32:\n  dataSize(sub_0)\n  dup1\n  dataOffset(sub_0)\n  0x00\n  codecopy\n  0x00\n  return\nstop\n\nsub_0: assembly {\n        /* \"contracts/3_Ballot.sol\":168:3904  contract AnimalToken is ERC20, Ownable {... */\n      mstore(0x40, 0x80)\n      callvalue\n      dup1\n      iszero\n      tag_1\n      jumpi\n      0x00\n      dup1\n      revert\n    tag_1:\n      pop\n      jumpi(tag_2, lt(calldatasize, 0x04))\n      shr(0xe0, calldataload(0x00))\n      dup1\n      0x8da5cb5b\n      gt\n      tag_30\n      jumpi\n      dup1\n      0xd1431ca6\n      gt\n      tag_31\n      jumpi\n      dup1\n      0xdeb36e32\n      gt\n      tag_32\n      jumpi\n      dup1\n      0xdeb36e32\n      eq\n      tag_26\n      jumpi\n      dup1\n      0xe580b2b0\n      eq\n      tag_27\n      jumpi\n      dup1\n      0xe74f3fbb\n      eq\n      tag_28\n      jumpi\n      dup1\n      0xf2fde38b\n      eq\n      tag_29\n      jumpi\n      jump(tag_2)\n    tag_32:\n      dup1\n      0xd1431ca6\n      eq\n      tag_23\n      jumpi\n      dup1\n      0xd4698016\n      eq\n      tag_24\n      jumpi\n      dup1\n      0xdd62ed3e\n      eq\n      tag_25\n      jumpi\n      jump(tag_2)\n    tag_31:\n      dup1\n      0x95d89b41\n      gt\n      tag_33\n      jumpi\n      dup1\n      0x95d89b41\n      eq\n      tag_19\n      jumpi\n      dup1\n      0xa9059cbb\n      eq\n      tag_20\n      jumpi\n      dup1\n      0xbf16555f\n      eq\n      tag_21\n      jumpi\n      dup1\n      0xc884ef83\n      eq\n      tag_22\n      jumpi\n      jump(tag_2)\n    tag_33:\n      dup1\n      0x8da5cb5b\n      eq\n      tag_16\n      jumpi\n      dup1\n      0x8f84aa09\n      eq\n      tag_17\n      jumpi\n      dup1\n      0x902d55a5\n      eq\n      tag_18\n      jumpi\n      jump(tag_2)\n    tag_30:\n      dup1\n      0x2fcbb5a2\n      gt\n      tag_34\n      jumpi\n      dup1\n      0x61b1cbba\n      gt\n      tag_35\n      jumpi\n      dup1\n      0x61b1cbba\n      eq\n      tag_12\n      jumpi\n      dup1\n      0x6f5244b1\n      eq\n      tag_13\n      jumpi\n      dup1\n      0x70a08231\n      eq\n      tag_14\n      jumpi\n      dup1\n      0x715018a6\n      eq\n      tag_15\n      jumpi\n      jump(tag_2)\n    tag_35:\n      dup1\n      0x2fcbb5a2\n      eq\n      tag_9\n      jumpi\n      dup1\n      0x313ce567\n      eq\n      tag_10\n      jumpi\n      dup1\n      0x384711cc\n      eq\n      tag_11\n      jumpi\n      jump(tag_2)\n    tag_34:\n      dup1\n      0x06483a07\n      eq\n      tag_3\n      jumpi\n      dup1\n      0x06fdde03\n      eq\n      tag_4\n      jumpi\n      dup1\n      0x095ea7b3\n      eq\n      tag_5\n      jumpi\n      dup1\n      0x18160ddd\n      eq\n      tag_6\n      jumpi\n      dup1\n      0x23b872dd\n      eq\n      tag_7\n      jumpi\n      dup1\n      0x254800d4\n      eq\n      tag_8\n      jumpi\n    tag_2:\n      0x00\n      dup1\n      revert\n        /* \"contracts/3_Ballot.sol\":309:335  address public teamPlayer2 */\n    tag_3:\n      tag_36\n      tag_37\n      jump\t// in\n    tag_36:\n      mload(0x40)\n      tag_38\n      swap2\n      swap1\n      tag_39\n      jump\t// in\n    tag_38:\n      mload(0x40)\n      dup1\n      swap2\n      sub\n      swap1\n      return\n        /* \"@openzeppelin/contracts/token/ERC20/ERC20.sol\":1760:1849  function name() public view virtual returns (string memory) {... */\n    tag_4:\n      tag_40\n      tag_41\n      jump\t// in\n    tag_40:\n      mload(0x40)\n      tag_42\n      swap2\n      swap1\n      tag_43\n      jump\t// in\n    tag_42:\n      mload(0x40)\n      dup1\n      swap2\n      sub\n      swap1\n      return\n        /* \"@openzeppelin/contracts/token/ERC20/ERC20.sol\":3979:4165  function approve(address spender, uint256 value) public virtual returns (bool) {... */\n    tag_5:\n      tag_44\n      0x04\n      dup1\n      calldatasize\n      sub\n      dup2\n      add\n      swap1\n      tag_45\n      swap2\n      swap1\n      tag_46\n      jump\t// in\n    tag_45:\n      tag_47\n      jump\t// in\n    tag_44:\n      mload(0x40)\n      tag_48\n      swap2\n      swap1\n      tag_49\n      jump\t// in\n    tag_48:\n      mload(0x40)\n      dup1\n      swap2\n      sub\n      swap1\n      return\n        /* \"@openzeppelin/contracts/token/ERC20/ERC20.sol\":2830:2927  function totalSupply() public view virtual returns (uint256) {... */\n    tag_6:\n      tag_50\n      tag_51\n      jump\t// in\n    tag_50:\n      mload(0x40)\n      tag_52\n      swap2\n      swap1\n      tag_53\n      jump\t// in\n    tag_52:\n      mload(0x40)\n      dup1\n      swap2\n      sub\n      swap1\n      return\n        /* \"@openzeppelin/contracts/token/ERC20/ERC20.sol\":4757:5001  function transferFrom(address from, address to, uint256 value) public virtual returns (bool) {... */\n    tag_7:\n      tag_54\n      0x04\n      dup1\n      calldatasize\n      sub\n      dup2\n      add\n      swap1\n      tag_55\n      swap2\n      swap1\n      tag_56\n      jump\t// in\n    tag_55:\n      tag_57\n      jump\t// in\n    tag_54:\n      mload(0x40)\n      tag_58\n      swap2\n      swap1\n      tag_49\n      jump\t// in\n    tag_58:\n      mload(0x40)\n      dup1\n      swap2\n      sub\n      swap1\n      return\n        /* \"contracts/3_Ballot.sol\":590:617  uint256 public vestingStart */\n    tag_8:\n      tag_59\n      tag_60\n      jump\t// in\n    tag_59:\n      mload(0x40)\n      tag_61\n      swap2\n      swap1\n      tag_53\n      jump\t// in\n    tag_61:\n      mload(0x40)\n      dup1\n      swap2\n      sub\n      swap1\n      return\n        /* \"contracts/3_Ballot.sol\":480:517  address public communityRewardsWallet */\n    tag_9:\n      tag_62\n      tag_63\n      jump\t// in\n    tag_62:\n      mload(0x40)\n      tag_64\n      swap2\n      swap1\n      tag_39\n      jump\t// in\n    tag_64:\n      mload(0x40)\n      dup1\n      swap2\n      sub\n      swap1\n      return\n        /* \"@openzeppelin/contracts/token/ERC20/ERC20.sol\":2688:2770  function decimals() public view virtual returns (uint8) {... */\n    tag_10:\n      tag_65\n      tag_66\n      jump\t// in\n    tag_65:\n      mload(0x40)\n      tag_67\n      swap2\n      swap1\n      tag_68\n      jump\t// in\n    tag_67:\n      mload(0x40)\n      dup1\n      swap2\n      sub\n      swap1\n      return\n        /* \"contracts/3_Ballot.sol\":654:701  mapping(address => uint256) public vestedAmount */\n    tag_11:\n      tag_69\n      0x04\n      dup1\n      calldatasize\n      sub\n      dup2\n      add\n      swap1\n      tag_70\n      swap2\n      swap1\n      tag_71\n      jump\t// in\n    tag_70:\n      tag_72\n      jump\t// in\n    tag_69:\n      mload(0x40)\n      tag_73\n      swap2\n      swap1\n      tag_53\n      jump\t// in\n    tag_73:\n      mload(0x40)\n      dup1\n      swap2\n      sub\n      swap1\n      return\n        /* \"contracts/3_Ballot.sol\":341:367  address public teamPlayer3 */\n    tag_12:\n      tag_74\n      tag_75\n      jump\t// in\n    tag_74:\n      mload(0x40)\n      tag_76\n      swap2\n      swap1\n      tag_39\n      jump\t// in\n    tag_76:\n      mload(0x40)\n      dup1\n      swap2\n      sub\n      swap1\n      return\n        /* \"contracts/3_Ballot.sol\":3207:3902  function getClaimable(address user, uint256 total) public view returns (uint256) {... */\n    tag_13:\n      tag_77\n      0x04\n      dup1\n      calldatasize\n      sub\n      dup2\n      add\n      swap1\n      tag_78\n      swap2\n      swap1\n      tag_46\n      jump\t// in\n    tag_78:\n      tag_79\n      jump\t// in\n    tag_77:\n      mload(0x40)\n      tag_80\n      swap2\n      swap1\n      tag_53\n      jump\t// in\n    tag_80:\n      mload(0x40)\n      dup1\n      swap2\n      sub\n      swap1\n      return\n        /* \"@openzeppelin/contracts/token/ERC20/ERC20.sol\":2985:3101  function balanceOf(address account) public view virtual returns (uint256) {... */\n    tag_14:\n      tag_81\n      0x04\n      dup1\n      calldatasize\n      sub\n      dup2\n      add\n      swap1\n      tag_82\n      swap2\n      swap1\n      tag_71\n      jump\t// in\n    tag_82:\n      tag_83\n      jump\t// in\n    tag_81:\n      mload(0x40)\n      tag_84\n      swap2\n      swap1\n      tag_53\n      jump\t// in\n    tag_84:\n      mload(0x40)\n      dup1\n      swap2\n      sub\n      swap1\n      return\n        /* \"@openzeppelin/contracts/access/Ownable.sol\":2293:2394  function renounceOwnership() public virtual onlyOwner {... */\n    tag_15:\n      tag_85\n      tag_86\n      jump\t// in\n    tag_85:\n      stop\n        /* \"@openzeppelin/contracts/access/Ownable.sol\":1638:1723  function owner() public view virtual returns (address) {... */\n    tag_16:\n      tag_87\n      tag_88\n      jump\t// in\n    tag_87:\n      mload(0x40)\n      tag_89\n      swap2\n      swap1\n      tag_39\n      jump\t// in\n    tag_89:\n      mload(0x40)\n      dup1\n      swap2\n      sub\n      swap1\n      return\n        /* \"contracts/3_Ballot.sol\":373:400  address public ownerAddress */\n    tag_17:\n      tag_90\n      tag_91\n      jump\t// in\n    tag_90:\n      mload(0x40)\n      tag_92\n      swap2\n      swap1\n      tag_39\n      jump\t// in\n    tag_92:\n      mload(0x40)\n      dup1\n      swap2\n      sub\n      swap1\n      return\n        /* \"contracts/3_Ballot.sol\":213:278  uint256 public constant TOTAL_SUPPLY = 111_000_000_000_000 * 1e18 */\n    tag_18:\n      tag_93\n      tag_94\n      jump\t// in\n    tag_93:\n      mload(0x40)\n      tag_95\n      swap2\n      swap1\n      tag_53\n      jump\t// in\n    tag_95:\n      mload(0x40)\n      dup1\n      swap2\n      sub\n      swap1\n      return\n        /* \"@openzeppelin/contracts/token/ERC20/ERC20.sol\":1962:2055  function symbol() public view virtual returns (string memory) {... */\n    tag_19:\n      tag_96\n      tag_97\n      jump\t// in\n    tag_96:\n      mload(0x40)\n      tag_98\n      swap2\n      swap1\n      tag_43\n      jump\t// in\n    tag_98:\n      mload(0x40)\n      dup1\n      swap2\n      sub\n      swap1\n      return\n        /* \"@openzeppelin/contracts/token/ERC20/ERC20.sol\":3296:3474  function transfer(address to, uint256 value) public virtual returns (bool) {... */\n    tag_20:\n      tag_99\n      0x04\n      dup1\n      calldatasize\n      sub\n      dup2\n      add\n      swap1\n      tag_100\n      swap2\n      swap1\n      tag_46\n      jump\t// in\n    tag_100:\n      tag_101\n      jump\t// in\n    tag_99:\n      mload(0x40)\n      tag_102\n      swap2\n      swap1\n      tag_49\n      jump\t// in\n    tag_102:\n      mload(0x40)\n      dup1\n      swap2\n      sub\n      swap1\n      return\n        /* \"contracts/3_Ballot.sol\":523:556  address public devMarketingWallet */\n    tag_21:\n      tag_103\n      tag_104\n      jump\t// in\n    tag_103:\n      mload(0x40)\n      tag_105\n      swap2\n      swap1\n      tag_39\n      jump\t// in\n    tag_105:\n      mload(0x40)\n      dup1\n      swap2\n      sub\n      swap1\n      return\n        /* \"contracts/3_Ballot.sol\":707:749  mapping(address => uint256) public claimed */\n    tag_22:\n      tag_106\n      0x04\n      dup1\n      calldatasize\n      sub\n      dup2\n      add\n      swap1\n      tag_107\n      swap2\n      swap1\n      tag_71\n      jump\t// in\n    tag_107:\n      tag_108\n      jump\t// in\n    tag_106:\n      mload(0x40)\n      tag_109\n      swap2\n      swap1\n      tag_53\n      jump\t// in\n    tag_109:\n      mload(0x40)\n      dup1\n      swap2\n      sub\n      swap1\n      return\n        /* \"contracts/3_Ballot.sol\":443:474  address public animalFundWallet */\n    tag_23:\n      tag_110\n      tag_111\n      jump\t// in\n    tag_110:\n      mload(0x40)\n      tag_112\n      swap2\n      swap1\n      tag_39\n      jump\t// in\n    tag_112:\n      mload(0x40)\n      dup1\n      swap2\n      sub\n      swap1\n      return\n        /* \"contracts/3_Ballot.sol\":407:437  address public liquidityWallet */\n    tag_24:\n      tag_113\n      tag_114\n      jump\t// in\n    tag_113:\n      mload(0x40)\n      tag_115\n      swap2\n      swap1\n      tag_39\n      jump\t// in\n    tag_115:\n      mload(0x40)\n      dup1\n      swap2\n      sub\n      swap1\n      return\n        /* \"@openzeppelin/contracts/token/ERC20/ERC20.sol\":3532:3672  function allowance(address owner, address spender) public view virtual returns (uint256) {... */\n    tag_25:\n      tag_116\n      0x04\n      dup1\n      calldatasize\n      sub\n      dup2\n      add\n      swap1\n      tag_117\n      swap2\n      swap1\n      tag_118\n      jump\t// in\n    tag_117:\n      tag_119\n      jump\t// in\n    tag_116:\n      mload(0x40)\n      tag_120\n      swap2\n      swap1\n      tag_53\n      jump\t// in\n    tag_120:\n      mload(0x40)\n      dup1\n      swap2\n      sub\n      swap1\n      return\n        /* \"contracts/3_Ballot.sol\":2601:2783  function startVesting() external onlyOwner {... */\n    tag_26:\n      tag_121\n      tag_122\n      jump\t// in\n    tag_121:\n      stop\n        /* \"contracts/3_Ballot.sol\":623:647  bool public presaleEnded */\n    tag_27:\n      tag_123\n      tag_124\n      jump\t// in\n    tag_123:\n      mload(0x40)\n      tag_125\n      swap2\n      swap1\n      tag_49\n      jump\t// in\n    tag_125:\n      mload(0x40)\n      dup1\n      swap2\n      sub\n      swap1\n      return\n        /* \"contracts/3_Ballot.sol\":2789:3201  function claimVestedTokens() external onlyTeam {... */\n    tag_28:\n      tag_126\n      tag_127\n      jump\t// in\n    tag_126:\n      stop\n        /* \"@openzeppelin/contracts/access/Ownable.sol\":2543:2758  function transferOwnership(address newOwner) public virtual onlyOwner {... */\n    tag_29:\n      tag_128\n      0x04\n      dup1\n      calldatasize\n      sub\n      dup2\n      add\n      swap1\n      tag_129\n      swap2\n      swap1\n      tag_71\n      jump\t// in\n    tag_129:\n      tag_130\n      jump\t// in\n    tag_128:\n      stop\n        /* \"contracts/3_Ballot.sol\":309:335  address public teamPlayer2 */\n    tag_37:\n      0x06\n      0x00\n      swap1\n      sload\n      swap1\n      0x0100\n      exp\n      swap1\n      div\n      0xffffffffffffffffffffffffffffffffffffffff\n      and\n      dup2\n      jump\t// out\n        /* \"@openzeppelin/contracts/token/ERC20/ERC20.sol\":1760:1849  function name() public view virtual returns (string memory) {... */\n    tag_41:\n        /* \"@openzeppelin/contracts/token/ERC20/ERC20.sol\":1805:1818  string memory */\n      0x60\n        /* \"@openzeppelin/contracts/token/ERC20/ERC20.sol\":1837:1842  _name */\n      0x03\n        /* \"@openzeppelin/contracts/token/ERC20/ERC20.sol\":1830:1842  return _name */\n      dup1\n      sload\n      tag_132\n      swap1\n      tag_133\n      jump\t// in\n    tag_132:\n      dup1\n      0x1f\n      add\n      0x20\n      dup1\n      swap2\n      div\n      mul\n      0x20\n      add\n      mload(0x40)\n      swap1\n      dup2\n      add\n      0x40\n      mstore\n      dup1\n      swap3\n      swap2\n      swap1\n      dup2\n      dup2\n      mstore\n      0x20\n      add\n      dup3\n      dup1\n      sload\n      tag_134\n      swap1\n      tag_133\n      jump\t// in\n    tag_134:\n      dup1\n      iszero\n      tag_135\n      jumpi\n      dup1\n      0x1f\n      lt\n      tag_136\n      jumpi\n      0x0100\n      dup1\n      dup4\n      sload\n      div\n      mul\n      dup4\n      mstore\n      swap2\n      0x20\n      add\n      swap2\n      jump(tag_135)\n    tag_136:\n      dup3\n      add\n      swap2\n      swap1\n      0x00\n      mstore\n      keccak256(0x00, 0x20)\n      swap1\n    tag_137:\n      dup2\n      sload\n      dup2\n      mstore\n      swap1\n      0x01\n      add\n      swap1\n      0x20\n      add\n      dup1\n      dup4\n      gt\n      tag_137\n      jumpi\n      dup3\n      swap1\n      sub\n      0x1f\n      and\n      dup3\n      add\n      swap2\n    tag_135:\n      pop\n      pop\n      pop\n      pop\n      pop\n      swap1\n      pop\n        /* \"@openzeppelin/contracts/token/ERC20/ERC20.sol\":1760:1849  function name() public view virtual returns (string memory) {... */\n      swap1\n      jump\t// out\n        /* \"@openzeppelin/contracts/token/ERC20/ERC20.sol\":3979:4165  function approve(address spender, uint256 value) public virtual returns (bool) {... */\n    tag_47:\n        /* \"@openzeppelin/contracts/token/ERC20/ERC20.sol\":4052:4056  bool */\n      0x00\n        /* \"@openzeppelin/contracts/token/ERC20/ERC20.sol\":4068:4081  address owner */\n      dup1\n        /* \"@openzeppelin/contracts/token/ERC20/ERC20.sol\":4084:4096  _msgSender() */\n      tag_139\n        /* \"@openzeppelin/contracts/token/ERC20/ERC20.sol\":4084:4094  _msgSender */\n      tag_140\n        /* \"@openzeppelin/contracts/token/ERC20/ERC20.sol\":4084:4096  _msgSender() */\n      jump\t// in\n    tag_139:\n        /* \"@openzeppelin/contracts/token/ERC20/ERC20.sol\":4068:4096  address owner = _msgSender() */\n      swap1\n      pop\n        /* \"@openzeppelin/contracts/token/ERC20/ERC20.sol\":4106:4137  _approve(owner, spender, value) */\n      tag_141\n        /* \"@openzeppelin/contracts/token/ERC20/ERC20.sol\":4115:4120  owner */\n      dup2\n        /* \"@openzeppelin/contracts/token/ERC20/ERC20.sol\":4122:4129  spender */\n      dup6\n        /* \"@openzeppelin/contracts/token/ERC20/ERC20.sol\":4131:4136  value */\n      dup6\n        /* \"@openzeppelin/contracts/token/ERC20/ERC20.sol\":4106:4114  _approve */\n      tag_142\n        /* \"@openzeppelin/contracts/token/ERC20/ERC20.sol\":4106:4137  _approve(owner, spender, value) */\n      jump\t// in\n    tag_141:\n        /* \"@openzeppelin/contracts/token/ERC20/ERC20.sol\":4154:4158  true */\n      0x01\n        /* \"@openzeppelin/contracts/token/ERC20/ERC20.sol\":4147:4158  return true */\n      swap2\n      pop\n      pop\n        /* \"@openzeppelin/contracts/token/ERC20/ERC20.sol\":3979:4165  function approve(address spender, uint256 value) public virtual returns (bool) {... */\n      swap3\n      swap2\n      pop\n      pop\n      jump\t// out\n        /* \"@openzeppelin/contracts/token/ERC20/ERC20.sol\":2830:2927  function totalSupply() public view virtual returns (uint256) {... */\n    tag_51:\n        /* \"@openzeppelin/contracts/token/ERC20/ERC20.sol\":2882:2889  uint256 */\n      0x00\n        /* \"@openzeppelin/contracts/token/ERC20/ERC20.sol\":2908:2920  _totalSupply */\n      sload(0x02)\n        /* \"@openzeppelin/contracts/token/ERC20/ERC20.sol\":2901:2920  return _totalSupply */\n      swap1\n      pop\n        /* \"@openzeppelin/contracts/token/ERC20/ERC20.sol\":2830:2927  function totalSupply() public view virtual returns (uint256) {... */\n      swap1\n      jump\t// out\n        /* \"@openzeppelin/contracts/token/ERC20/ERC20.sol\":4757:5001  function transferFrom(address from, address to, uint256 value) public virtual returns (bool) {... */\n    tag_57:\n        /* \"@openzeppelin/contracts/token/ERC20/ERC20.sol\":4844:4848  bool */\n      0x00\n        /* \"@openzeppelin/contracts/token/ERC20/ERC20.sol\":4860:4875  address spender */\n      dup1\n        /* \"@openzeppelin/contracts/token/ERC20/ERC20.sol\":4878:4890  _msgSender() */\n      tag_145\n        /* \"@openzeppelin/contracts/token/ERC20/ERC20.sol\":4878:4888  _msgSender */\n      tag_140\n        /* \"@openzeppelin/contracts/token/ERC20/ERC20.sol\":4878:4890  _msgSender() */\n      jump\t// in\n    tag_145:\n        /* \"@openzeppelin/contracts/token/ERC20/ERC20.sol\":4860:4890  address spender = _msgSender() */\n      swap1\n      pop\n        /* \"@openzeppelin/contracts/token/ERC20/ERC20.sol\":4900:4937  _spendAllowance(from, spender, value) */\n      tag_146\n        /* \"@openzeppelin/contracts/token/ERC20/ERC20.sol\":4916:4920  from */\n      dup6\n        /* \"@openzeppelin/contracts/token/ERC20/ERC20.sol\":4922:4929  spender */\n      dup3\n        /* \"@openzeppelin/contracts/token/ERC20/ERC20.sol\":4931:4936  value */\n      dup6\n        /* \"@openzeppelin/contracts/token/ERC20/ERC20.sol\":4900:4915  _spendAllowance */\n      tag_147\n        /* \"@openzeppelin/contracts/token/ERC20/ERC20.sol\":4900:4937  _spendAllowance(from, spender, value) */\n      jump\t// in\n    tag_146:\n        /* \"@openzeppelin/contracts/token/ERC20/ERC20.sol\":4947:4973  _transfer(from, to, value) */\n      tag_148\n        /* \"@openzeppelin/contracts/token/ERC20/ERC20.sol\":4957:4961  from */\n      dup6\n        /* \"@openzeppelin/contracts/token/ERC20/ERC20.sol\":4963:4965  to */\n      dup6\n        /* \"@openzeppelin/contracts/token/ERC20/ERC20.sol\":4967:4972  value */\n      dup6\n        /* \"@openzeppelin/contracts/token/ERC20/ERC20.sol\":4947:4956  _transfer */\n      tag_149\n        /* \"@openzeppelin/contracts/token/ERC20/ERC20.sol\":4947:4973  _transfer(from, to, value) */\n      jump\t// in\n    tag_148:\n        /* \"@openzeppelin/contracts/token/ERC20/ERC20.sol\":4990:4994  true */\n      0x01\n        /* \"@openzeppelin/contracts/token/ERC20/ERC20.sol\":4983:4994  return true */\n      swap2\n      pop\n      pop\n        /* \"@openzeppelin/contracts/token/ERC20/ERC20.sol\":4757:5001  function transferFrom(address from, address to, uint256 value) public virtual returns (bool) {... */\n      swap4\n      swap3\n      pop\n      pop\n      pop\n      jump\t// out\n        /* \"contracts/3_Ballot.sol\":590:617  uint256 public vestingStart */\n    tag_60:\n      sload(0x0d)\n      dup2\n      jump\t// out\n        /* \"contracts/3_Ballot.sol\":480:517  address public communityRewardsWallet */\n    tag_63:\n      0x0b\n      0x00\n      swap1\n      sload\n      swap1\n      0x0100\n      exp\n      swap1\n      div\n      0xffffffffffffffffffffffffffffffffffffffff\n      and\n      dup2\n      jump\t// out\n        /* \"@openzeppelin/contracts/token/ERC20/ERC20.sol\":2688:2770  function decimals() public view virtual returns (uint8) {... */\n    tag_66:\n        /* \"@openzeppelin/contracts/token/ERC20/ERC20.sol\":2737:2742  uint8 */\n      0x00\n        /* \"@openzeppelin/contracts/token/ERC20/ERC20.sol\":2761:2763  18 */\n      0x12\n        /* \"@openzeppelin/contracts/token/ERC20/ERC20.sol\":2754:2763  return 18 */\n      swap1\n      pop\n        /* \"@openzeppelin/contracts/token/ERC20/ERC20.sol\":2688:2770  function decimals() public view virtual returns (uint8) {... */\n      swap1\n      jump\t// out\n        /* \"contracts/3_Ballot.sol\":654:701  mapping(address => uint256) public vestedAmount */\n    tag_72:\n      mstore(0x20, 0x0f)\n      dup1\n      0x00\n      mstore\n      keccak256(0x00, 0x40)\n      0x00\n      swap2\n      pop\n      swap1\n      pop\n      sload\n      dup2\n      jump\t// out\n        /* \"contracts/3_Ballot.sol\":341:367  address public teamPlayer3 */\n    tag_75:\n      0x07\n      0x00\n      swap1\n      sload\n      swap1\n      0x0100\n      exp\n      swap1\n      div\n      0xffffffffffffffffffffffffffffffffffffffff\n      and\n      dup2\n      jump\t// out\n        /* \"contracts/3_Ballot.sol\":3207:3902  function getClaimable(address user, uint256 total) public view returns (uint256) {... */\n    tag_79:\n        /* \"contracts/3_Ballot.sol\":3279:3286  uint256 */\n      0x00\n        /* \"contracts/3_Ballot.sol\":3318:3319  0 */\n      dup1\n        /* \"contracts/3_Ballot.sol\":3302:3314  vestingStart */\n      sload(0x0d)\n        /* \"contracts/3_Ballot.sol\":3302:3319  vestingStart == 0 */\n      sub\n        /* \"contracts/3_Ballot.sol\":3298:3329  if (vestingStart == 0) return 0 */\n      tag_152\n      jumpi\n        /* \"contracts/3_Ballot.sol\":3328:3329  0 */\n      0x00\n        /* \"contracts/3_Ballot.sol\":3321:3329  return 0 */\n      swap1\n      pop\n      jump(tag_151)\n        /* \"contracts/3_Ballot.sol\":3298:3329  if (vestingStart == 0) return 0 */\n    tag_152:\n        /* \"contracts/3_Ballot.sol\":3340:3355  uint256 elapsed */\n      0x00\n        /* \"contracts/3_Ballot.sol\":3376:3388  vestingStart */\n      sload(0x0d)\n        /* \"contracts/3_Ballot.sol\":3358:3373  block.timestamp */\n      timestamp\n        /* \"contracts/3_Ballot.sol\":3358:3388  block.timestamp - vestingStart */\n      tag_153\n      swap2\n      swap1\n      tag_154\n      jump\t// in\n    tag_153:\n        /* \"contracts/3_Ballot.sol\":3340:3388  uint256 elapsed = block.timestamp - vestingStart */\n      swap1\n      pop\n        /* \"contracts/3_Ballot.sol\":3398:3414  uint256 unlocked */\n      0x00\n        /* \"contracts/3_Ballot.sol\":3440:3452  24 * 30 days */\n      0x03b53800\n        /* \"contracts/3_Ballot.sol\":3429:3436  elapsed */\n      dup3\n        /* \"contracts/3_Ballot.sol\":3429:3452  elapsed >= 24 * 30 days */\n      lt\n        /* \"contracts/3_Ballot.sol\":3425:3805  if (elapsed >= 24 * 30 days) {... */\n      tag_155\n      jumpi\n        /* \"contracts/3_Ballot.sol\":3479:3484  total */\n      dup4\n        /* \"contracts/3_Ballot.sol\":3468:3484  unlocked = total */\n      swap1\n      pop\n        /* \"contracts/3_Ballot.sol\":3425:3805  if (elapsed >= 24 * 30 days) {... */\n      jump(tag_156)\n    tag_155:\n        /* \"contracts/3_Ballot.sol\":3516:3528  21 * 30 days */\n      0x033e9100\n        /* \"contracts/3_Ballot.sol\":3505:3512  elapsed */\n      dup3\n        /* \"contracts/3_Ballot.sol\":3505:3528  elapsed >= 21 * 30 days */\n      lt\n        /* \"contracts/3_Ballot.sol\":3501:3805  if (elapsed >= 21 * 30 days) {... */\n      tag_157\n      jumpi\n        /* \"contracts/3_Ballot.sol\":3570:3573  100 */\n      0x64\n        /* \"contracts/3_Ballot.sol\":3564:3566  75 */\n      0x4b\n        /* \"contracts/3_Ballot.sol\":3556:3561  total */\n      dup6\n        /* \"contracts/3_Ballot.sol\":3556:3566  total * 75 */\n      tag_158\n      swap2\n      swap1\n      tag_159\n      jump\t// in\n    tag_158:\n        /* \"contracts/3_Ballot.sol\":3555:3573  (total * 75) / 100 */\n      tag_160\n      swap2\n      swap1\n      tag_161\n      jump\t// in\n    tag_160:\n        /* \"contracts/3_Ballot.sol\":3544:3573  unlocked = (total * 75) / 100 */\n      swap1\n      pop\n        /* \"contracts/3_Ballot.sol\":3501:3805  if (elapsed >= 21 * 30 days) {... */\n      jump(tag_162)\n    tag_157:\n        /* \"contracts/3_Ballot.sol\":3605:3617  18 * 30 days */\n      0x02c7ea00\n        /* \"contracts/3_Ballot.sol\":3594:3601  elapsed */\n      dup3\n        /* \"contracts/3_Ballot.sol\":3594:3617  elapsed >= 18 * 30 days */\n      lt\n        /* \"contracts/3_Ballot.sol\":3590:3805  if (elapsed >= 18 * 30 days) {... */\n      tag_163\n      jumpi\n        /* \"contracts/3_Ballot.sol\":3659:3662  100 */\n      0x64\n        /* \"contracts/3_Ballot.sol\":3653:3655  50 */\n      0x32\n        /* \"contracts/3_Ballot.sol\":3645:3650  total */\n      dup6\n        /* \"contracts/3_Ballot.sol\":3645:3655  total * 50 */\n      tag_164\n      swap2\n      swap1\n      tag_159\n      jump\t// in\n    tag_164:\n        /* \"contracts/3_Ballot.sol\":3644:3662  (total * 50) / 100 */\n      tag_165\n      swap2\n      swap1\n      tag_161\n      jump\t// in\n    tag_165:\n        /* \"contracts/3_Ballot.sol\":3633:3662  unlocked = (total * 50) / 100 */\n      swap1\n      pop\n        /* \"contracts/3_Ballot.sol\":3590:3805  if (elapsed >= 18 * 30 days) {... */\n      jump(tag_166)\n    tag_163:\n        /* \"contracts/3_Ballot.sol\":3694:3706  15 * 30 days */\n      0x02514300\n        /* \"contracts/3_Ballot.sol\":3683:3690  elapsed */\n      dup3\n        /* \"contracts/3_Ballot.sol\":3683:3706  elapsed >= 15 * 30 days */\n      lt\n        /* \"contracts/3_Ballot.sol\":3679:3805  if (elapsed >= 15 * 30 days) {... */\n      tag_167\n      jumpi\n        /* \"contracts/3_Ballot.sol\":3748:3751  100 */\n      0x64\n        /* \"contracts/3_Ballot.sol\":3742:3744  25 */\n      0x19\n        /* \"contracts/3_Ballot.sol\":3734:3739  total */\n      dup6\n        /* \"contracts/3_Ballot.sol\":3734:3744  total * 25 */\n      tag_168\n      swap2\n      swap1\n      tag_159\n      jump\t// in\n    tag_168:\n        /* \"contracts/3_Ballot.sol\":3733:3751  (total * 25) / 100 */\n      tag_169\n      swap2\n      swap1\n      tag_161\n      jump\t// in\n    tag_169:\n        /* \"contracts/3_Ballot.sol\":3722:3751  unlocked = (total * 25) / 100 */\n      swap1\n      pop\n        /* \"contracts/3_Ballot.sol\":3679:3805  if (elapsed >= 15 * 30 days) {... */\n      jump(tag_170)\n    tag_167:\n        /* \"contracts/3_Ballot.sol\":3793:3794  0 */\n      0x00\n        /* \"contracts/3_Ballot.sol\":3782:3794  unlocked = 0 */\n      swap1\n      pop\n        /* \"contracts/3_Ballot.sol\":3679:3805  if (elapsed >= 15 * 30 days) {... */\n    tag_170:\n        /* \"contracts/3_Ballot.sol\":3590:3805  if (elapsed >= 18 * 30 days) {... */\n    tag_166:\n        /* \"contracts/3_Ballot.sol\":3501:3805  if (elapsed >= 21 * 30 days) {... */\n    tag_162:\n        /* \"contracts/3_Ballot.sol\":3425:3805  if (elapsed >= 24 * 30 days) {... */\n    tag_156:\n        /* \"contracts/3_Ballot.sol\":3831:3838  claimed */\n      0x10\n        /* \"contracts/3_Ballot.sol\":3831:3844  claimed[user] */\n      0x00\n        /* \"contracts/3_Ballot.sol\":3839:3843  user */\n      dup7\n        /* \"contracts/3_Ballot.sol\":3831:3844  claimed[user] */\n      0xffffffffffffffffffffffffffffffffffffffff\n      and\n      0xffffffffffffffffffffffffffffffffffffffff\n      and\n      dup2\n      mstore\n      0x20\n      add\n      swap1\n      dup2\n      mstore\n      0x20\n      add\n      0x00\n      keccak256\n      sload\n        /* \"contracts/3_Ballot.sol\":3819:3827  unlocked */\n      dup2\n        /* \"contracts/3_Ballot.sol\":3819:3844  unlocked <= claimed[user] */\n      gt\n        /* \"contracts/3_Ballot.sol\":3815:3854  if (unlocked <= claimed[user]) return 0 */\n      tag_171\n      jumpi\n        /* \"contracts/3_Ballot.sol\":3853:3854  0 */\n      0x00\n        /* \"contracts/3_Ballot.sol\":3846:3854  return 0 */\n      swap3\n      pop\n      pop\n      pop\n      jump(tag_151)\n        /* \"contracts/3_Ballot.sol\":3815:3854  if (unlocked <= claimed[user]) return 0 */\n    tag_171:\n        /* \"contracts/3_Ballot.sol\":3882:3889  claimed */\n      0x10\n        /* \"contracts/3_Ballot.sol\":3882:3895  claimed[user] */\n      0x00\n        /* \"contracts/3_Ballot.sol\":3890:3894  user */\n      dup7\n        /* \"contracts/3_Ballot.sol\":3882:3895  claimed[user] */\n      0xffffffffffffffffffffffffffffffffffffffff\n      and\n      0xffffffffffffffffffffffffffffffffffffffff\n      and\n      dup2\n      mstore\n      0x20\n      add\n      swap1\n      dup2\n      mstore\n      0x20\n      add\n      0x00\n      keccak256\n      sload\n        /* \"contracts/3_Ballot.sol\":3871:3879  unlocked */\n      dup2\n        /* \"contracts/3_Ballot.sol\":3871:3895  unlocked - claimed[user] */\n      tag_172\n      swap2\n      swap1\n      tag_154\n      jump\t// in\n    tag_172:\n        /* \"contracts/3_Ballot.sol\":3864:3895  return unlocked - claimed[user] */\n      swap3\n      pop\n      pop\n      pop\n        /* \"contracts/3_Ballot.sol\":3207:3902  function getClaimable(address user, uint256 total) public view returns (uint256) {... */\n    tag_151:\n      swap3\n      swap2\n      pop\n      pop\n      jump\t// out\n        /* \"@openzeppelin/contracts/token/ERC20/ERC20.sol\":2985:3101  function balanceOf(address account) public view virtual returns (uint256) {... */\n    tag_83:\n        /* \"@openzeppelin/contracts/token/ERC20/ERC20.sol\":3050:3057  uint256 */\n      0x00\n        /* \"@openzeppelin/contracts/token/ERC20/ERC20.sol\":3076:3085  _balances */\n      dup1\n        /* \"@openzeppelin/contracts/token/ERC20/ERC20.sol\":3076:3094  _balances[account] */\n      0x00\n        /* \"@openzeppelin/contracts/token/ERC20/ERC20.sol\":3086:3093  account */\n      dup4\n        /* \"@openzeppelin/contracts/token/ERC20/ERC20.sol\":3076:3094  _balances[account] */\n      0xffffffffffffffffffffffffffffffffffffffff\n      and\n      0xffffffffffffffffffffffffffffffffffffffff\n      and\n      dup2\n      mstore\n      0x20\n      add\n      swap1\n      dup2\n      mstore\n      0x20\n      add\n      0x00\n      keccak256\n      sload\n        /* \"@openzeppelin/contracts/token/ERC20/ERC20.sol\":3069:3094  return _balances[account] */\n      swap1\n      pop\n        /* \"@openzeppelin/contracts/token/ERC20/ERC20.sol\":2985:3101  function balanceOf(address account) public view virtual returns (uint256) {... */\n      swap2\n      swap1\n      pop\n      jump\t// out\n        /* \"@openzeppelin/contracts/access/Ownable.sol\":2293:2394  function renounceOwnership() public virtual onlyOwner {... */\n    tag_86:\n        /* \"@openzeppelin/contracts/access/Ownable.sol\":1531:1544  _checkOwner() */\n      tag_175\n        /* \"@openzeppelin/contracts/access/Ownable.sol\":1531:1542  _checkOwner */\n      tag_176\n        /* \"@openzeppelin/contracts/access/Ownable.sol\":1531:1544  _checkOwner() */\n      jump\t// in\n    tag_175:\n        /* \"@openzeppelin/contracts/access/Ownable.sol\":2357:2387  _transferOwnership(address(0)) */\n      tag_178\n        /* \"@openzeppelin/contracts/access/Ownable.sol\":2384:2385  0 */\n      0x00\n        /* \"@openzeppelin/contracts/access/Ownable.sol\":2357:2375  _transferOwnership */\n      tag_179\n        /* \"@openzeppelin/contracts/access/Ownable.sol\":2357:2387  _transferOwnership(address(0)) */\n      jump\t// in\n    tag_178:\n        /* \"@openzeppelin/contracts/access/Ownable.sol\":2293:2394  function renounceOwnership() public virtual onlyOwner {... */\n      jump\t// out\n        /* \"@openzeppelin/contracts/access/Ownable.sol\":1638:1723  function owner() public view virtual returns (address) {... */\n    tag_88:\n        /* \"@openzeppelin/contracts/access/Ownable.sol\":1684:1691  address */\n      0x00\n        /* \"@openzeppelin/contracts/access/Ownable.sol\":1710:1716  _owner */\n      0x05\n      0x00\n      swap1\n      sload\n      swap1\n      0x0100\n      exp\n      swap1\n      div\n      0xffffffffffffffffffffffffffffffffffffffff\n      and\n        /* \"@openzeppelin/contracts/access/Ownable.sol\":1703:1716  return _owner */\n      swap1\n      pop\n        /* \"@openzeppelin/contracts/access/Ownable.sol\":1638:1723  function owner() public view virtual returns (address) {... */\n      swap1\n      jump\t// out\n        /* \"contracts/3_Ballot.sol\":373:400  address public ownerAddress */\n    tag_91:\n      0x08\n      0x00\n      swap1\n      sload\n      swap1\n      0x0100\n      exp\n      swap1\n      div\n      0xffffffffffffffffffffffffffffffffffffffff\n      and\n      dup2\n      jump\t// out\n        /* \"contracts/3_Ballot.sol\":213:278  uint256 public constant TOTAL_SUPPLY = 111_000_000_000_000 * 1e18 */\n    tag_94:\n        /* \"contracts/3_Ballot.sol\":252:278  111_000_000_000_000 * 1e18 */\n      0x05790457fe4e8cb32891c0000000\n        /* \"contracts/3_Ballot.sol\":213:278  uint256 public constant TOTAL_SUPPLY = 111_000_000_000_000 * 1e18 */\n      dup2\n      jump\t// out\n        /* \"@openzeppelin/contracts/token/ERC20/ERC20.sol\":1962:2055  function symbol() public view virtual returns (string memory) {... */\n    tag_97:\n        /* \"@openzeppelin/contracts/token/ERC20/ERC20.sol\":2009:2022  string memory */\n      0x60\n        /* \"@openzeppelin/contracts/token/ERC20/ERC20.sol\":2041:2048  _symbol */\n      0x04\n        /* \"@openzeppelin/contracts/token/ERC20/ERC20.sol\":2034:2048  return _symbol */\n      dup1\n      sload\n      tag_182\n      swap1\n      tag_133\n      jump\t// in\n    tag_182:\n      dup1\n      0x1f\n      add\n      0x20\n      dup1\n      swap2\n      div\n      mul\n      0x20\n      add\n      mload(0x40)\n      swap1\n      dup2\n      add\n      0x40\n      mstore\n      dup1\n      swap3\n      swap2\n      swap1\n      dup2\n      dup2\n      mstore\n      0x20\n      add\n      dup3\n      dup1\n      sload\n      tag_183\n      swap1\n      tag_133\n      jump\t// in\n    tag_183:\n      dup1\n      iszero\n      tag_184\n      jumpi\n      dup1\n      0x1f\n      lt\n      tag_185\n      jumpi\n      0x0100\n      dup1\n      dup4\n      sload\n      div\n      mul\n      dup4\n      mstore\n      swap2\n      0x20\n      add\n      swap2\n      jump(tag_184)\n    tag_185:\n      dup3\n      add\n      swap2\n      swap1\n      0x00\n      mstore\n      keccak256(0x00, 0x20)\n      swap1\n    tag_186:\n      dup2\n      sload\n      dup2\n      mstore\n      swap1\n      0x01\n      add\n      swap1\n      0x20\n      add\n      dup1\n      dup4\n      gt\n      tag_186\n      jumpi\n      dup3\n      swap1\n      sub\n      0x1f\n      and\n      dup3\n      add\n      swap2\n    tag_184:\n      pop\n      pop\n      pop\n      pop\n      pop\n      swap1\n      pop\n        /* \"@openzeppelin/contracts/token/ERC20/ERC20.sol\":1962:2055  function symbol() public view virtual returns (string memory) {... */\n      swap1\n      jump\t// out\n        /* \"@openzeppelin/contracts/token/ERC20/ERC20.sol\":3296:3474  function transfer(address to, uint256 value) public virtual returns (bool) {... */\n    tag_101:\n        /* \"@openzeppelin/contracts/token/ERC20/ERC20.sol\":3365:3369  bool */\n      0x00\n        /* \"@openzeppelin/contracts/token/ERC20/ERC20.sol\":3381:3394  address owner */\n      dup1\n        /* \"@openzeppelin/contracts/token/ERC20/ERC20.sol\":3397:3409  _msgSender() */\n      tag_188\n        /* \"@openzeppelin/contracts/token/ERC20/ERC20.sol\":3397:3407  _msgSender */\n      tag_140\n        /* \"@openzeppelin/contracts/token/ERC20/ERC20.sol\":3397:3409  _msgSender() */\n      jump\t// in\n    tag_188:\n        /* \"@openzeppelin/contracts/token/ERC20/ERC20.sol\":3381:3409  address owner = _msgSender() */\n      swap1\n      pop\n        /* \"@openzeppelin/contracts/token/ERC20/ERC20.sol\":3419:3446  _transfer(owner, to, value) */\n      tag_189\n        /* \"@openzeppelin/contracts/token/ERC20/ERC20.sol\":3429:3434  owner */\n      dup2\n        /* \"@openzeppelin/contracts/token/ERC20/ERC20.sol\":3436:3438  to */\n      dup6\n        /* \"@openzeppelin/contracts/token/ERC20/ERC20.sol\":3440:3445  value */\n      dup6\n        /* \"@openzeppelin/contracts/token/ERC20/ERC20.sol\":3419:3428  _transfer */\n      tag_149\n        /* \"@openzeppelin/contracts/token/ERC20/ERC20.sol\":3419:3446  _transfer(owner, to, value) */\n      jump\t// in\n    tag_189:\n        /* \"@openzeppelin/contracts/token/ERC20/ERC20.sol\":3463:3467  true */\n      0x01\n        /* \"@openzeppelin/contracts/token/ERC20/ERC20.sol\":3456:3467  return true */\n      swap2\n      pop\n      pop\n        /* \"@openzeppelin/contracts/token/ERC20/ERC20.sol\":3296:3474  function transfer(address to, uint256 value) public virtual returns (bool) {... */\n      swap3\n      swap2\n      pop\n      pop\n      jump\t// out\n        /* \"contracts/3_Ballot.sol\":523:556  address public devMarketingWallet */\n    tag_104:\n      0x0c\n      0x00\n      swap1\n      sload\n      swap1\n      0x0100\n      exp\n      swap1\n      div\n      0xffffffffffffffffffffffffffffffffffffffff\n      and\n      dup2\n      jump\t// out\n        /* \"contracts/3_Ballot.sol\":707:749  mapping(address => uint256) public claimed */\n    tag_108:\n      mstore(0x20, 0x10)\n      dup1\n      0x00\n      mstore\n      keccak256(0x00, 0x40)\n      0x00\n      swap2\n      pop\n      swap1\n      pop\n      sload\n      dup2\n      jump\t// out\n        /* \"contracts/3_Ballot.sol\":443:474  address public animalFundWallet */\n    tag_111:\n      0x0a\n      0x00\n      swap1\n      sload\n      swap1\n      0x0100\n      exp\n      swap1\n      div\n      0xffffffffffffffffffffffffffffffffffffffff\n      and\n      dup2\n      jump\t// out\n        /* \"contracts/3_Ballot.sol\":407:437  address public liquidityWallet */\n    tag_114:\n      0x09\n      0x00\n      swap1\n      sload\n      swap1\n      0x0100\n      exp\n      swap1\n      div\n      0xffffffffffffffffffffffffffffffffffffffff\n      and\n      dup2\n      jump\t// out\n        /* \"@openzeppelin/contracts/token/ERC20/ERC20.sol\":3532:3672  function allowance(address owner, address spender) public view virtual returns (uint256) {... */\n    tag_119:\n        /* \"@openzeppelin/contracts/token/ERC20/ERC20.sol\":3612:3619  uint256 */\n      0x00\n        /* \"@openzeppelin/contracts/token/ERC20/ERC20.sol\":3638:3649  _allowances */\n      0x01\n        /* \"@openzeppelin/contracts/token/ERC20/ERC20.sol\":3638:3656  _allowances[owner] */\n      0x00\n        /* \"@openzeppelin/contracts/token/ERC20/ERC20.sol\":3650:3655  owner */\n      dup5\n        /* \"@openzeppelin/contracts/token/ERC20/ERC20.sol\":3638:3656  _allowances[owner] */\n      0xffffffffffffffffffffffffffffffffffffffff\n      and\n      0xffffffffffffffffffffffffffffffffffffffff\n      and\n      dup2\n      mstore\n      0x20\n      add\n      swap1\n      dup2\n      mstore\n      0x20\n      add\n      0x00\n      keccak256\n        /* \"@openzeppelin/contracts/token/ERC20/ERC20.sol\":3638:3665  _allowances[owner][spender] */\n      0x00\n        /* \"@openzeppelin/contracts/token/ERC20/ERC20.sol\":3657:3664  spender */\n      dup4\n        /* \"@openzeppelin/contracts/token/ERC20/ERC20.sol\":3638:3665  _allowances[owner][spender] */\n      0xffffffffffffffffffffffffffffffffffffffff\n      and\n      0xffffffffffffffffffffffffffffffffffffffff\n      and\n      dup2\n      mstore\n      0x20\n      add\n      swap1\n      dup2\n      mstore\n      0x20\n      add\n      0x00\n      keccak256\n      sload\n        /* \"@openzeppelin/contracts/token/ERC20/ERC20.sol\":3631:3665  return _allowances[owner][spender] */\n      swap1\n      pop\n        /* \"@openzeppelin/contracts/token/ERC20/ERC20.sol\":3532:3672  function allowance(address owner, address spender) public view virtual returns (uint256) {... */\n      swap3\n      swap2\n      pop\n      pop\n      jump\t// out\n        /* \"contracts/3_Ballot.sol\":2601:2783  function startVesting() external onlyOwner {... */\n    tag_122:\n        /* \"@openzeppelin/contracts/access/Ownable.sol\":1531:1544  _checkOwner() */\n      tag_192\n        /* \"@openzeppelin/contracts/access/Ownable.sol\":1531:1542  _checkOwner */\n      tag_176\n        /* \"@openzeppelin/contracts/access/Ownable.sol\":1531:1544  _checkOwner() */\n      jump\t// in\n    tag_192:\n        /* \"contracts/3_Ballot.sol\":2678:2679  0 */\n      0x00\n        /* \"contracts/3_Ballot.sol\":2662:2674  vestingStart */\n      sload(0x0d)\n        /* \"contracts/3_Ballot.sol\":2662:2679  vestingStart == 0 */\n      eq\n        /* \"contracts/3_Ballot.sol\":2654:2707  require(vestingStart == 0, \"Vesting already started\") */\n      tag_194\n      jumpi\n      mload(0x40)\n      0x08c379a000000000000000000000000000000000000000000000000000000000\n      dup2\n      mstore\n      0x04\n      add\n      tag_195\n      swap1\n      tag_196\n      jump\t// in\n    tag_195:\n      mload(0x40)\n      dup1\n      swap2\n      sub\n      swap1\n      revert\n    tag_194:\n        /* \"contracts/3_Ballot.sol\":2732:2747  block.timestamp */\n      timestamp\n        /* \"contracts/3_Ballot.sol\":2717:2729  vestingStart */\n      0x0d\n        /* \"contracts/3_Ballot.sol\":2717:2747  vestingStart = block.timestamp */\n      dup2\n      swap1\n      sstore\n      pop\n        /* \"contracts/3_Ballot.sol\":2772:2776  true */\n      0x01\n        /* \"contracts/3_Ballot.sol\":2757:2769  presaleEnded */\n      0x0e\n      0x00\n        /* \"contracts/3_Ballot.sol\":2757:2776  presaleEnded = true */\n      0x0100\n      exp\n      dup2\n      sload\n      dup2\n      0xff\n      mul\n      not\n      and\n      swap1\n      dup4\n      iszero\n      iszero\n      mul\n      or\n      swap1\n      sstore\n      pop\n        /* \"contracts/3_Ballot.sol\":2601:2783  function startVesting() external onlyOwner {... */\n      jump\t// out\n        /* \"contracts/3_Ballot.sol\":623:647  bool public presaleEnded */\n    tag_124:\n      0x0e\n      0x00\n      swap1\n      sload\n      swap1\n      0x0100\n      exp\n      swap1\n      div\n      0xff\n      and\n      dup2\n      jump\t// out\n        /* \"contracts/3_Ballot.sol\":2789:3201  function claimVestedTokens() external onlyTeam {... */\n    tag_127:\n        /* \"contracts/3_Ballot.sol\":2464:2475  teamPlayer2 */\n      0x06\n      0x00\n      swap1\n      sload\n      swap1\n      0x0100\n      exp\n      swap1\n      div\n      0xffffffffffffffffffffffffffffffffffffffff\n      and\n        /* \"contracts/3_Ballot.sol\":2450:2475  msg.sender == teamPlayer2 */\n      0xffffffffffffffffffffffffffffffffffffffff\n      and\n        /* \"contracts/3_Ballot.sol\":2450:2460  msg.sender */\n      caller\n        /* \"contracts/3_Ballot.sol\":2450:2475  msg.sender == teamPlayer2 */\n      0xffffffffffffffffffffffffffffffffffffffff\n      and\n      eq\n        /* \"contracts/3_Ballot.sol\":2450:2504  msg.sender == teamPlayer2 || msg.sender == teamPlayer3 */\n      dup1\n      tag_198\n      jumpi\n      pop\n        /* \"contracts/3_Ballot.sol\":2493:2504  teamPlayer3 */\n      0x07\n      0x00\n      swap1\n      sload\n      swap1\n      0x0100\n      exp\n      swap1\n      div\n      0xffffffffffffffffffffffffffffffffffffffff\n      and\n        /* \"contracts/3_Ballot.sol\":2479:2504  msg.sender == teamPlayer3 */\n      0xffffffffffffffffffffffffffffffffffffffff\n      and\n        /* \"contracts/3_Ballot.sol\":2479:2489  msg.sender */\n      caller\n        /* \"contracts/3_Ballot.sol\":2479:2504  msg.sender == teamPlayer3 */\n      0xffffffffffffffffffffffffffffffffffffffff\n      and\n      eq\n        /* \"contracts/3_Ballot.sol\":2450:2504  msg.sender == teamPlayer2 || msg.sender == teamPlayer3 */\n    tag_198:\n        /* \"contracts/3_Ballot.sol\":2450:2534  msg.sender == teamPlayer2 || msg.sender == teamPlayer3 || msg.sender == ownerAddress */\n      dup1\n      tag_199\n      jumpi\n      pop\n        /* \"contracts/3_Ballot.sol\":2522:2534  ownerAddress */\n      0x08\n      0x00\n      swap1\n      sload\n      swap1\n      0x0100\n      exp\n      swap1\n      div\n      0xffffffffffffffffffffffffffffffffffffffff\n      and\n        /* \"contracts/3_Ballot.sol\":2508:2534  msg.sender == ownerAddress */\n      0xffffffffffffffffffffffffffffffffffffffff\n      and\n        /* \"contracts/3_Ballot.sol\":2508:2518  msg.sender */\n      caller\n        /* \"contracts/3_Ballot.sol\":2508:2534  msg.sender == ownerAddress */\n      0xffffffffffffffffffffffffffffffffffffffff\n      and\n      eq\n        /* \"contracts/3_Ballot.sol\":2450:2534  msg.sender == teamPlayer2 || msg.sender == teamPlayer3 || msg.sender == ownerAddress */\n    tag_199:\n        /* \"contracts/3_Ballot.sol\":2429:2577  require(... */\n      tag_200\n      jumpi\n      mload(0x40)\n      0x08c379a000000000000000000000000000000000000000000000000000000000\n      dup2\n      mstore\n      0x04\n      add\n      tag_201\n      swap1\n      tag_202\n      jump\t// in\n    tag_201:\n      mload(0x40)\n      dup1\n      swap2\n      sub\n      swap1\n      revert\n    tag_200:\n        /* \"contracts/3_Ballot.sol\":2854:2866  presaleEnded */\n      0x0e\n      0x00\n      swap1\n      sload\n      swap1\n      0x0100\n      exp\n      swap1\n      div\n      0xff\n      and\n        /* \"contracts/3_Ballot.sol\":2846:2888  require(presaleEnded, \"Presale not ended\") */\n      tag_204\n      jumpi\n      mload(0x40)\n      0x08c379a000000000000000000000000000000000000000000000000000000000\n      dup2\n      mstore\n      0x04\n      add\n      tag_205\n      swap1\n      tag_206\n      jump\t// in\n    tag_205:\n      mload(0x40)\n      dup1\n      swap2\n      sub\n      swap1\n      revert\n    tag_204:\n        /* \"contracts/3_Ballot.sol\":2898:2911  uint256 total */\n      0x00\n        /* \"contracts/3_Ballot.sol\":2914:2926  vestedAmount */\n      0x0f\n        /* \"contracts/3_Ballot.sol\":2914:2938  vestedAmount[msg.sender] */\n      0x00\n        /* \"contracts/3_Ballot.sol\":2927:2937  msg.sender */\n      caller\n        /* \"contracts/3_Ballot.sol\":2914:2938  vestedAmount[msg.sender] */\n      0xffffffffffffffffffffffffffffffffffffffff\n      and\n      0xffffffffffffffffffffffffffffffffffffffff\n      and\n      dup2\n      mstore\n      0x20\n      add\n      swap1\n      dup2\n      mstore\n      0x20\n      add\n      0x00\n      keccak256\n      sload\n        /* \"contracts/3_Ballot.sol\":2898:2938  uint256 total = vestedAmount[msg.sender] */\n      swap1\n      pop\n        /* \"contracts/3_Ballot.sol\":2964:2965  0 */\n      0x00\n        /* \"contracts/3_Ballot.sol\":2956:2961  total */\n      dup2\n        /* \"contracts/3_Ballot.sol\":2956:2965  total > 0 */\n      gt\n        /* \"contracts/3_Ballot.sol\":2948:2980  require(total > 0, \"No vesting\") */\n      tag_207\n      jumpi\n      mload(0x40)\n      0x08c379a000000000000000000000000000000000000000000000000000000000\n      dup2\n      mstore\n      0x04\n      add\n      tag_208\n      swap1\n      tag_209\n      jump\t// in\n    tag_208:\n      mload(0x40)\n      dup1\n      swap2\n      sub\n      swap1\n      revert\n    tag_207:\n        /* \"contracts/3_Ballot.sol\":2991:3008  uint256 claimable */\n      0x00\n        /* \"contracts/3_Ballot.sol\":3011:3042  getClaimable(msg.sender, total) */\n      tag_210\n        /* \"contracts/3_Ballot.sol\":3024:3034  msg.sender */\n      caller\n        /* \"contracts/3_Ballot.sol\":3036:3041  total */\n      dup4\n        /* \"contracts/3_Ballot.sol\":3011:3023  getClaimable */\n      tag_79\n        /* \"contracts/3_Ballot.sol\":3011:3042  getClaimable(msg.sender, total) */\n      jump\t// in\n    tag_210:\n        /* \"contracts/3_Ballot.sol\":2991:3042  uint256 claimable = getClaimable(msg.sender, total) */\n      swap1\n      pop\n        /* \"contracts/3_Ballot.sol\":3072:3073  0 */\n      0x00\n        /* \"contracts/3_Ballot.sol\":3060:3069  claimable */\n      dup2\n        /* \"contracts/3_Ballot.sol\":3060:3073  claimable > 0 */\n      gt\n        /* \"contracts/3_Ballot.sol\":3052:3094  require(claimable > 0, \"Nothing to claim\") */\n      tag_211\n      jumpi\n      mload(0x40)\n      0x08c379a000000000000000000000000000000000000000000000000000000000\n      dup2\n      mstore\n      0x04\n      add\n      tag_212\n      swap1\n      tag_213\n      jump\t// in\n    tag_212:\n      mload(0x40)\n      dup1\n      swap2\n      sub\n      swap1\n      revert\n    tag_211:\n        /* \"contracts/3_Ballot.sol\":3128:3137  claimable */\n      dup1\n        /* \"contracts/3_Ballot.sol\":3105:3112  claimed */\n      0x10\n        /* \"contracts/3_Ballot.sol\":3105:3124  claimed[msg.sender] */\n      0x00\n        /* \"contracts/3_Ballot.sol\":3113:3123  msg.sender */\n      caller\n        /* \"contracts/3_Ballot.sol\":3105:3124  claimed[msg.sender] */\n      0xffffffffffffffffffffffffffffffffffffffff\n      and\n      0xffffffffffffffffffffffffffffffffffffffff\n      and\n      dup2\n      mstore\n      0x20\n      add\n      swap1\n      dup2\n      mstore\n      0x20\n      add\n      0x00\n      keccak256\n      0x00\n        /* \"contracts/3_Ballot.sol\":3105:3137  claimed[msg.sender] += claimable */\n      dup3\n      dup3\n      sload\n      tag_214\n      swap2\n      swap1\n      tag_215\n      jump\t// in\n    tag_214:\n      swap3\n      pop\n      pop\n      dup2\n      swap1\n      sstore\n      pop\n        /* \"contracts/3_Ballot.sol\":3147:3194  _transfer(address(this), msg.sender, claimable) */\n      tag_216\n        /* \"contracts/3_Ballot.sol\":3165:3169  this */\n      address\n        /* \"contracts/3_Ballot.sol\":3172:3182  msg.sender */\n      caller\n        /* \"contracts/3_Ballot.sol\":3184:3193  claimable */\n      dup4\n        /* \"contracts/3_Ballot.sol\":3147:3156  _transfer */\n      tag_149\n        /* \"contracts/3_Ballot.sol\":3147:3194  _transfer(address(this), msg.sender, claimable) */\n      jump\t// in\n    tag_216:\n        /* \"contracts/3_Ballot.sol\":2836:3201  {... */\n      pop\n      pop\n        /* \"contracts/3_Ballot.sol\":2789:3201  function claimVestedTokens() external onlyTeam {... */\n      jump\t// out\n        /* \"@openzeppelin/contracts/access/Ownable.sol\":2543:2758  function transferOwnership(address newOwner) public virtual onlyOwner {... */\n    tag_130:\n        /* \"@openzeppelin/contracts/access/Ownable.sol\":1531:1544  _checkOwner() */\n      tag_218\n        /* \"@openzeppelin/contracts/access/Ownable.sol\":1531:1542  _checkOwner */\n      tag_176\n        /* \"@openzeppelin/contracts/access/Ownable.sol\":1531:1544  _checkOwner() */\n      jump\t// in\n    tag_218:\n        /* \"@openzeppelin/contracts/access/Ownable.sol\":2647:2648  0 */\n      0x00\n        /* \"@openzeppelin/contracts/access/Ownable.sol\":2627:2649  newOwner == address(0) */\n      0xffffffffffffffffffffffffffffffffffffffff\n      and\n        /* \"@openzeppelin/contracts/access/Ownable.sol\":2627:2635  newOwner */\n      dup2\n        /* \"@openzeppelin/contracts/access/Ownable.sol\":2627:2649  newOwner == address(0) */\n      0xffffffffffffffffffffffffffffffffffffffff\n      and\n      sub\n        /* \"@openzeppelin/contracts/access/Ownable.sol\":2623:2714  if (newOwner == address(0)) {... */\n      tag_220\n      jumpi\n        /* \"@openzeppelin/contracts/access/Ownable.sol\":2700:2701  0 */\n      0x00\n        /* \"@openzeppelin/contracts/access/Ownable.sol\":2672:2703  OwnableInvalidOwner(address(0)) */\n      mload(0x40)\n      0x1e4fbdf700000000000000000000000000000000000000000000000000000000\n      dup2\n      mstore\n      0x04\n      add\n      tag_221\n      swap2\n      swap1\n      tag_39\n      jump\t// in\n    tag_221:\n      mload(0x40)\n      dup1\n      swap2\n      sub\n      swap1\n      revert\n        /* \"@openzeppelin/contracts/access/Ownable.sol\":2623:2714  if (newOwner == address(0)) {... */\n    tag_220:\n        /* \"@openzeppelin/contracts/access/Ownable.sol\":2723:2751  _transferOwnership(newOwner) */\n      tag_222\n        /* \"@openzeppelin/contracts/access/Ownable.sol\":2742:2750  newOwner */\n      dup2\n        /* \"@openzeppelin/contracts/access/Ownable.sol\":2723:2741  _transferOwnership */\n      tag_179\n        /* \"@openzeppelin/contracts/access/Ownable.sol\":2723:2751  _transferOwnership(newOwner) */\n      jump\t// in\n    tag_222:\n        /* \"@openzeppelin/contracts/access/Ownable.sol\":2543:2758  function transferOwnership(address newOwner) public virtual onlyOwner {... */\n      pop\n      jump\t// out\n        /* \"@openzeppelin/contracts/utils/Context.sol\":656:752  function _msgSender() internal view virtual returns (address) {... */\n    tag_140:\n        /* \"@openzeppelin/contracts/utils/Context.sol\":709:716  address */\n      0x00\n        /* \"@openzeppelin/contracts/utils/Context.sol\":735:745  msg.sender */\n      caller\n        /* \"@openzeppelin/contracts/utils/Context.sol\":728:745  return msg.sender */\n      swap1\n      pop\n        /* \"@openzeppelin/contracts/utils/Context.sol\":656:752  function _msgSender() internal view virtual returns (address) {... */\n      swap1\n      jump\t// out\n        /* \"@openzeppelin/contracts/token/ERC20/ERC20.sol\":8707:8835  function _approve(address owner, address spender, uint256 value) internal {... */\n    tag_142:\n        /* \"@openzeppelin/contracts/token/ERC20/ERC20.sol\":8791:8828  _approve(owner, spender, value, true) */\n      tag_225\n        /* \"@openzeppelin/contracts/token/ERC20/ERC20.sol\":8800:8805  owner */\n      dup4\n        /* \"@openzeppelin/contracts/token/ERC20/ERC20.sol\":8807:8814  spender */\n      dup4\n        /* \"@openzeppelin/contracts/token/ERC20/ERC20.sol\":8816:8821  value */\n      dup4\n        /* \"@openzeppelin/contracts/token/ERC20/ERC20.sol\":8823:8827  true */\n      0x01\n        /* \"@openzeppelin/contracts/token/ERC20/ERC20.sol\":8791:8799  _approve */\n      tag_226\n        /* \"@openzeppelin/contracts/token/ERC20/ERC20.sol\":8791:8828  _approve(owner, spender, value, true) */\n      jump\t// in\n    tag_225:\n        /* \"@openzeppelin/contracts/token/ERC20/ERC20.sol\":8707:8835  function _approve(address owner, address spender, uint256 value) internal {... */\n      pop\n      pop\n      pop\n      jump\t// out\n        /* \"@openzeppelin/contracts/token/ERC20/ERC20.sol\":10396:10872  function _spendAllowance(address owner, address spender, uint256 value) internal virtual {... */\n    tag_147:\n        /* \"@openzeppelin/contracts/token/ERC20/ERC20.sol\":10495:10519  uint256 currentAllowance */\n      0x00\n        /* \"@openzeppelin/contracts/token/ERC20/ERC20.sol\":10522:10547  allowance(owner, spender) */\n      tag_228\n        /* \"@openzeppelin/contracts/token/ERC20/ERC20.sol\":10532:10537  owner */\n      dup5\n        /* \"@openzeppelin/contracts/token/ERC20/ERC20.sol\":10539:10546  spender */\n      dup5\n        /* \"@openzeppelin/contracts/token/ERC20/ERC20.sol\":10522:10531  allowance */\n      tag_119\n        /* \"@openzeppelin/contracts/token/ERC20/ERC20.sol\":10522:10547  allowance(owner, spender) */\n      jump\t// in\n    tag_228:\n        /* \"@openzeppelin/contracts/token/ERC20/ERC20.sol\":10495:10547  uint256 currentAllowance = allowance(owner, spender) */\n      swap1\n      pop\n        /* \"@openzeppelin/contracts/token/ERC20/ERC20.sol\":10580:10597  type(uint256).max */\n      0xffffffffffffffffffffffffffffffffffffffffffffffffffffffffffffffff\n        /* \"@openzeppelin/contracts/token/ERC20/ERC20.sol\":10561:10577  currentAllowance */\n      dup2\n        /* \"@openzeppelin/contracts/token/ERC20/ERC20.sol\":10561:10597  currentAllowance < type(uint256).max */\n      lt\n        /* \"@openzeppelin/contracts/token/ERC20/ERC20.sol\":10557:10866  if (currentAllowance < type(uint256).max) {... */\n      iszero\n      tag_229\n      jumpi\n        /* \"@openzeppelin/contracts/token/ERC20/ERC20.sol\":10636:10641  value */\n      dup2\n        /* \"@openzeppelin/contracts/token/ERC20/ERC20.sol\":10617:10633  currentAllowance */\n      dup2\n        /* \"@openzeppelin/contracts/token/ERC20/ERC20.sol\":10617:10641  currentAllowance < value */\n      lt\n        /* \"@openzeppelin/contracts/token/ERC20/ERC20.sol\":10613:10743  if (currentAllowance < value) {... */\n      iszero\n      tag_230\n      jumpi\n        /* \"@openzeppelin/contracts/token/ERC20/ERC20.sol\":10695:10702  spender */\n      dup3\n        /* \"@openzeppelin/contracts/token/ERC20/ERC20.sol\":10704:10720  currentAllowance */\n      dup2\n        /* \"@openzeppelin/contracts/token/ERC20/ERC20.sol\":10722:10727  value */\n      dup4\n        /* \"@openzeppelin/contracts/token/ERC20/ERC20.sol\":10668:10728  ERC20InsufficientAllowance(spender, currentAllowance, value) */\n      mload(0x40)\n      0xfb8f41b200000000000000000000000000000000000000000000000000000000\n      dup2\n      mstore\n      0x04\n      add\n      tag_231\n      swap4\n      swap3\n      swap2\n      swap1\n      tag_232\n      jump\t// in\n    tag_231:\n      mload(0x40)\n      dup1\n      swap2\n      sub\n      swap1\n      revert\n        /* \"@openzeppelin/contracts/token/ERC20/ERC20.sol\":10613:10743  if (currentAllowance < value) {... */\n    tag_230:\n        /* \"@openzeppelin/contracts/token/ERC20/ERC20.sol\":10784:10841  _approve(owner, spender, currentAllowance - value, false) */\n      tag_233\n        /* \"@openzeppelin/contracts/token/ERC20/ERC20.sol\":10793:10798  owner */\n      dup5\n        /* \"@openzeppelin/contracts/token/ERC20/ERC20.sol\":10800:10807  spender */\n      dup5\n        /* \"@openzeppelin/contracts/token/ERC20/ERC20.sol\":10828:10833  value */\n      dup5\n        /* \"@openzeppelin/contracts/token/ERC20/ERC20.sol\":10809:10825  currentAllowance */\n      dup5\n        /* \"@openzeppelin/contracts/token/ERC20/ERC20.sol\":10809:10833  currentAllowance - value */\n      sub\n        /* \"@openzeppelin/contracts/token/ERC20/ERC20.sol\":10835:10840  false */\n      0x00\n        /* \"@openzeppelin/contracts/token/ERC20/ERC20.sol\":10784:10792  _approve */\n      tag_226\n        /* \"@openzeppelin/contracts/token/ERC20/ERC20.sol\":10784:10841  _approve(owner, spender, currentAllowance - value, false) */\n      jump\t// in\n    tag_233:\n        /* \"@openzeppelin/contracts/token/ERC20/ERC20.sol\":10557:10866  if (currentAllowance < type(uint256).max) {... */\n    tag_229:\n        /* \"@openzeppelin/contracts/token/ERC20/ERC20.sol\":10485:10872  {... */\n      pop\n        /* \"@openzeppelin/contracts/token/ERC20/ERC20.sol\":10396:10872  function _spendAllowance(address owner, address spender, uint256 value) internal virtual {... */\n      pop\n      pop\n      pop\n      jump\t// out\n        /* \"@openzeppelin/contracts/token/ERC20/ERC20.sol\":5374:5674  function _transfer(address from, address to, uint256 value) internal {... */\n    tag_149:\n        /* \"@openzeppelin/contracts/token/ERC20/ERC20.sol\":5473:5474  0 */\n      0x00\n        /* \"@openzeppelin/contracts/token/ERC20/ERC20.sol\":5457:5475  from == address(0) */\n      0xffffffffffffffffffffffffffffffffffffffff\n      and\n        /* \"@openzeppelin/contracts/token/ERC20/ERC20.sol\":5457:5461  from */\n      dup4\n        /* \"@openzeppelin/contracts/token/ERC20/ERC20.sol\":5457:5475  from == address(0) */\n      0xffffffffffffffffffffffffffffffffffffffff\n      and\n      sub\n        /* \"@openzeppelin/contracts/token/ERC20/ERC20.sol\":5453:5539  if (from == address(0)) {... */\n      tag_235\n      jumpi\n        /* \"@openzeppelin/contracts/token/ERC20/ERC20.sol\":5525:5526  0 */\n      0x00\n        /* \"@openzeppelin/contracts/token/ERC20/ERC20.sol\":5498:5528  ERC20InvalidSender(address(0)) */\n      mload(0x40)\n      0x96c6fd1e00000000000000000000000000000000000000000000000000000000\n      dup2\n      mstore\n      0x04\n      add\n      tag_236\n      swap2\n      swap1\n      tag_39\n      jump\t// in\n    tag_236:\n      mload(0x40)\n      dup1\n      swap2\n      sub\n      swap1\n      revert\n        /* \"@openzeppelin/contracts/token/ERC20/ERC20.sol\":5453:5539  if (from == address(0)) {... */\n    tag_235:\n        /* \"@openzeppelin/contracts/token/ERC20/ERC20.sol\":5566:5567  0 */\n      0x00\n        /* \"@openzeppelin/contracts/token/ERC20/ERC20.sol\":5552:5568  to == address(0) */\n      0xffffffffffffffffffffffffffffffffffffffff\n      and\n        /* \"@openzeppelin/contracts/token/ERC20/ERC20.sol\":5552:5554  to */\n      dup3\n        /* \"@openzeppelin/contracts/token/ERC20/ERC20.sol\":5552:5568  to == address(0) */\n      0xffffffffffffffffffffffffffffffffffffffff\n      and\n      sub\n        /* \"@openzeppelin/contracts/token/ERC20/ERC20.sol\":5548:5634  if (to == address(0)) {... */\n      tag_237\n      jumpi\n        /* \"@openzeppelin/contracts/token/ERC20/ERC20.sol\":5620:5621  0 */\n      0x00\n        /* \"@openzeppelin/contracts/token/ERC20/ERC20.sol\":5591:5623  ERC20InvalidReceiver(address(0)) */\n      mload(0x40)\n      0xec442f0500000000000000000000000000000000000000000000000000000000\n      dup2\n      mstore\n      0x04\n      add\n      tag_238\n      swap2\n      swap1\n      tag_39\n      jump\t// in\n    tag_238:\n      mload(0x40)\n      dup1\n      swap2\n      sub\n      swap1\n      revert\n        /* \"@openzeppelin/contracts/token/ERC20/ERC20.sol\":5548:5634  if (to == address(0)) {... */\n    tag_237:\n        /* \"@openzeppelin/contracts/token/ERC20/ERC20.sol\":5643:5667  _update(from, to, value) */\n      tag_239\n        /* \"@openzeppelin/contracts/token/ERC20/ERC20.sol\":5651:5655  from */\n      dup4\n        /* \"@openzeppelin/contracts/token/ERC20/ERC20.sol\":5657:5659  to */\n      dup4\n        /* \"@openzeppelin/contracts/token/ERC20/ERC20.sol\":5661:5666  value */\n      dup4\n        /* \"@openzeppelin/contracts/token/ERC20/ERC20.sol\":5643:5650  _update */\n      tag_240\n        /* \"@openzeppelin/contracts/token/ERC20/ERC20.sol\":5643:5667  _update(from, to, value) */\n      jump\t// in\n    tag_239:\n        /* \"@openzeppelin/contracts/token/ERC20/ERC20.sol\":5374:5674  function _transfer(address from, address to, uint256 value) internal {... */\n      pop\n      pop\n      pop\n      jump\t// out\n        /* \"@openzeppelin/contracts/access/Ownable.sol\":1796:1958  function _checkOwner() internal view virtual {... */\n    tag_176:\n        /* \"@openzeppelin/contracts/access/Ownable.sol\":1866:1878  _msgSender() */\n      tag_242\n        /* \"@openzeppelin/contracts/access/Ownable.sol\":1866:1876  _msgSender */\n      tag_140\n        /* \"@openzeppelin/contracts/access/Ownable.sol\":1866:1878  _msgSender() */\n      jump\t// in\n    tag_242:\n        /* \"@openzeppelin/contracts/access/Ownable.sol\":1855:1878  owner() != _msgSender() */\n      0xffffffffffffffffffffffffffffffffffffffff\n      and\n        /* \"@openzeppelin/contracts/access/Ownable.sol\":1855:1862  owner() */\n      tag_243\n        /* \"@openzeppelin/contracts/access/Ownable.sol\":1855:1860  owner */\n      tag_88\n        /* \"@openzeppelin/contracts/access/Ownable.sol\":1855:1862  owner() */\n      jump\t// in\n    tag_243:\n        /* \"@openzeppelin/contracts/access/Ownable.sol\":1855:1878  owner() != _msgSender() */\n      0xffffffffffffffffffffffffffffffffffffffff\n      and\n      eq\n        /* \"@openzeppelin/contracts/access/Ownable.sol\":1851:1952  if (owner() != _msgSender()) {... */\n      tag_244\n      jumpi\n        /* \"@openzeppelin/contracts/access/Ownable.sol\":1928:1940  _msgSender() */\n      tag_245\n        /* \"@openzeppelin/contracts/access/Ownable.sol\":1928:1938  _msgSender */\n      tag_140\n        /* \"@openzeppelin/contracts/access/Ownable.sol\":1928:1940  _msgSender() */\n      jump\t// in\n    tag_245:\n        /* \"@openzeppelin/contracts/access/Ownable.sol\":1901:1941  OwnableUnauthorizedAccount(_msgSender()) */\n      mload(0x40)\n      0x118cdaa700000000000000000000000000000000000000000000000000000000\n      dup2\n      mstore\n      0x04\n      add\n      tag_246\n      swap2\n      swap1\n      tag_39\n      jump\t// in\n    tag_246:\n      mload(0x40)\n      dup1\n      swap2\n      sub\n      swap1\n      revert\n        /* \"@openzeppelin/contracts/access/Ownable.sol\":1851:1952  if (owner() != _msgSender()) {... */\n    tag_244:\n        /* \"@openzeppelin/contracts/access/Ownable.sol\":1796:1958  function _checkOwner() internal view virtual {... */\n      jump\t// out\n        /* \"@openzeppelin/contracts/access/Ownable.sol\":2912:3099  function _transferOwnership(address newOwner) internal virtual {... */\n    tag_179:\n        /* \"@openzeppelin/contracts/access/Ownable.sol\":2985:3001  address oldOwner */\n      0x00\n        /* \"@openzeppelin/contracts/access/Ownable.sol\":3004:3010  _owner */\n      0x05\n      0x00\n      swap1\n      sload\n      swap1\n      0x0100\n      exp\n      swap1\n      div\n      0xffffffffffffffffffffffffffffffffffffffff\n      and\n        /* \"@openzeppelin/contracts/access/Ownable.sol\":2985:3010  address oldOwner = _owner */\n      swap1\n      pop\n        /* \"@openzeppelin/contracts/access/Ownable.sol\":3029:3037  newOwner */\n      dup2\n        /* \"@openzeppelin/contracts/access/Ownable.sol\":3020:3026  _owner */\n      0x05\n      0x00\n        /* \"@openzeppelin/contracts/access/Ownable.sol\":3020:3037  _owner = newOwner */\n      0x0100\n      exp\n      dup2\n      sload\n      dup2\n      0xffffffffffffffffffffffffffffffffffffffff\n      mul\n      not\n      and\n      swap1\n      dup4\n      0xffffffffffffffffffffffffffffffffffffffff\n      and\n      mul\n      or\n      swap1\n      sstore\n      pop\n        /* \"@openzeppelin/contracts/access/Ownable.sol\":3083:3091  newOwner */\n      dup2\n        /* \"@openzeppelin/contracts/access/Ownable.sol\":3052:3092  OwnershipTransferred(oldOwner, newOwner) */\n      0xffffffffffffffffffffffffffffffffffffffff\n      and\n        /* \"@openzeppelin/contracts/access/Ownable.sol\":3073:3081  oldOwner */\n      dup2\n        /* \"@openzeppelin/contracts/access/Ownable.sol\":3052:3092  OwnershipTransferred(oldOwner, newOwner) */\n      0xffffffffffffffffffffffffffffffffffffffff\n      and\n      0x8be0079c531659141344cd1fd0a4f28419497f9722a3daafe3b4186f6b6457e0\n      mload(0x40)\n      mload(0x40)\n      dup1\n      swap2\n      sub\n      swap1\n      log3\n        /* \"@openzeppelin/contracts/access/Ownable.sol\":2975:3099  {... */\n      pop\n        /* \"@openzeppelin/contracts/access/Ownable.sol\":2912:3099  function _transferOwnership(address newOwner) internal virtual {... */\n      pop\n      jump\t// out\n        /* \"@openzeppelin/contracts/token/ERC20/ERC20.sol\":9682:10114  function _approve(address owner, address spender, uint256 value, bool emitEvent) internal virtual {... */\n    tag_226:\n        /* \"@openzeppelin/contracts/token/ERC20/ERC20.sol\":9811:9812  0 */\n      0x00\n        /* \"@openzeppelin/contracts/token/ERC20/ERC20.sol\":9794:9813  owner == address(0) */\n      0xffffffffffffffffffffffffffffffffffffffff\n      and\n        /* \"@openzeppelin/contracts/token/ERC20/ERC20.sol\":9794:9799  owner */\n      dup5\n        /* \"@openzeppelin/contracts/token/ERC20/ERC20.sol\":9794:9813  owner == address(0) */\n      0xffffffffffffffffffffffffffffffffffffffff\n      and\n      sub\n        /* \"@openzeppelin/contracts/token/ERC20/ERC20.sol\":9790:9879  if (owner == address(0)) {... */\n      tag_249\n      jumpi\n        /* \"@openzeppelin/contracts/token/ERC20/ERC20.sol\":9865:9866  0 */\n      0x00\n        /* \"@openzeppelin/contracts/token/ERC20/ERC20.sol\":9836:9868  ERC20InvalidApprover(address(0)) */\n      mload(0x40)\n      0xe602df0500000000000000000000000000000000000000000000000000000000\n      dup2\n      mstore\n      0x04\n      add\n      tag_250\n      swap2\n      swap1\n      tag_39\n      jump\t// in\n    tag_250:\n      mload(0x40)\n      dup1\n      swap2\n      sub\n      swap1\n      revert\n        /* \"@openzeppelin/contracts/token/ERC20/ERC20.sol\":9790:9879  if (owner == address(0)) {... */\n    tag_249:\n        /* \"@openzeppelin/contracts/token/ERC20/ERC20.sol\":9911:9912  0 */\n      0x00\n        /* \"@openzeppelin/contracts/token/ERC20/ERC20.sol\":9892:9913  spender == address(0) */\n      0xffffffffffffffffffffffffffffffffffffffff\n      and\n        /* \"@openzeppelin/contracts/token/ERC20/ERC20.sol\":9892:9899  spender */\n      dup4\n        /* \"@openzeppelin/contracts/token/ERC20/ERC20.sol\":9892:9913  spender == address(0) */\n      0xffffffffffffffffffffffffffffffffffffffff\n      and\n      sub\n        /* \"@openzeppelin/contracts/token/ERC20/ERC20.sol\":9888:9978  if (spender == address(0)) {... */\n      tag_251\n      jumpi\n        /* \"@openzeppelin/contracts/token/ERC20/ERC20.sol\":9964:9965  0 */\n      0x00\n        /* \"@openzeppelin/contracts/token/ERC20/ERC20.sol\":9936:9967  ERC20InvalidSpender(address(0)) */\n      mload(0x40)\n      0x94280d6200000000000000000000000000000000000000000000000000000000\n      dup2\n      mstore\n      0x04\n      add\n      tag_252\n      swap2\n      swap1\n      tag_39\n      jump\t// in\n    tag_252:\n      mload(0x40)\n      dup1\n      swap2\n      sub\n      swap1\n      revert\n        /* \"@openzeppelin/contracts/token/ERC20/ERC20.sol\":9888:9978  if (spender == address(0)) {... */\n    tag_251:\n        /* \"@openzeppelin/contracts/token/ERC20/ERC20.sol\":10017:10022  value */\n      dup2\n        /* \"@openzeppelin/contracts/token/ERC20/ERC20.sol\":9987:9998  _allowances */\n      0x01\n        /* \"@openzeppelin/contracts/token/ERC20/ERC20.sol\":9987:10005  _allowances[owner] */\n      0x00\n        /* \"@openzeppelin/contracts/token/ERC20/ERC20.sol\":9999:10004  owner */\n      dup7\n        /* \"@openzeppelin/contracts/token/ERC20/ERC20.sol\":9987:10005  _allowances[owner] */\n      0xffffffffffffffffffffffffffffffffffffffff\n      and\n      0xffffffffffffffffffffffffffffffffffffffff\n      and\n      dup2\n      mstore\n      0x20\n      add\n      swap1\n      dup2\n      mstore\n      0x20\n      add\n      0x00\n      keccak256\n        /* \"@openzeppelin/contracts/token/ERC20/ERC20.sol\":9987:10014  _allowances[owner][spender] */\n      0x00\n        /* \"@openzeppelin/contracts/token/ERC20/ERC20.sol\":10006:10013  spender */\n      dup6\n        /* \"@openzeppelin/contracts/token/ERC20/ERC20.sol\":9987:10014  _allowances[owner][spender] */\n      0xffffffffffffffffffffffffffffffffffffffff\n      and\n      0xffffffffffffffffffffffffffffffffffffffff\n      and\n      dup2\n      mstore\n      0x20\n      add\n      swap1\n      dup2\n      mstore\n      0x20\n      add\n      0x00\n      keccak256\n        /* \"@openzeppelin/contracts/token/ERC20/ERC20.sol\":9987:10022  _allowances[owner][spender] = value */\n      dup2\n      swap1\n      sstore\n      pop\n        /* \"@openzeppelin/contracts/token/ERC20/ERC20.sol\":10036:10045  emitEvent */\n      dup1\n        /* \"@openzeppelin/contracts/token/ERC20/ERC20.sol\":10032:10108  if (emitEvent) {... */\n      iszero\n      tag_253\n      jumpi\n        /* \"@openzeppelin/contracts/token/ERC20/ERC20.sol\":10082:10089  spender */\n      dup3\n        /* \"@openzeppelin/contracts/token/ERC20/ERC20.sol\":10066:10097  Approval(owner, spender, value) */\n      0xffffffffffffffffffffffffffffffffffffffff\n      and\n        /* \"@openzeppelin/contracts/token/ERC20/ERC20.sol\":10075:10080  owner */\n      dup5\n        /* \"@openzeppelin/contracts/token/ERC20/ERC20.sol\":10066:10097  Approval(owner, spender, value) */\n      0xffffffffffffffffffffffffffffffffffffffff\n      and\n      0x8c5be1e5ebec7d5bd14f71427d1e84f3dd0314c0f7b2291e5b200ac8c7c3b925\n        /* \"@openzeppelin/contracts/token/ERC20/ERC20.sol\":10091:10096  value */\n      dup5\n        /* \"@openzeppelin/contracts/token/ERC20/ERC20.sol\":10066:10097  Approval(owner, spender, value) */\n      mload(0x40)\n      tag_254\n      swap2\n      swap1\n      tag_53\n      jump\t// in\n    tag_254:\n      mload(0x40)\n      dup1\n      swap2\n      sub\n      swap1\n      log3\n        /* \"@openzeppelin/contracts/token/ERC20/ERC20.sol\":10032:10108  if (emitEvent) {... */\n    tag_253:\n        /* \"@openzeppelin/contracts/token/ERC20/ERC20.sol\":9682:10114  function _approve(address owner, address spender, uint256 value, bool emitEvent) internal virtual {... */\n      pop\n      pop\n      pop\n      pop\n      jump\t// out\n        /* \"@openzeppelin/contracts/token/ERC20/ERC20.sol\":5989:7096  function _update(address from, address to, uint256 value) internal virtual {... */\n    tag_240:\n        /* \"@openzeppelin/contracts/token/ERC20/ERC20.sol\":6094:6095  0 */\n      0x00\n        /* \"@openzeppelin/contracts/token/ERC20/ERC20.sol\":6078:6096  from == address(0) */\n      0xffffffffffffffffffffffffffffffffffffffff\n      and\n        /* \"@openzeppelin/contracts/token/ERC20/ERC20.sol\":6078:6082  from */\n      dup4\n        /* \"@openzeppelin/contracts/token/ERC20/ERC20.sol\":6078:6096  from == address(0) */\n      0xffffffffffffffffffffffffffffffffffffffff\n      and\n      sub\n        /* \"@openzeppelin/contracts/token/ERC20/ERC20.sol\":6074:6614  if (from == address(0)) {... */\n      tag_256\n      jumpi\n        /* \"@openzeppelin/contracts/token/ERC20/ERC20.sol\":6230:6235  value */\n      dup1\n        /* \"@openzeppelin/contracts/token/ERC20/ERC20.sol\":6214:6226  _totalSupply */\n      0x02\n      0x00\n        /* \"@openzeppelin/contracts/token/ERC20/ERC20.sol\":6214:6235  _totalSupply += value */\n      dup3\n      dup3\n      sload\n      tag_257\n      swap2\n      swap1\n      tag_215\n      jump\t// in\n    tag_257:\n      swap3\n      pop\n      pop\n      dup2\n      swap1\n      sstore\n      pop\n        /* \"@openzeppelin/contracts/token/ERC20/ERC20.sol\":6074:6614  if (from == address(0)) {... */\n      jump(tag_258)\n    tag_256:\n        /* \"@openzeppelin/contracts/token/ERC20/ERC20.sol\":6266:6285  uint256 fromBalance */\n      0x00\n        /* \"@openzeppelin/contracts/token/ERC20/ERC20.sol\":6288:6297  _balances */\n      dup1\n        /* \"@openzeppelin/contracts/token/ERC20/ERC20.sol\":6288:6303  _balances[from] */\n      0x00\n        /* \"@openzeppelin/contracts/token/ERC20/ERC20.sol\":6298:6302  from */\n      dup6\n        /* \"@openzeppelin/contracts/token/ERC20/ERC20.sol\":6288:6303  _balances[from] */\n      0xffffffffffffffffffffffffffffffffffffffff\n      and\n      0xffffffffffffffffffffffffffffffffffffffff\n      and\n      dup2\n      mstore\n      0x20\n      add\n      swap1\n      dup2\n      mstore\n      0x20\n      add\n      0x00\n      keccak256\n      sload\n        /* \"@openzeppelin/contracts/token/ERC20/ERC20.sol\":6266:6303  uint256 fromBalance = _balances[from] */\n      swap1\n      pop\n        /* \"@openzeppelin/contracts/token/ERC20/ERC20.sol\":6335:6340  value */\n      dup2\n        /* \"@openzeppelin/contracts/token/ERC20/ERC20.sol\":6321:6332  fromBalance */\n      dup2\n        /* \"@openzeppelin/contracts/token/ERC20/ERC20.sol\":6321:6340  fromBalance < value */\n      lt\n        /* \"@openzeppelin/contracts/token/ERC20/ERC20.sol\":6317:6432  if (fromBalance < value) {... */\n      iszero\n      tag_259\n      jumpi\n        /* \"@openzeppelin/contracts/token/ERC20/ERC20.sol\":6392:6396  from */\n      dup4\n        /* \"@openzeppelin/contracts/token/ERC20/ERC20.sol\":6398:6409  fromBalance */\n      dup2\n        /* \"@openzeppelin/contracts/token/ERC20/ERC20.sol\":6411:6416  value */\n      dup4\n        /* \"@openzeppelin/contracts/token/ERC20/ERC20.sol\":6367:6417  ERC20InsufficientBalance(from, fromBalance, value) */\n      mload(0x40)\n      0xe450d38c00000000000000000000000000000000000000000000000000000000\n      dup2\n      mstore\n      0x04\n      add\n      tag_260\n      swap4\n      swap3\n      swap2\n      swap1\n      tag_232\n      jump\t// in\n    tag_260:\n      mload(0x40)\n      dup1\n      swap2\n      sub\n      swap1\n      revert\n        /* \"@openzeppelin/contracts/token/ERC20/ERC20.sol\":6317:6432  if (fromBalance < value) {... */\n    tag_259:\n        /* \"@openzeppelin/contracts/token/ERC20/ERC20.sol\":6584:6589  value */\n      dup2\n        /* \"@openzeppelin/contracts/token/ERC20/ERC20.sol\":6570:6581  fromBalance */\n      dup2\n        /* \"@openzeppelin/contracts/token/ERC20/ERC20.sol\":6570:6589  fromBalance - value */\n      sub\n        /* \"@openzeppelin/contracts/token/ERC20/ERC20.sol\":6552:6561  _balances */\n      0x00\n        /* \"@openzeppelin/contracts/token/ERC20/ERC20.sol\":6552:6567  _balances[from] */\n      dup1\n        /* \"@openzeppelin/contracts/token/ERC20/ERC20.sol\":6562:6566  from */\n      dup7\n        /* \"@openzeppelin/contracts/token/ERC20/ERC20.sol\":6552:6567  _balances[from] */\n      0xffffffffffffffffffffffffffffffffffffffff\n      and\n      0xffffffffffffffffffffffffffffffffffffffff\n      and\n      dup2\n      mstore\n      0x20\n      add\n      swap1\n      dup2\n      mstore\n      0x20\n      add\n      0x00\n      keccak256\n        /* \"@openzeppelin/contracts/token/ERC20/ERC20.sol\":6552:6589  _balances[from] = fromBalance - value */\n      dup2\n      swap1\n      sstore\n      pop\n        /* \"@openzeppelin/contracts/token/ERC20/ERC20.sol\":6252:6614  {... */\n      pop\n        /* \"@openzeppelin/contracts/token/ERC20/ERC20.sol\":6074:6614  if (from == address(0)) {... */\n    tag_258:\n        /* \"@openzeppelin/contracts/token/ERC20/ERC20.sol\":6642:6643  0 */\n      0x00\n        /* \"@openzeppelin/contracts/token/ERC20/ERC20.sol\":6628:6644  to == address(0) */\n      0xffffffffffffffffffffffffffffffffffffffff\n      and\n        /* \"@openzeppelin/contracts/token/ERC20/ERC20.sol\":6628:6630  to */\n      dup3\n        /* \"@openzeppelin/contracts/token/ERC20/ERC20.sol\":6628:6644  to == address(0) */\n      0xffffffffffffffffffffffffffffffffffffffff\n      and\n      sub\n        /* \"@openzeppelin/contracts/token/ERC20/ERC20.sol\":6624:7049  if (to == address(0)) {... */\n      tag_261\n      jumpi\n        /* \"@openzeppelin/contracts/token/ERC20/ERC20.sol\":6807:6812  value */\n      dup1\n        /* \"@openzeppelin/contracts/token/ERC20/ERC20.sol\":6791:6803  _totalSupply */\n      0x02\n      0x00\n        /* \"@openzeppelin/contracts/token/ERC20/ERC20.sol\":6791:6812  _totalSupply -= value */\n      dup3\n      dup3\n      sload\n      sub\n      swap3\n      pop\n      pop\n      dup2\n      swap1\n      sstore\n      pop\n        /* \"@openzeppelin/contracts/token/ERC20/ERC20.sol\":6624:7049  if (to == address(0)) {... */\n      jump(tag_262)\n    tag_261:\n        /* \"@openzeppelin/contracts/token/ERC20/ERC20.sol\":7019:7024  value */\n      dup1\n        /* \"@openzeppelin/contracts/token/ERC20/ERC20.sol\":7002:7011  _balances */\n      0x00\n        /* \"@openzeppelin/contracts/token/ERC20/ERC20.sol\":7002:7015  _balances[to] */\n      dup1\n        /* \"@openzeppelin/contracts/token/ERC20/ERC20.sol\":7012:7014  to */\n      dup5\n        /* \"@openzeppelin/contracts/token/ERC20/ERC20.sol\":7002:7015  _balances[to] */\n      0xffffffffffffffffffffffffffffffffffffffff\n      and\n      0xffffffffffffffffffffffffffffffffffffffff\n      and\n      dup2\n      mstore\n      0x20\n      add\n      swap1\n      dup2\n      mstore\n      0x20\n      add\n      0x00\n      keccak256\n      0x00\n        /* \"@openzeppelin/contracts/token/ERC20/ERC20.sol\":7002:7024  _balances[to] += value */\n      dup3\n      dup3\n      sload\n      add\n      swap3\n      pop\n      pop\n      dup2\n      swap1\n      sstore\n      pop\n        /* \"@openzeppelin/contracts/token/ERC20/ERC20.sol\":6624:7049  if (to == address(0)) {... */\n    tag_262:\n        /* \"@openzeppelin/contracts/token/ERC20/ERC20.sol\":7079:7081  to */\n      dup2\n        /* \"@openzeppelin/contracts/token/ERC20/ERC20.sol\":7064:7089  Transfer(from, to, value) */\n      0xffffffffffffffffffffffffffffffffffffffff\n      and\n        /* \"@openzeppelin/contracts/token/ERC20/ERC20.sol\":7073:7077  from */\n      dup4\n        /* \"@openzeppelin/contracts/token/ERC20/ERC20.sol\":7064:7089  Transfer(from, to, value) */\n      0xffffffffffffffffffffffffffffffffffffffff\n      and\n      0xddf252ad1be2c89b69c2b068fc378daa952ba7f163c4a11628f55a4df523b3ef\n        /* \"@openzeppelin/contracts/token/ERC20/ERC20.sol\":7083:7088  value */\n      dup4\n        /* \"@openzeppelin/contracts/token/ERC20/ERC20.sol\":7064:7089  Transfer(from, to, value) */\n      mload(0x40)\n      tag_263\n      swap2\n      swap1\n      tag_53\n      jump\t// in\n    tag_263:\n      mload(0x40)\n      dup1\n      swap2\n      sub\n      swap1\n      log3\n        /* \"@openzeppelin/contracts/token/ERC20/ERC20.sol\":5989:7096  function _update(address from, address to, uint256 value) internal virtual {... */\n      pop\n      pop\n      pop\n      jump\t// out\n        /* \"#utility.yul\":7:133   */\n    tag_264:\n        /* \"#utility.yul\":44:51   */\n      0x00\n        /* \"#utility.yul\":84:126   */\n      0xffffffffffffffffffffffffffffffffffffffff\n        /* \"#utility.yul\":77:82   */\n      dup3\n        /* \"#utility.yul\":73:127   */\n      and\n        /* \"#utility.yul\":62:127   */\n      swap1\n      pop\n        /* \"#utility.yul\":7:133   */\n      swap2\n      swap1\n      pop\n      jump\t// out\n        /* \"#utility.yul\":139:235   */\n    tag_265:\n        /* \"#utility.yul\":176:183   */\n      0x00\n        /* \"#utility.yul\":205:229   */\n      tag_301\n        /* \"#utility.yul\":223:228   */\n      dup3\n        /* \"#utility.yul\":205:229   */\n      tag_264\n      jump\t// in\n    tag_301:\n        /* \"#utility.yul\":194:229   */\n      swap1\n      pop\n        /* \"#utility.yul\":139:235   */\n      swap2\n      swap1\n      pop\n      jump\t// out\n        /* \"#utility.yul\":241:359   */\n    tag_266:\n        /* \"#utility.yul\":328:352   */\n      tag_303\n        /* \"#utility.yul\":346:351   */\n      dup2\n        /* \"#utility.yul\":328:352   */\n      tag_265\n      jump\t// in\n    tag_303:\n        /* \"#utility.yul\":323:326   */\n      dup3\n        /* \"#utility.yul\":316:353   */\n      mstore\n        /* \"#utility.yul\":241:359   */\n      pop\n      pop\n      jump\t// out\n        /* \"#utility.yul\":365:587   */\n    tag_39:\n        /* \"#utility.yul\":458:462   */\n      0x00\n        /* \"#utility.yul\":496:498   */\n      0x20\n        /* \"#utility.yul\":485:494   */\n      dup3\n        /* \"#utility.yul\":481:499   */\n      add\n        /* \"#utility.yul\":473:499   */\n      swap1\n      pop\n        /* \"#utility.yul\":509:580   */\n      tag_305\n        /* \"#utility.yul\":577:578   */\n      0x00\n        /* \"#utility.yul\":566:575   */\n      dup4\n        /* \"#utility.yul\":562:579   */\n      add\n        /* \"#utility.yul\":553:559   */\n      dup5\n        /* \"#utility.yul\":509:580   */\n      tag_266\n      jump\t// in\n    tag_305:\n        /* \"#utility.yul\":365:587   */\n      swap3\n      swap2\n      pop\n      pop\n      jump\t// out\n        /* \"#utility.yul\":593:692   */\n    tag_267:\n        /* \"#utility.yul\":645:651   */\n      0x00\n        /* \"#utility.yul\":679:684   */\n      dup2\n        /* \"#utility.yul\":673:685   */\n      mload\n        /* \"#utility.yul\":663:685   */\n      swap1\n      pop\n        /* \"#utility.yul\":593:692   */\n      swap2\n      swap1\n      pop\n      jump\t// out\n        /* \"#utility.yul\":698:867   */\n    tag_268:\n        /* \"#utility.yul\":782:793   */\n      0x00\n        /* \"#utility.yul\":816:822   */\n      dup3\n        /* \"#utility.yul\":811:814   */\n      dup3\n        /* \"#utility.yul\":804:823   */\n      mstore\n        /* \"#utility.yul\":856:860   */\n      0x20\n        /* \"#utility.yul\":851:854   */\n      dup3\n        /* \"#utility.yul\":847:861   */\n      add\n        /* \"#utility.yul\":832:861   */\n      swap1\n      pop\n        /* \"#utility.yul\":698:867   */\n      swap3\n      swap2\n      pop\n      pop\n      jump\t// out\n        /* \"#utility.yul\":873:1012   */\n    tag_269:\n        /* \"#utility.yul\":962:968   */\n      dup3\n        /* \"#utility.yul\":957:960   */\n      dup2\n        /* \"#utility.yul\":952:955   */\n      dup4\n        /* \"#utility.yul\":946:969   */\n      mcopy\n        /* \"#utility.yul\":1003:1004   */\n      0x00\n        /* \"#utility.yul\":994:1000   */\n      dup4\n        /* \"#utility.yul\":989:992   */\n      dup4\n        /* \"#utility.yul\":985:1001   */\n      add\n        /* \"#utility.yul\":978:1005   */\n      mstore\n        /* \"#utility.yul\":873:1012   */\n      pop\n      pop\n      pop\n      jump\t// out\n        /* \"#utility.yul\":1018:1120   */\n    tag_270:\n        /* \"#utility.yul\":1059:1065   */\n      0x00\n        /* \"#utility.yul\":1110:1112   */\n      0x1f\n        /* \"#utility.yul\":1106:1113   */\n      not\n        /* \"#utility.yul\":1101:1103   */\n      0x1f\n        /* \"#utility.yul\":1094:1099   */\n      dup4\n        /* \"#utility.yul\":1090:1104   */\n      add\n        /* \"#utility.yul\":1086:1114   */\n      and\n        /* \"#utility.yul\":1076:1114   */\n      swap1\n      pop\n        /* \"#utility.yul\":1018:1120   */\n      swap2\n      swap1\n      pop\n      jump\t// out\n        /* \"#utility.yul\":1126:1503   */\n    tag_271:\n        /* \"#utility.yul\":1214:1217   */\n      0x00\n        /* \"#utility.yul\":1242:1281   */\n      tag_311\n        /* \"#utility.yul\":1275:1280   */\n      dup3\n        /* \"#utility.yul\":1242:1281   */\n      tag_267\n      jump\t// in\n    tag_311:\n        /* \"#utility.yul\":1297:1368   */\n      tag_312\n        /* \"#utility.yul\":1361:1367   */\n      dup2\n        /* \"#utility.yul\":1356:1359   */\n      dup6\n        /* \"#utility.yul\":1297:1368   */\n      tag_268\n      jump\t// in\n    tag_312:\n        /* \"#utility.yul\":1290:1368   */\n      swap4\n      pop\n        /* \"#utility.yul\":1377:1442   */\n      tag_313\n        /* \"#utility.yul\":1435:1441   */\n      dup2\n        /* \"#utility.yul\":1430:1433   */\n      dup6\n        /* \"#utility.yul\":1423:1427   */\n      0x20\n        /* \"#utility.yul\":1416:1421   */\n      dup7\n        /* \"#utility.yul\":1412:1428   */\n      add\n        /* \"#utility.yul\":1377:1442   */\n      tag_269\n      jump\t// in\n    tag_313:\n        /* \"#utility.yul\":1467:1496   */\n      tag_314\n        /* \"#utility.yul\":1489:1495   */\n      dup2\n        /* \"#utility.yul\":1467:1496   */\n      tag_270\n      jump\t// in\n    tag_314:\n        /* \"#utility.yul\":1462:1465   */\n      dup5\n        /* \"#utility.yul\":1458:1497   */\n      add\n        /* \"#utility.yul\":1451:1497   */\n      swap2\n      pop\n        /* \"#utility.yul\":1218:1503   */\n      pop\n        /* \"#utility.yul\":1126:1503   */\n      swap3\n      swap2\n      pop\n      pop\n      jump\t// out\n        /* \"#utility.yul\":1509:1822   */\n    tag_43:\n        /* \"#utility.yul\":1622:1626   */\n      0x00\n        /* \"#utility.yul\":1660:1662   */\n      0x20\n        /* \"#utility.yul\":1649:1658   */\n      dup3\n        /* \"#utility.yul\":1645:1663   */\n      add\n        /* \"#utility.yul\":1637:1663   */\n      swap1\n      pop\n        /* \"#utility.yul\":1709:1718   */\n      dup2\n        /* \"#utility.yul\":1703:1707   */\n      dup2\n        /* \"#utility.yul\":1699:1719   */\n      sub\n        /* \"#utility.yul\":1695:1696   */\n      0x00\n        /* \"#utility.yul\":1684:1693   */\n      dup4\n        /* \"#utility.yul\":1680:1697   */\n      add\n        /* \"#utility.yul\":1673:1720   */\n      mstore\n        /* \"#utility.yul\":1737:1815   */\n      tag_316\n        /* \"#utility.yul\":1810:1814   */\n      dup2\n        /* \"#utility.yul\":1801:1807   */\n      dup5\n        /* \"#utility.yul\":1737:1815   */\n      tag_271\n      jump\t// in\n    tag_316:\n        /* \"#utility.yul\":1729:1815   */\n      swap1\n      pop\n        /* \"#utility.yul\":1509:1822   */\n      swap3\n      swap2\n      pop\n      pop\n      jump\t// out\n        /* \"#utility.yul\":1909:2026   */\n    tag_273:\n        /* \"#utility.yul\":2018:2019   */\n      0x00\n        /* \"#utility.yul\":2015:2016   */\n      dup1\n        /* \"#utility.yul\":2008:2020   */\n      revert\n        /* \"#utility.yul\":2155:2277   */\n    tag_275:\n        /* \"#utility.yul\":2228:2252   */\n      tag_321\n        /* \"#utility.yul\":2246:2251   */\n      dup2\n        /* \"#utility.yul\":2228:2252   */\n      tag_265\n      jump\t// in\n    tag_321:\n        /* \"#utility.yul\":2221:2226   */\n      dup2\n        /* \"#utility.yul\":2218:2253   */\n      eq\n        /* \"#utility.yul\":2208:2271   */\n      tag_322\n      jumpi\n        /* \"#utility.yul\":2267:2268   */\n      0x00\n        /* \"#utility.yul\":2264:2265   */\n      dup1\n        /* \"#utility.yul\":2257:2269   */\n      revert\n        /* \"#utility.yul\":2208:2271   */\n    tag_322:\n        /* \"#utility.yul\":2155:2277   */\n      pop\n      jump\t// out\n        /* \"#utility.yul\":2283:2422   */\n    tag_276:\n        /* \"#utility.yul\":2329:2334   */\n      0x00\n        /* \"#utility.yul\":2367:2373   */\n      dup2\n        /* \"#utility.yul\":2354:2374   */\n      calldataload\n        /* \"#utility.yul\":2345:2374   */\n      swap1\n      pop\n        /* \"#utility.yul\":2383:2416   */\n      tag_324\n        /* \"#utility.yul\":2410:2415   */\n      dup2\n        /* \"#utility.yul\":2383:2416   */\n      tag_275\n      jump\t// in\n    tag_324:\n        /* \"#utility.yul\":2283:2422   */\n      swap3\n      swap2\n      pop\n      pop\n      jump\t// out\n        /* \"#utility.yul\":2428:2505   */\n    tag_277:\n        /* \"#utility.yul\":2465:2472   */\n      0x00\n        /* \"#utility.yul\":2494:2499   */\n      dup2\n        /* \"#utility.yul\":2483:2499   */\n      swap1\n      pop\n        /* \"#utility.yul\":2428:2505   */\n      swap2\n      swap1\n      pop\n      jump\t// out\n        /* \"#utility.yul\":2511:2633   */\n    tag_278:\n        /* \"#utility.yul\":2584:2608   */\n      tag_327\n        /* \"#utility.yul\":2602:2607   */\n      dup2\n        /* \"#utility.yul\":2584:2608   */\n      tag_277\n      jump\t// in\n    tag_327:\n        /* \"#utility.yul\":2577:2582   */\n      dup2\n        /* \"#utility.yul\":2574:2609   */\n      eq\n        /* \"#utility.yul\":2564:2627   */\n      tag_328\n      jumpi\n        /* \"#utility.yul\":2623:2624   */\n      0x00\n        /* \"#utility.yul\":2620:2621   */\n      dup1\n        /* \"#utility.yul\":2613:2625   */\n      revert\n        /* \"#utility.yul\":2564:2627   */\n    tag_328:\n        /* \"#utility.yul\":2511:2633   */\n      pop\n      jump\t// out\n        /* \"#utility.yul\":2639:2778   */\n    tag_279:\n        /* \"#utility.yul\":2685:2690   */\n      0x00\n        /* \"#utility.yul\":2723:2729   */\n      dup2\n        /* \"#utility.yul\":2710:2730   */\n      calldataload\n        /* \"#utility.yul\":2701:2730   */\n      swap1\n      pop\n        /* \"#utility.yul\":2739:2772   */\n      tag_330\n        /* \"#utility.yul\":2766:2771   */\n      dup2\n        /* \"#utility.yul\":2739:2772   */\n      tag_278\n      jump\t// in\n    tag_330:\n        /* \"#utility.yul\":2639:2778   */\n      swap3\n      swap2\n      pop\n      pop\n      jump\t// out\n        /* \"#utility.yul\":2784:3258   */\n    tag_46:\n        /* \"#utility.yul\":2852:2858   */\n      0x00\n        /* \"#utility.yul\":2860:2866   */\n      dup1\n        /* \"#utility.yul\":2909:2911   */\n      0x40\n        /* \"#utility.yul\":2897:2906   */\n      dup4\n        /* \"#utility.yul\":2888:2895   */\n      dup6\n        /* \"#utility.yul\":2884:2907   */\n      sub\n        /* \"#utility.yul\":2880:2912   */\n      slt\n        /* \"#utility.yul\":2877:2996   */\n      iszero\n      tag_332\n      jumpi\n        /* \"#utility.yul\":2915:2994   */\n      tag_333\n      tag_273\n      jump\t// in\n    tag_333:\n        /* \"#utility.yul\":2877:2996   */\n    tag_332:\n        /* \"#utility.yul\":3035:3036   */\n      0x00\n        /* \"#utility.yul\":3060:3113   */\n      tag_334\n        /* \"#utility.yul\":3105:3112   */\n      dup6\n        /* \"#utility.yul\":3096:3102   */\n      dup3\n        /* \"#utility.yul\":3085:3094   */\n      dup7\n        /* \"#utility.yul\":3081:3103   */\n      add\n        /* \"#utility.yul\":3060:3113   */\n      tag_276\n      jump\t// in\n    tag_334:\n        /* \"#utility.yul\":3050:3113   */\n      swap3\n      pop\n        /* \"#utility.yul\":3006:3123   */\n      pop\n        /* \"#utility.yul\":3162:3164   */\n      0x20\n        /* \"#utility.yul\":3188:3241   */\n      tag_335\n        /* \"#utility.yul\":3233:3240   */\n      dup6\n        /* \"#utility.yul\":3224:3230   */\n      dup3\n        /* \"#utility.yul\":3213:3222   */\n      dup7\n        /* \"#utility.yul\":3209:3231   */\n      add\n        /* \"#utility.yul\":3188:3241   */\n      tag_279\n      jump\t// in\n    tag_335:\n        /* \"#utility.yul\":3178:3241   */\n      swap2\n      pop\n        /* \"#utility.yul\":3133:3251   */\n      pop\n        /* \"#utility.yul\":2784:3258   */\n      swap3\n      pop\n      swap3\n      swap1\n      pop\n      jump\t// out\n        /* \"#utility.yul\":3264:3354   */\n    tag_280:\n        /* \"#utility.yul\":3298:3305   */\n      0x00\n        /* \"#utility.yul\":3341:3346   */\n      dup2\n        /* \"#utility.yul\":3334:3347   */\n      iszero\n        /* \"#utility.yul\":3327:3348   */\n      iszero\n        /* \"#utility.yul\":3316:3348   */\n      swap1\n      pop\n        /* \"#utility.yul\":3264:3354   */\n      swap2\n      swap1\n      pop\n      jump\t// out\n        /* \"#utility.yul\":3360:3469   */\n    tag_281:\n        /* \"#utility.yul\":3441:3462   */\n      tag_338\n        /* \"#utility.yul\":3456:3461   */\n      dup2\n        /* \"#utility.yul\":3441:3462   */\n      tag_280\n      jump\t// in\n    tag_338:\n        /* \"#utility.yul\":3436:3439   */\n      dup3\n        /* \"#utility.yul\":3429:3463   */\n      mstore\n        /* \"#utility.yul\":3360:3469   */\n      pop\n      pop\n      jump\t// out\n        /* \"#utility.yul\":3475:3685   */\n    tag_49:\n        /* \"#utility.yul\":3562:3566   */\n      0x00\n        /* \"#utility.yul\":3600:3602   */\n      0x20\n        /* \"#utility.yul\":3589:3598   */\n      dup3\n        /* \"#utility.yul\":3585:3603   */\n      add\n        /* \"#utility.yul\":3577:3603   */\n      swap1\n      pop\n        /* \"#utility.yul\":3613:3678   */\n      tag_340\n        /* \"#utility.yul\":3675:3676   */\n      0x00\n        /* \"#utility.yul\":3664:3673   */\n      dup4\n        /* \"#utility.yul\":3660:3677   */\n      add\n        /* \"#utility.yul\":3651:3657   */\n      dup5\n        /* \"#utility.yul\":3613:3678   */\n      tag_281\n      jump\t// in\n    tag_340:\n        /* \"#utility.yul\":3475:3685   */\n      swap3\n      swap2\n      pop\n      pop\n      jump\t// out\n        /* \"#utility.yul\":3691:3809   */\n    tag_282:\n        /* \"#utility.yul\":3778:3802   */\n      tag_342\n        /* \"#utility.yul\":3796:3801   */\n      dup2\n        /* \"#utility.yul\":3778:3802   */\n      tag_277\n      jump\t// in\n    tag_342:\n        /* \"#utility.yul\":3773:3776   */\n      dup3\n        /* \"#utility.yul\":3766:3803   */\n      mstore\n        /* \"#utility.yul\":3691:3809   */\n      pop\n      pop\n      jump\t// out\n        /* \"#utility.yul\":3815:4037   */\n    tag_53:\n        /* \"#utility.yul\":3908:3912   */\n      0x00\n        /* \"#utility.yul\":3946:3948   */\n      0x20\n        /* \"#utility.yul\":3935:3944   */\n      dup3\n        /* \"#utility.yul\":3931:3949   */\n      add\n        /* \"#utility.yul\":3923:3949   */\n      swap1\n      pop\n        /* \"#utility.yul\":3959:4030   */\n      tag_344\n        /* \"#utility.yul\":4027:4028   */\n      0x00\n        /* \"#utility.yul\":4016:4025   */\n      dup4\n        /* \"#utility.yul\":4012:4029   */\n      add\n        /* \"#utility.yul\":4003:4009   */\n      dup5\n        /* \"#utility.yul\":3959:4030   */\n      tag_282\n      jump\t// in\n    tag_344:\n        /* \"#utility.yul\":3815:4037   */\n      swap3\n      swap2\n      pop\n      pop\n      jump\t// out\n        /* \"#utility.yul\":4043:4662   */\n    tag_56:\n        /* \"#utility.yul\":4120:4126   */\n      0x00\n        /* \"#utility.yul\":4128:4134   */\n      dup1\n        /* \"#utility.yul\":4136:4142   */\n      0x00\n        /* \"#utility.yul\":4185:4187   */\n      0x60\n        /* \"#utility.yul\":4173:4182   */\n      dup5\n        /* \"#utility.yul\":4164:4171   */\n      dup7\n        /* \"#utility.yul\":4160:4183   */\n      sub\n        /* \"#utility.yul\":4156:4188   */\n      slt\n        /* \"#utility.yul\":4153:4272   */\n      iszero\n      tag_346\n      jumpi\n        /* \"#utility.yul\":4191:4270   */\n      tag_347\n      tag_273\n      jump\t// in\n    tag_347:\n        /* \"#utility.yul\":4153:4272   */\n    tag_346:\n        /* \"#utility.yul\":4311:4312   */\n      0x00\n        /* \"#utility.yul\":4336:4389   */\n      tag_348\n        /* \"#utility.yul\":4381:4388   */\n      dup7\n        /* \"#utility.yul\":4372:4378   */\n      dup3\n        /* \"#utility.yul\":4361:4370   */\n      dup8\n        /* \"#utility.yul\":4357:4379   */\n      add\n        /* \"#utility.yul\":4336:4389   */\n      tag_276\n      jump\t// in\n    tag_348:\n        /* \"#utility.yul\":4326:4389   */\n      swap4\n      pop\n        /* \"#utility.yul\":4282:4399   */\n      pop\n        /* \"#utility.yul\":4438:4440   */\n      0x20\n        /* \"#utility.yul\":4464:4517   */\n      tag_349\n        /* \"#utility.yul\":4509:4516   */\n      dup7\n        /* \"#utility.yul\":4500:4506   */\n      dup3\n        /* \"#utility.yul\":4489:4498   */\n      dup8\n        /* \"#utility.yul\":4485:4507   */\n      add\n        /* \"#utility.yul\":4464:4517   */\n      tag_276\n      jump\t// in\n    tag_349:\n        /* \"#utility.yul\":4454:4517   */\n      swap3\n      pop\n        /* \"#utility.yul\":4409:4527   */\n      pop\n        /* \"#utility.yul\":4566:4568   */\n      0x40\n        /* \"#utility.yul\":4592:4645   */\n      tag_350\n        /* \"#utility.yul\":4637:4644   */\n      dup7\n        /* \"#utility.yul\":4628:4634   */\n      dup3\n        /* \"#utility.yul\":4617:4626   */\n      dup8\n        /* \"#utility.yul\":4613:4635   */\n      add\n        /* \"#utility.yul\":4592:4645   */\n      tag_279\n      jump\t// in\n    tag_350:\n        /* \"#utility.yul\":4582:4645   */\n      swap2\n      pop\n        /* \"#utility.yul\":4537:4655   */\n      pop\n        /* \"#utility.yul\":4043:4662   */\n      swap3\n      pop\n      swap3\n      pop\n      swap3\n      jump\t// out\n        /* \"#utility.yul\":4668:4754   */\n    tag_283:\n        /* \"#utility.yul\":4703:4710   */\n      0x00\n        /* \"#utility.yul\":4743:4747   */\n      0xff\n        /* \"#utility.yul\":4736:4741   */\n      dup3\n        /* \"#utility.yul\":4732:4748   */\n      and\n        /* \"#utility.yul\":4721:4748   */\n      swap1\n      pop\n        /* \"#utility.yul\":4668:4754   */\n      swap2\n      swap1\n      pop\n      jump\t// out\n        /* \"#utility.yul\":4760:4872   */\n    tag_284:\n        /* \"#utility.yul\":4843:4865   */\n      tag_353\n        /* \"#utility.yul\":4859:4864   */\n      dup2\n        /* \"#utility.yul\":4843:4865   */\n      tag_283\n      jump\t// in\n    tag_353:\n        /* \"#utility.yul\":4838:4841   */\n      dup3\n        /* \"#utility.yul\":4831:4866   */\n      mstore\n        /* \"#utility.yul\":4760:4872   */\n      pop\n      pop\n      jump\t// out\n        /* \"#utility.yul\":4878:5092   */\n    tag_68:\n        /* \"#utility.yul\":4967:4971   */\n      0x00\n        /* \"#utility.yul\":5005:5007   */\n      0x20\n        /* \"#utility.yul\":4994:5003   */\n      dup3\n        /* \"#utility.yul\":4990:5008   */\n      add\n        /* \"#utility.yul\":4982:5008   */\n      swap1\n      pop\n        /* \"#utility.yul\":5018:5085   */\n      tag_355\n        /* \"#utility.yul\":5082:5083   */\n      0x00\n        /* \"#utility.yul\":5071:5080   */\n      dup4\n        /* \"#utility.yul\":5067:5084   */\n      add\n        /* \"#utility.yul\":5058:5064   */\n      dup5\n        /* \"#utility.yul\":5018:5085   */\n      tag_284\n      jump\t// in\n    tag_355:\n        /* \"#utility.yul\":4878:5092   */\n      swap3\n      swap2\n      pop\n      pop\n      jump\t// out\n        /* \"#utility.yul\":5098:5427   */\n    tag_71:\n        /* \"#utility.yul\":5157:5163   */\n      0x00\n        /* \"#utility.yul\":5206:5208   */\n      0x20\n        /* \"#utility.yul\":5194:5203   */\n      dup3\n        /* \"#utility.yul\":5185:5192   */\n      dup5\n        /* \"#utility.yul\":5181:5204   */\n      sub\n        /* \"#utility.yul\":5177:5209   */\n      slt\n        /* \"#utility.yul\":5174:5293   */\n      iszero\n      tag_357\n      jumpi\n        /* \"#utility.yul\":5212:5291   */\n      tag_358\n      tag_273\n      jump\t// in\n    tag_358:\n        /* \"#utility.yul\":5174:5293   */\n    tag_357:\n        /* \"#utility.yul\":5332:5333   */\n      0x00\n        /* \"#utility.yul\":5357:5410   */\n      tag_359\n        /* \"#utility.yul\":5402:5409   */\n      dup5\n        /* \"#utility.yul\":5393:5399   */\n      dup3\n        /* \"#utility.yul\":5382:5391   */\n      dup6\n        /* \"#utility.yul\":5378:5400   */\n      add\n        /* \"#utility.yul\":5357:5410   */\n      tag_276\n      jump\t// in\n    tag_359:\n        /* \"#utility.yul\":5347:5410   */\n      swap2\n      pop\n        /* \"#utility.yul\":5303:5420   */\n      pop\n        /* \"#utility.yul\":5098:5427   */\n      swap3\n      swap2\n      pop\n      pop\n      jump\t// out\n        /* \"#utility.yul\":5433:5907   */\n    tag_118:\n        /* \"#utility.yul\":5501:5507   */\n      0x00\n        /* \"#utility.yul\":5509:5515   */\n      dup1\n        /* \"#utility.yul\":5558:5560   */\n      0x40\n        /* \"#utility.yul\":5546:5555   */\n      dup4\n        /* \"#utility.yul\":5537:5544   */\n      dup6\n        /* \"#utility.yul\":5533:5556   */\n      sub\n        /* \"#utility.yul\":5529:5561   */\n      slt\n        /* \"#utility.yul\":5526:5645   */\n      iszero\n      tag_361\n      jumpi\n        /* \"#utility.yul\":5564:5643   */\n      tag_362\n      tag_273\n      jump\t// in\n    tag_362:\n        /* \"#utility.yul\":5526:5645   */\n    tag_361:\n        /* \"#utility.yul\":5684:5685   */\n      0x00\n        /* \"#utility.yul\":5709:5762   */\n      tag_363\n        /* \"#utility.yul\":5754:5761   */\n      dup6\n        /* \"#utility.yul\":5745:5751   */\n      dup3\n        /* \"#utility.yul\":5734:5743   */\n      dup7\n        /* \"#utility.yul\":5730:5752   */\n      add\n        /* \"#utility.yul\":5709:5762   */\n      tag_276\n      jump\t// in\n    tag_363:\n        /* \"#utility.yul\":5699:5762   */\n      swap3\n      pop\n        /* \"#utility.yul\":5655:5772   */\n      pop\n        /* \"#utility.yul\":5811:5813   */\n      0x20\n        /* \"#utility.yul\":5837:5890   */\n      tag_364\n        /* \"#utility.yul\":5882:5889   */\n      dup6\n        /* \"#utility.yul\":5873:5879   */\n      dup3\n        /* \"#utility.yul\":5862:5871   */\n      dup7\n        /* \"#utility.yul\":5858:5880   */\n      add\n        /* \"#utility.yul\":5837:5890   */\n      tag_276\n      jump\t// in\n    tag_364:\n        /* \"#utility.yul\":5827:5890   */\n      swap2\n      pop\n        /* \"#utility.yul\":5782:5900   */\n      pop\n        /* \"#utility.yul\":5433:5907   */\n      swap3\n      pop\n      swap3\n      swap1\n      pop\n      jump\t// out\n        /* \"#utility.yul\":5913:6093   */\n    tag_285:\n        /* \"#utility.yul\":5961:6038   */\n      0x4e487b7100000000000000000000000000000000000000000000000000000000\n        /* \"#utility.yul\":5958:5959   */\n      0x00\n        /* \"#utility.yul\":5951:6039   */\n      mstore\n        /* \"#utility.yul\":6058:6062   */\n      0x22\n        /* \"#utility.yul\":6055:6056   */\n      0x04\n        /* \"#utility.yul\":6048:6063   */\n      mstore\n        /* \"#utility.yul\":6082:6086   */\n      0x24\n        /* \"#utility.yul\":6079:6080   */\n      0x00\n        /* \"#utility.yul\":6072:6087   */\n      revert\n        /* \"#utility.yul\":6099:6419   */\n    tag_133:\n        /* \"#utility.yul\":6143:6149   */\n      0x00\n        /* \"#utility.yul\":6180:6181   */\n      0x02\n        /* \"#utility.yul\":6174:6178   */\n      dup3\n        /* \"#utility.yul\":6170:6182   */\n      div\n        /* \"#utility.yul\":6160:6182   */\n      swap1\n      pop\n        /* \"#utility.yul\":6227:6228   */\n      0x01\n        /* \"#utility.yul\":6221:6225   */\n      dup3\n        /* \"#utility.yul\":6217:6229   */\n      and\n        /* \"#utility.yul\":6248:6266   */\n      dup1\n        /* \"#utility.yul\":6238:6319   */\n      tag_367\n      jumpi\n        /* \"#utility.yul\":6304:6308   */\n      0x7f\n        /* \"#utility.yul\":6296:6302   */\n      dup3\n        /* \"#utility.yul\":6292:6309   */\n      and\n        /* \"#utility.yul\":6282:6309   */\n      swap2\n      pop\n        /* \"#utility.yul\":6238:6319   */\n    tag_367:\n        /* \"#utility.yul\":6366:6368   */\n      0x20\n        /* \"#utility.yul\":6358:6364   */\n      dup3\n        /* \"#utility.yul\":6355:6369   */\n      lt\n        /* \"#utility.yul\":6335:6353   */\n      dup2\n        /* \"#utility.yul\":6332:6370   */\n      sub\n        /* \"#utility.yul\":6329:6413   */\n      tag_368\n      jumpi\n        /* \"#utility.yul\":6385:6403   */\n      tag_369\n      tag_285\n      jump\t// in\n    tag_369:\n        /* \"#utility.yul\":6329:6413   */\n    tag_368:\n        /* \"#utility.yul\":6150:6419   */\n      pop\n        /* \"#utility.yul\":6099:6419   */\n      swap2\n      swap1\n      pop\n      jump\t// out\n        /* \"#utility.yul\":6425:6605   */\n    tag_286:\n        /* \"#utility.yul\":6473:6550   */\n      0x4e487b7100000000000000000000000000000000000000000000000000000000\n        /* \"#utility.yul\":6470:6471   */\n      0x00\n        /* \"#utility.yul\":6463:6551   */\n      mstore\n        /* \"#utility.yul\":6570:6574   */\n      0x11\n        /* \"#utility.yul\":6567:6568   */\n      0x04\n        /* \"#utility.yul\":6560:6575   */\n      mstore\n        /* \"#utility.yul\":6594:6598   */\n      0x24\n        /* \"#utility.yul\":6591:6592   */\n      0x00\n        /* \"#utility.yul\":6584:6599   */\n      revert\n        /* \"#utility.yul\":6611:6805   */\n    tag_154:\n        /* \"#utility.yul\":6651:6655   */\n      0x00\n        /* \"#utility.yul\":6671:6691   */\n      tag_372\n        /* \"#utility.yul\":6689:6690   */\n      dup3\n        /* \"#utility.yul\":6671:6691   */\n      tag_277\n      jump\t// in\n    tag_372:\n        /* \"#utility.yul\":6666:6691   */\n      swap2\n      pop\n        /* \"#utility.yul\":6705:6725   */\n      tag_373\n        /* \"#utility.yul\":6723:6724   */\n      dup4\n        /* \"#utility.yul\":6705:6725   */\n      tag_277\n      jump\t// in\n    tag_373:\n        /* \"#utility.yul\":6700:6725   */\n      swap3\n      pop\n        /* \"#utility.yul\":6749:6750   */\n      dup3\n        /* \"#utility.yul\":6746:6747   */\n      dup3\n        /* \"#utility.yul\":6742:6751   */\n      sub\n        /* \"#utility.yul\":6734:6751   */\n      swap1\n      pop\n        /* \"#utility.yul\":6773:6774   */\n      dup2\n        /* \"#utility.yul\":6767:6771   */\n      dup2\n        /* \"#utility.yul\":6764:6775   */\n      gt\n        /* \"#utility.yul\":6761:6798   */\n      iszero\n      tag_374\n      jumpi\n        /* \"#utility.yul\":6778:6796   */\n      tag_375\n      tag_286\n      jump\t// in\n    tag_375:\n        /* \"#utility.yul\":6761:6798   */\n    tag_374:\n        /* \"#utility.yul\":6611:6805   */\n      swap3\n      swap2\n      pop\n      pop\n      jump\t// out\n        /* \"#utility.yul\":6811:7221   */\n    tag_159:\n        /* \"#utility.yul\":6851:6858   */\n      0x00\n        /* \"#utility.yul\":6874:6894   */\n      tag_377\n        /* \"#utility.yul\":6892:6893   */\n      dup3\n        /* \"#utility.yul\":6874:6894   */\n      tag_277\n      jump\t// in\n    tag_377:\n        /* \"#utility.yul\":6869:6894   */\n      swap2\n      pop\n        /* \"#utility.yul\":6908:6928   */\n      tag_378\n        /* \"#utility.yul\":6926:6927   */\n      dup4\n        /* \"#utility.yul\":6908:6928   */\n      tag_277\n      jump\t// in\n    tag_378:\n        /* \"#utility.yul\":6903:6928   */\n      swap3\n      pop\n        /* \"#utility.yul\":6963:6964   */\n      dup3\n        /* \"#utility.yul\":6960:6961   */\n      dup3\n        /* \"#utility.yul\":6956:6965   */\n      mul\n        /* \"#utility.yul\":6985:7015   */\n      tag_379\n        /* \"#utility.yul\":7003:7014   */\n      dup2\n        /* \"#utility.yul\":6985:7015   */\n      tag_277\n      jump\t// in\n    tag_379:\n        /* \"#utility.yul\":6974:7015   */\n      swap2\n      pop\n        /* \"#utility.yul\":7164:7165   */\n      dup3\n        /* \"#utility.yul\":7155:7162   */\n      dup3\n        /* \"#utility.yul\":7151:7166   */\n      div\n        /* \"#utility.yul\":7148:7149   */\n      dup5\n        /* \"#utility.yul\":7145:7167   */\n      eq\n        /* \"#utility.yul\":7125:7126   */\n      dup4\n        /* \"#utility.yul\":7118:7127   */\n      iszero\n        /* \"#utility.yul\":7098:7181   */\n      or\n        /* \"#utility.yul\":7075:7214   */\n      tag_380\n      jumpi\n        /* \"#utility.yul\":7194:7212   */\n      tag_381\n      tag_286\n      jump\t// in\n    tag_381:\n        /* \"#utility.yul\":7075:7214   */\n    tag_380:\n        /* \"#utility.yul\":6859:7221   */\n      pop\n        /* \"#utility.yul\":6811:7221   */\n      swap3\n      swap2\n      pop\n      pop\n      jump\t// out\n        /* \"#utility.yul\":7227:7407   */\n    tag_287:\n        /* \"#utility.yul\":7275:7352   */\n      0x4e487b7100000000000000000000000000000000000000000000000000000000\n        /* \"#utility.yul\":7272:7273   */\n      0x00\n        /* \"#utility.yul\":7265:7353   */\n      mstore\n        /* \"#utility.yul\":7372:7376   */\n      0x12\n        /* \"#utility.yul\":7369:7370   */\n      0x04\n        /* \"#utility.yul\":7362:7377   */\n      mstore\n        /* \"#utility.yul\":7396:7400   */\n      0x24\n        /* \"#utility.yul\":7393:7394   */\n      0x00\n        /* \"#utility.yul\":7386:7401   */\n      revert\n        /* \"#utility.yul\":7413:7598   */\n    tag_161:\n        /* \"#utility.yul\":7453:7454   */\n      0x00\n        /* \"#utility.yul\":7470:7490   */\n      tag_384\n        /* \"#utility.yul\":7488:7489   */\n      dup3\n        /* \"#utility.yul\":7470:7490   */\n      tag_277\n      jump\t// in\n    tag_384:\n        /* \"#utility.yul\":7465:7490   */\n      swap2\n      pop\n        /* \"#utility.yul\":7504:7524   */\n      tag_385\n        /* \"#utility.yul\":7522:7523   */\n      dup4\n        /* \"#utility.yul\":7504:7524   */\n      tag_277\n      jump\t// in\n    tag_385:\n        /* \"#utility.yul\":7499:7524   */\n      swap3\n      pop\n        /* \"#utility.yul\":7543:7544   */\n      dup3\n        /* \"#utility.yul\":7533:7568   */\n      tag_386\n      jumpi\n        /* \"#utility.yul\":7548:7566   */\n      tag_387\n      tag_287\n      jump\t// in\n    tag_387:\n        /* \"#utility.yul\":7533:7568   */\n    tag_386:\n        /* \"#utility.yul\":7590:7591   */\n      dup3\n        /* \"#utility.yul\":7587:7588   */\n      dup3\n        /* \"#utility.yul\":7583:7592   */\n      div\n        /* \"#utility.yul\":7578:7592   */\n      swap1\n      pop\n        /* \"#utility.yul\":7413:7598   */\n      swap3\n      swap2\n      pop\n      pop\n      jump\t// out\n        /* \"#utility.yul\":7604:7777   */\n    tag_288:\n        /* \"#utility.yul\":7744:7769   */\n      0x56657374696e6720616c72656164792073746172746564000000000000000000\n        /* \"#utility.yul\":7740:7741   */\n      0x00\n        /* \"#utility.yul\":7732:7738   */\n      dup3\n        /* \"#utility.yul\":7728:7742   */\n      add\n        /* \"#utility.yul\":7721:7770   */\n      mstore\n        /* \"#utility.yul\":7604:7777   */\n      pop\n      jump\t// out\n        /* \"#utility.yul\":7783:8149   */\n    tag_289:\n        /* \"#utility.yul\":7925:7928   */\n      0x00\n        /* \"#utility.yul\":7946:8013   */\n      tag_390\n        /* \"#utility.yul\":8010:8012   */\n      0x17\n        /* \"#utility.yul\":8005:8008   */\n      dup4\n        /* \"#utility.yul\":7946:8013   */\n      tag_268\n      jump\t// in\n    tag_390:\n        /* \"#utility.yul\":7939:8013   */\n      swap2\n      pop\n        /* \"#utility.yul\":8022:8115   */\n      tag_391\n        /* \"#utility.yul\":8111:8114   */\n      dup3\n        /* \"#utility.yul\":8022:8115   */\n      tag_288\n      jump\t// in\n    tag_391:\n        /* \"#utility.yul\":8140:8142   */\n      0x20\n        /* \"#utility.yul\":8135:8138   */\n      dup3\n        /* \"#utility.yul\":8131:8143   */\n      add\n        /* \"#utility.yul\":8124:8143   */\n      swap1\n      pop\n        /* \"#utility.yul\":7783:8149   */\n      swap2\n      swap1\n      pop\n      jump\t// out\n        /* \"#utility.yul\":8155:8574   */\n    tag_196:\n        /* \"#utility.yul\":8321:8325   */\n      0x00\n        /* \"#utility.yul\":8359:8361   */\n      0x20\n        /* \"#utility.yul\":8348:8357   */\n      dup3\n        /* \"#utility.yul\":8344:8362   */\n      add\n        /* \"#utility.yul\":8336:8362   */\n      swap1\n      pop\n        /* \"#utility.yul\":8408:8417   */\n      dup2\n        /* \"#utility.yul\":8402:8406   */\n      dup2\n        /* \"#utility.yul\":8398:8418   */\n      sub\n        /* \"#utility.yul\":8394:8395   */\n      0x00\n        /* \"#utility.yul\":8383:8392   */\n      dup4\n        /* \"#utility.yul\":8379:8396   */\n      add\n        /* \"#utility.yul\":8372:8419   */\n      mstore\n        /* \"#utility.yul\":8436:8567   */\n      tag_393\n        /* \"#utility.yul\":8562:8566   */\n      dup2\n        /* \"#utility.yul\":8436:8567   */\n      tag_289\n      jump\t// in\n    tag_393:\n        /* \"#utility.yul\":8428:8567   */\n      swap1\n      pop\n        /* \"#utility.yul\":8155:8574   */\n      swap2\n      swap1\n      pop\n      jump\t// out\n        /* \"#utility.yul\":8580:8747   */\n    tag_290:\n        /* \"#utility.yul\":8720:8739   */\n      0x4e6f742061207465616d206d656d626572000000000000000000000000000000\n        /* \"#utility.yul\":8716:8717   */\n      0x00\n        /* \"#utility.yul\":8708:8714   */\n      dup3\n        /* \"#utility.yul\":8704:8718   */\n      add\n        /* \"#utility.yul\":8697:8740   */\n      mstore\n        /* \"#utility.yul\":8580:8747   */\n      pop\n      jump\t// out\n        /* \"#utility.yul\":8753:9119   */\n    tag_291:\n        /* \"#utility.yul\":8895:8898   */\n      0x00\n        /* \"#utility.yul\":8916:8983   */\n      tag_396\n        /* \"#utility.yul\":8980:8982   */\n      0x11\n        /* \"#utility.yul\":8975:8978   */\n      dup4\n        /* \"#utility.yul\":8916:8983   */\n      tag_268\n      jump\t// in\n    tag_396:\n        /* \"#utility.yul\":8909:8983   */\n      swap2\n      pop\n        /* \"#utility.yul\":8992:9085   */\n      tag_397\n        /* \"#utility.yul\":9081:9084   */\n      dup3\n        /* \"#utility.yul\":8992:9085   */\n      tag_290\n      jump\t// in\n    tag_397:\n        /* \"#utility.yul\":9110:9112   */\n      0x20\n        /* \"#utility.yul\":9105:9108   */\n      dup3\n        /* \"#utility.yul\":9101:9113   */\n      add\n        /* \"#utility.yul\":9094:9113   */\n      swap1\n      pop\n        /* \"#utility.yul\":8753:9119   */\n      swap2\n      swap1\n      pop\n      jump\t// out\n        /* \"#utility.yul\":9125:9544   */\n    tag_202:\n        /* \"#utility.yul\":9291:9295   */\n      0x00\n        /* \"#utility.yul\":9329:9331   */\n      0x20\n        /* \"#utility.yul\":9318:9327   */\n      dup3\n        /* \"#utility.yul\":9314:9332   */\n      add\n        /* \"#utility.yul\":9306:9332   */\n      swap1\n      pop\n        /* \"#utility.yul\":9378:9387   */\n      dup2\n        /* \"#utility.yul\":9372:9376   */\n      dup2\n        /* \"#utility.yul\":9368:9388   */\n      sub\n        /* \"#utility.yul\":9364:9365   */\n      0x00\n        /* \"#utility.yul\":9353:9362   */\n      dup4\n        /* \"#utility.yul\":9349:9366   */\n      add\n        /* \"#utility.yul\":9342:9389   */\n      mstore\n        /* \"#utility.yul\":9406:9537   */\n      tag_399\n        /* \"#utility.yul\":9532:9536   */\n      dup2\n        /* \"#utility.yul\":9406:9537   */\n      tag_291\n      jump\t// in\n    tag_399:\n        /* \"#utility.yul\":9398:9537   */\n      swap1\n      pop\n        /* \"#utility.yul\":9125:9544   */\n      swap2\n      swap1\n      pop\n      jump\t// out\n        /* \"#utility.yul\":9550:9717   */\n    tag_292:\n        /* \"#utility.yul\":9690:9709   */\n      0x50726573616c65206e6f7420656e646564000000000000000000000000000000\n        /* \"#utility.yul\":9686:9687   */\n      0x00\n        /* \"#utility.yul\":9678:9684   */\n      dup3\n        /* \"#utility.yul\":9674:9688   */\n      add\n        /* \"#utility.yul\":9667:9710   */\n      mstore\n        /* \"#utility.yul\":9550:9717   */\n      pop\n      jump\t// out\n        /* \"#utility.yul\":9723:10089   */\n    tag_293:\n        /* \"#utility.yul\":9865:9868   */\n      0x00\n        /* \"#utility.yul\":9886:9953   */\n      tag_402\n        /* \"#utility.yul\":9950:9952   */\n      0x11\n        /* \"#utility.yul\":9945:9948   */\n      dup4\n        /* \"#utility.yul\":9886:9953   */\n      tag_268\n      jump\t// in\n    tag_402:\n        /* \"#utility.yul\":9879:9953   */\n      swap2\n      pop\n        /* \"#utility.yul\":9962:10055   */\n      tag_403\n        /* \"#utility.yul\":10051:10054   */\n      dup3\n        /* \"#utility.yul\":9962:10055   */\n      tag_292\n      jump\t// in\n    tag_403:\n        /* \"#utility.yul\":10080:10082   */\n      0x20\n        /* \"#utility.yul\":10075:10078   */\n      dup3\n        /* \"#utility.yul\":10071:10083   */\n      add\n        /* \"#utility.yul\":10064:10083   */\n      swap1\n      pop\n        /* \"#utility.yul\":9723:10089   */\n      swap2\n      swap1\n      pop\n      jump\t// out\n        /* \"#utility.yul\":10095:10514   */\n    tag_206:\n        /* \"#utility.yul\":10261:10265   */\n      0x00\n        /* \"#utility.yul\":10299:10301   */\n      0x20\n        /* \"#utility.yul\":10288:10297   */\n      dup3\n        /* \"#utility.yul\":10284:10302   */\n      add\n        /* \"#utility.yul\":10276:10302   */\n      swap1\n      pop\n        /* \"#utility.yul\":10348:10357   */\n      dup2\n        /* \"#utility.yul\":10342:10346   */\n      dup2\n        /* \"#utility.yul\":10338:10358   */\n      sub\n        /* \"#utility.yul\":10334:10335   */\n      0x00\n        /* \"#utility.yul\":10323:10332   */\n      dup4\n        /* \"#utility.yul\":10319:10336   */\n      add\n        /* \"#utility.yul\":10312:10359   */\n      mstore\n        /* \"#utility.yul\":10376:10507   */\n      tag_405\n        /* \"#utility.yul\":10502:10506   */\n      dup2\n        /* \"#utility.yul\":10376:10507   */\n      tag_293\n      jump\t// in\n    tag_405:\n        /* \"#utility.yul\":10368:10507   */\n      swap1\n      pop\n        /* \"#utility.yul\":10095:10514   */\n      swap2\n      swap1\n      pop\n      jump\t// out\n        /* \"#utility.yul\":10520:10680   */\n    tag_294:\n        /* \"#utility.yul\":10660:10672   */\n      0x4e6f2076657374696e6700000000000000000000000000000000000000000000\n        /* \"#utility.yul\":10656:10657   */\n      0x00\n        /* \"#utility.yul\":10648:10654   */\n      dup3\n        /* \"#utility.yul\":10644:10658   */\n      add\n        /* \"#utility.yul\":10637:10673   */\n      mstore\n        /* \"#utility.yul\":10520:10680   */\n      pop\n      jump\t// out\n        /* \"#utility.yul\":10686:11052   */\n    tag_295:\n        /* \"#utility.yul\":10828:10831   */\n      0x00\n        /* \"#utility.yul\":10849:10916   */\n      tag_408\n        /* \"#utility.yul\":10913:10915   */\n      0x0a\n        /* \"#utility.yul\":10908:10911   */\n      dup4\n        /* \"#utility.yul\":10849:10916   */\n      tag_268\n      jump\t// in\n    tag_408:\n        /* \"#utility.yul\":10842:10916   */\n      swap2\n      pop\n        /* \"#utility.yul\":10925:11018   */\n      tag_409\n        /* \"#utility.yul\":11014:11017   */\n      dup3\n        /* \"#utility.yul\":10925:11018   */\n      tag_294\n      jump\t// in\n    tag_409:\n        /* \"#utility.yul\":11043:11045   */\n      0x20\n        /* \"#utility.yul\":11038:11041   */\n      dup3\n        /* \"#utility.yul\":11034:11046   */\n      add\n        /* \"#utility.yul\":11027:11046   */\n      swap1\n      pop\n        /* \"#utility.yul\":10686:11052   */\n      swap2\n      swap1\n      pop\n      jump\t// out\n        /* \"#utility.yul\":11058:11477   */\n    tag_209:\n        /* \"#utility.yul\":11224:11228   */\n      0x00\n        /* \"#utility.yul\":11262:11264   */\n      0x20\n        /* \"#utility.yul\":11251:11260   */\n      dup3\n        /* \"#utility.yul\":11247:11265   */\n      add\n        /* \"#utility.yul\":11239:11265   */\n      swap1\n      pop\n        /* \"#utility.yul\":11311:11320   */\n      dup2\n        /* \"#utility.yul\":11305:11309   */\n      dup2\n        /* \"#utility.yul\":11301:11321   */\n      sub\n        /* \"#utility.yul\":11297:11298   */\n      0x00\n        /* \"#utility.yul\":11286:11295   */\n      dup4\n        /* \"#utility.yul\":11282:11299   */\n      add\n        /* \"#utility.yul\":11275:11322   */\n      mstore\n        /* \"#utility.yul\":11339:11470   */\n      tag_411\n        /* \"#utility.yul\":11465:11469   */\n      dup2\n        /* \"#utility.yul\":11339:11470   */\n      tag_295\n      jump\t// in\n    tag_411:\n        /* \"#utility.yul\":11331:11470   */\n      swap1\n      pop\n        /* \"#utility.yul\":11058:11477   */\n      swap2\n      swap1\n      pop\n      jump\t// out\n        /* \"#utility.yul\":11483:11649   */\n    tag_296:\n        /* \"#utility.yul\":11623:11641   */\n      0x4e6f7468696e6720746f20636c61696d00000000000000000000000000000000\n        /* \"#utility.yul\":11619:11620   */\n      0x00\n        /* \"#utility.yul\":11611:11617   */\n      dup3\n        /* \"#utility.yul\":11607:11621   */\n      add\n        /* \"#utility.yul\":11600:11642   */\n      mstore\n        /* \"#utility.yul\":11483:11649   */\n      pop\n      jump\t// out\n        /* \"#utility.yul\":11655:12021   */\n    tag_297:\n        /* \"#utility.yul\":11797:11800   */\n      0x00\n        /* \"#utility.yul\":11818:11885   */\n      tag_414\n        /* \"#utility.yul\":11882:11884   */\n      0x10\n        /* \"#utility.yul\":11877:11880   */\n      dup4\n        /* \"#utility.yul\":11818:11885   */\n      tag_268\n      jump\t// in\n    tag_414:\n        /* \"#utility.yul\":11811:11885   */\n      swap2\n      pop\n        /* \"#utility.yul\":11894:11987   */\n      tag_415\n        /* \"#utility.yul\":11983:11986   */\n      dup3\n        /* \"#utility.yul\":11894:11987   */\n      tag_296\n      jump\t// in\n    tag_415:\n        /* \"#utility.yul\":12012:12014   */\n      0x20\n        /* \"#utility.yul\":12007:12010   */\n      dup3\n        /* \"#utility.yul\":12003:12015   */\n      add\n        /* \"#utility.yul\":11996:12015   */\n      swap1\n      pop\n        /* \"#utility.yul\":11655:12021   */\n      swap2\n      swap1\n      pop\n      jump\t// out\n        /* \"#utility.yul\":12027:12446   */\n    tag_213:\n        /* \"#utility.yul\":12193:12197   */\n      0x00\n        /* \"#utility.yul\":12231:12233   */\n      0x20\n        /* \"#utility.yul\":12220:12229   */\n      dup3\n        /* \"#utility.yul\":12216:12234   */\n      add\n        /* \"#utility.yul\":12208:12234   */\n      swap1\n      pop\n        /* \"#utility.yul\":12280:12289   */\n      dup2\n        /* \"#utility.yul\":12274:12278   */\n      dup2\n        /* \"#utility.yul\":12270:12290   */\n      sub\n        /* \"#utility.yul\":12266:12267   */\n      0x00\n        /* \"#utility.yul\":12255:12264   */\n      dup4\n        /* \"#utility.yul\":12251:12268   */\n      add\n        /* \"#utility.yul\":12244:12291   */\n      mstore\n        /* \"#utility.yul\":12308:12439   */\n      tag_417\n        /* \"#utility.yul\":12434:12438   */\n      dup2\n        /* \"#utility.yul\":12308:12439   */\n      tag_297\n      jump\t// in\n    tag_417:\n        /* \"#utility.yul\":12300:12439   */\n      swap1\n      pop\n        /* \"#utility.yul\":12027:12446   */\n      swap2\n      swap1\n      pop\n      jump\t// out\n        /* \"#utility.yul\":12452:12643   */\n    tag_215:\n        /* \"#utility.yul\":12492:12495   */\n      0x00\n        /* \"#utility.yul\":12511:12531   */\n      tag_419\n        /* \"#utility.yul\":12529:12530   */\n      dup3\n        /* \"#utility.yul\":12511:12531   */\n      tag_277\n      jump\t// in\n    tag_419:\n        /* \"#utility.yul\":12506:12531   */\n      swap2\n      pop\n        /* \"#utility.yul\":12545:12565   */\n      tag_420\n        /* \"#utility.yul\":12563:12564   */\n      dup4\n        /* \"#utility.yul\":12545:12565   */\n      tag_277\n      jump\t// in\n    tag_420:\n        /* \"#utility.yul\":12540:12565   */\n      swap3\n      pop\n        /* \"#utility.yul\":12588:12589   */\n      dup3\n        /* \"#utility.yul\":12585:12586   */\n      dup3\n        /* \"#utility.yul\":12581:12590   */\n      add\n        /* \"#utility.yul\":12574:12590   */\n      swap1\n      pop\n        /* \"#utility.yul\":12609:12612   */\n      dup1\n        /* \"#utility.yul\":12606:12607   */\n      dup3\n        /* \"#utility.yul\":12603:12613   */\n      gt\n        /* \"#utility.yul\":12600:12636   */\n      iszero\n      tag_421\n      jumpi\n        /* \"#utility.yul\":12616:12634   */\n      tag_422\n      tag_286\n      jump\t// in\n    tag_422:\n        /* \"#utility.yul\":12600:12636   */\n    tag_421:\n        /* \"#utility.yul\":12452:12643   */\n      swap3\n      swap2\n      pop\n      pop\n      jump\t// out\n        /* \"#utility.yul\":12649:13091   */\n    tag_232:\n        /* \"#utility.yul\":12798:12802   */\n      0x00\n        /* \"#utility.yul\":12836:12838   */\n      0x60\n        /* \"#utility.yul\":12825:12834   */\n      dup3\n        /* \"#utility.yul\":12821:12839   */\n      add\n        /* \"#utility.yul\":12813:12839   */\n      swap1\n      pop\n        /* \"#utility.yul\":12849:12920   */\n      tag_424\n        /* \"#utility.yul\":12917:12918   */\n      0x00\n        /* \"#utility.yul\":12906:12915   */\n      dup4\n        /* \"#utility.yul\":12902:12919   */\n      add\n        /* \"#utility.yul\":12893:12899   */\n      dup7\n        /* \"#utility.yul\":12849:12920   */\n      tag_266\n      jump\t// in\n    tag_424:\n        /* \"#utility.yul\":12930:13002   */\n      tag_425\n        /* \"#utility.yul\":12998:13000   */\n      0x20\n        /* \"#utility.yul\":12987:12996   */\n      dup4\n        /* \"#utility.yul\":12983:13001   */\n      add\n        /* \"#utility.yul\":12974:12980   */\n      dup6\n        /* \"#utility.yul\":12930:13002   */\n      tag_282\n      jump\t// in\n    tag_425:\n        /* \"#utility.yul\":13012:13084   */\n      tag_426\n        /* \"#utility.yul\":13080:13082   */\n      0x40\n        /* \"#utility.yul\":13069:13078   */\n      dup4\n        /* \"#utility.yul\":13065:13083   */\n      add\n        /* \"#utility.yul\":13056:13062   */\n      dup5\n        /* \"#utility.yul\":13012:13084   */\n      tag_282\n      jump\t// in\n    tag_426:\n        /* \"#utility.yul\":12649:13091   */\n      swap5\n      swap4\n      pop\n      pop\n      pop\n      pop\n      jump\t// out\n\n    auxdata: 0xa264697066735822122005c2e40a6ec3f63c39e38d645b55ce9bdaa10731ac33e0d207dba231661899e764736f6c634300081a0033\n}\n",
				"bytecode": {
					"linkReferences": {},
					"object": "608060405234801561000f575f80fd5b50604051612c5f380380612c5f83398181016040528101906100319190610b8f565b336040518060400160405280600b81526020017f416e696d616c546f6b656e0000000000000000000000000000000000000000008152506040518060400160405280600481526020017f414e4d4c0000000000000000000000000000000000000000000000000000000081525081600390816100ad9190610e52565b5080600490816100bd9190610e52565b5050505f73ffffffffffffffffffffffffffffffffffffffff168173ffffffffffffffffffffffffffffffffffffffff1603610130575f6040517f1e4fbdf70000000000000000000000000000000000000000000000000000000081526004016101279190610f30565b60405180910390fd5b61013f816106da60201b60201c565b505f73ffffffffffffffffffffffffffffffffffffffff168673ffffffffffffffffffffffffffffffffffffffff16141580156101a857505f73ffffffffffffffffffffffffffffffffffffffff168573ffffffffffffffffffffffffffffffffffffffff1614155b6101e7576040517f08c379a00000000000000000000000000000000000000000000000000000000081526004016101de90610fa3565b60405180910390fd5b8560065f6101000a81548173ffffffffffffffffffffffffffffffffffffffff021916908373ffffffffffffffffffffffffffffffffffffffff1602179055508460075f6101000a81548173ffffffffffffffffffffffffffffffffffffffff021916908373ffffffffffffffffffffffffffffffffffffffff1602179055503360085f6101000a81548173ffffffffffffffffffffffffffffffffffffffff021916908373ffffffffffffffffffffffffffffffffffffffff1602179055508360095f6101000a81548173ffffffffffffffffffffffffffffffffffffffff021916908373ffffffffffffffffffffffffffffffffffffffff16021790555082600a5f6101000a81548173ffffffffffffffffffffffffffffffffffffffff021916908373ffffffffffffffffffffffffffffffffffffffff16021790555081600b5f6101000a81548173ffffffffffffffffffffffffffffffffffffffff021916908373ffffffffffffffffffffffffffffffffffffffff16021790555080600c5f6101000a81548173ffffffffffffffffffffffffffffffffffffffff021916908373ffffffffffffffffffffffffffffffffffffffff1602179055506103c5306d05790457fe4e8cb32891c000000061079d60201b60201c565b6104043060065f9054906101000a900473ffffffffffffffffffffffffffffffffffffffff166c097761759c34d7b26fb000000061082260201b60201c565b6104433060075f9054906101000a900473ffffffffffffffffffffffffffffffffffffffff166c097761759c34d7b26fb000000061082260201b60201c565b6104823060085f9054906101000a900473ffffffffffffffffffffffffffffffffffffffff166c456b755e7983831c886000000061082260201b60201c565b6c1c662460d49e87174f10000000600f5f60065f9054906101000a900473ffffffffffffffffffffffffffffffffffffffff1673ffffffffffffffffffffffffffffffffffffffff1673ffffffffffffffffffffffffffffffffffffffff1681526020019081526020015f20819055506c1c662460d49e87174f10000000600f5f60075f9054906101000a900473ffffffffffffffffffffffffffffffffffffffff1673ffffffffffffffffffffffffffffffffffffffff1673ffffffffffffffffffffffffffffffffffffffff1681526020019081526020015f20819055506cd042601b6c8a89559920000000600f5f60085f9054906101000a900473ffffffffffffffffffffffffffffffffffffffff1673ffffffffffffffffffffffffffffffffffffffff1673ffffffffffffffffffffffffffffffffffffffff1681526020019081526020015f20819055506106123060095f9054906101000a900473ffffffffffffffffffffffffffffffffffffffff166d011834119942e8f0a1b6c000000061082260201b60201c565b61065130600a5f9054906101000a900473ffffffffffffffffffffffffffffffffffffffff166c8c1a08cca1747850db6000000061082260201b60201c565b61069030600b5f9054906101000a900473ffffffffffffffffffffffffffffffffffffffff166c8c1a08cca1747850db6000000061082260201b60201c565b6106cf30600c5f9054906101000a900473ffffffffffffffffffffffffffffffffffffffff166c8c1a08cca1747850db6000000061082260201b60201c565b50505050505061107e565b5f60055f9054906101000a900473ffffffffffffffffffffffffffffffffffffffff1690508160055f6101000a81548173ffffffffffffffffffffffffffffffffffffffff021916908373ffffffffffffffffffffffffffffffffffffffff1602179055508173ffffffffffffffffffffffffffffffffffffffff168173ffffffffffffffffffffffffffffffffffffffff167f8be0079c531659141344cd1fd0a4f28419497f9722a3daafe3b4186f6b6457e060405160405180910390a35050565b5f73ffffffffffffffffffffffffffffffffffffffff168273ffffffffffffffffffffffffffffffffffffffff160361080d575f6040517fec442f050000000000000000000000000000000000000000000000000000000081526004016108049190610f30565b60405180910390fd5b61081e5f838361091860201b60201c565b5050565b5f73ffffffffffffffffffffffffffffffffffffffff168373ffffffffffffffffffffffffffffffffffffffff1603610892575f6040517f96c6fd1e0000000000000000000000000000000000000000000000000000000081526004016108899190610f30565b60405180910390fd5b5f73ffffffffffffffffffffffffffffffffffffffff168273ffffffffffffffffffffffffffffffffffffffff1603610902575f6040517fec442f050000000000000000000000000000000000000000000000000000000081526004016108f99190610f30565b60405180910390fd5b61091383838361091860201b60201c565b505050565b5f73ffffffffffffffffffffffffffffffffffffffff168373ffffffffffffffffffffffffffffffffffffffff1603610968578060025f82825461095c9190610fee565b92505081905550610a36565b5f805f8573ffffffffffffffffffffffffffffffffffffffff1673ffffffffffffffffffffffffffffffffffffffff1681526020019081526020015f20549050818110156109f1578381836040517fe450d38c0000000000000000000000000000000000000000000000000000000081526004016109e893929190611030565b60405180910390fd5b8181035f808673ffffffffffffffffffffffffffffffffffffffff1673ffffffffffffffffffffffffffffffffffffffff1681526020019081526020015f2081905550505b5f73ffffffffffffffffffffffffffffffffffffffff168273ffffffffffffffffffffffffffffffffffffffff1603610a7d578060025f8282540392505081905550610ac7565b805f808473ffffffffffffffffffffffffffffffffffffffff1673ffffffffffffffffffffffffffffffffffffffff1681526020019081526020015f205f82825401925050819055505b8173ffffffffffffffffffffffffffffffffffffffff168373ffffffffffffffffffffffffffffffffffffffff167fddf252ad1be2c89b69c2b068fc378daa952ba7f163c4a11628f55a4df523b3ef83604051610b249190611065565b60405180910390a3505050565b5f80fd5b5f73ffffffffffffffffffffffffffffffffffffffff82169050919050565b5f610b5e82610b35565b9050919050565b610b6e81610b54565b8114610b78575f80fd5b50565b5f81519050610b8981610b65565b92915050565b5f805f805f8060c08789031215610ba957610ba8610b31565b5b5f610bb689828a01610b7b565b9650506020610bc789828a01610b7b565b9550506040610bd889828a01610b7b565b9450506060610be989828a01610b7b565b9350506080610bfa89828a01610b7b565b92505060a0610c0b89828a01610b7b565b9150509295509295509295565b5f81519050919050565b7f4e487b71000000000000000000000000000000000000000000000000000000005f52604160045260245ffd5b7f4e487b71000000000000000000000000000000000000000000000000000000005f52602260045260245ffd5b5f6002820490506001821680610c9357607f821691505b602082108103610ca657610ca5610c4f565b5b50919050565b5f819050815f5260205f209050919050565b5f6020601f8301049050919050565b5f82821b905092915050565b5f60088302610d087fffffffffffffffffffffffffffffffffffffffffffffffffffffffffffffffff82610ccd565b610d128683610ccd565b95508019841693508086168417925050509392505050565b5f819050919050565b5f819050919050565b5f610d56610d51610d4c84610d2a565b610d33565b610d2a565b9050919050565b5f819050919050565b610d6f83610d3c565b610d83610d7b82610d5d565b848454610cd9565b825550505050565b5f90565b610d97610d8b565b610da2818484610d66565b505050565b5b81811015610dc557610dba5f82610d8f565b600181019050610da8565b5050565b601f821115610e0a57610ddb81610cac565b610de484610cbe565b81016020851015610df3578190505b610e07610dff85610cbe565b830182610da7565b50505b505050565b5f82821c905092915050565b5f610e2a5f1984600802610e0f565b1980831691505092915050565b5f610e428383610e1b565b9150826002028217905092915050565b610e5b82610c18565b67ffffffffffffffff811115610e7457610e73610c22565b5b610e7e8254610c7c565b610e89828285610dc9565b5f60209050601f831160018114610eba575f8415610ea8578287015190505b610eb28582610e37565b865550610f19565b601f198416610ec886610cac565b5f5b82811015610eef57848901518255600182019150602085019450602081019050610eca565b86831015610f0c5784890151610f08601f891682610e1b565b8355505b6001600288020188555050505b505050505050565b610f2a81610b54565b82525050565b5f602082019050610f435f830184610f21565b92915050565b5f82825260208201905092915050565b7f496e76616c6964207465616d00000000000000000000000000000000000000005f82015250565b5f610f8d600c83610f49565b9150610f9882610f59565b602082019050919050565b5f6020820190508181035f830152610fba81610f81565b9050919050565b7f4e487b71000000000000000000000000000000000000000000000000000000005f52601160045260245ffd5b5f610ff882610d2a565b915061100383610d2a565b925082820190508082111561101b5761101a610fc1565b5b92915050565b61102a81610d2a565b82525050565b5f6060820190506110435f830186610f21565b6110506020830185611021565b61105d6040830184611021565b949350505050565b5f6020820190506110785f830184611021565b92915050565b611bd48061108b5f395ff3fe608060405234801561000f575f80fd5b50600436106101a7575f3560e01c80638da5cb5b116100f7578063d1431ca611610095578063deb36e321161006f578063deb36e32146104d9578063e580b2b0146104e3578063e74f3fbb14610501578063f2fde38b1461050b576101a7565b8063d1431ca61461046d578063d46980161461048b578063dd62ed3e146104a9576101a7565b806395d89b41116100d157806395d89b41146103d1578063a9059cbb146103ef578063bf16555f1461041f578063c884ef831461043d576101a7565b80638da5cb5b146103775780638f84aa0914610395578063902d55a5146103b3576101a7565b80632fcbb5a21161016457806361b1cbba1161013e57806361b1cbba146102ef5780636f5244b11461030d57806370a082311461033d578063715018a61461036d576101a7565b80632fcbb5a214610283578063313ce567146102a1578063384711cc146102bf576101a7565b806306483a07146101ab57806306fdde03146101c9578063095ea7b3146101e757806318160ddd1461021757806323b872dd14610235578063254800d414610265575b5f80fd5b6101b3610527565b6040516101c09190611543565b60405180910390f35b6101d161054c565b6040516101de91906115cc565b60405180910390f35b61020160048036038101906101fc919061164d565b6105dc565b60405161020e91906116a5565b60405180910390f35b61021f6105fe565b60405161022c91906116cd565b60405180910390f35b61024f600480360381019061024a91906116e6565b610607565b60405161025c91906116a5565b60405180910390f35b61026d610635565b60405161027a91906116cd565b60405180910390f35b61028b61063b565b6040516102989190611543565b60405180910390f35b6102a9610660565b6040516102b69190611751565b60405180910390f35b6102d960048036038101906102d4919061176a565b610668565b6040516102e691906116cd565b60405180910390f35b6102f761067d565b6040516103049190611543565b60405180910390f35b6103276004803603810190610322919061164d565b6106a2565b60405161033491906116cd565b60405180910390f35b6103576004803603810190610352919061176a565b610803565b60405161036491906116cd565b60405180910390f35b610375610848565b005b61037f61085b565b60405161038c9190611543565b60405180910390f35b61039d610883565b6040516103aa9190611543565b60405180910390f35b6103bb6108a8565b6040516103c891906116cd565b60405180910390f35b6103d96108ba565b6040516103e691906115cc565b60405180910390f35b6104096004803603810190610404919061164d565b61094a565b60405161041691906116a5565b60405180910390f35b61042761096c565b6040516104349190611543565b60405180910390f35b6104576004803603810190610452919061176a565b610991565b60405161046491906116cd565b60405180910390f35b6104756109a6565b6040516104829190611543565b60405180910390f35b6104936109cb565b6040516104a09190611543565b60405180910390f35b6104c360048036038101906104be9190611795565b6109f0565b6040516104d091906116cd565b60405180910390f35b6104e1610a72565b005b6104eb610ae1565b6040516104f891906116a5565b60405180910390f35b610509610af3565b005b6105256004803603810190610520919061176a565b610db2565b005b60065f9054906101000a900473ffffffffffffffffffffffffffffffffffffffff1681565b60606003805461055b90611800565b80601f016020809104026020016040519081016040528092919081815260200182805461058790611800565b80156105d25780601f106105a9576101008083540402835291602001916105d2565b820191905f5260205f20905b8154815290600101906020018083116105b557829003601f168201915b5050505050905090565b5f806105e6610e36565b90506105f3818585610e3d565b600191505092915050565b5f600254905090565b5f80610611610e36565b905061061e858285610e4f565b610629858585610ee2565b60019150509392505050565b600d5481565b600b5f9054906101000a900473ffffffffffffffffffffffffffffffffffffffff1681565b5f6012905090565b600f602052805f5260405f205f915090505481565b60075f9054906101000a900473ffffffffffffffffffffffffffffffffffffffff1681565b5f80600d54036106b4575f90506107fd565b5f600d54426106c3919061185d565b90505f6303b5380082106106d957839050610761565b63033e91008210610704576064604b856106f39190611890565b6106fd91906118fe565b9050610760565b6302c7ea00821061072f57606460328561071e9190611890565b61072891906118fe565b905061075f565b6302514300821061075a5760646019856107499190611890565b61075391906118fe565b905061075e565b5f90505b5b5b5b60105f8673ffffffffffffffffffffffffffffffffffffffff1673ffffffffffffffffffffffffffffffffffffffff1681526020019081526020015f205481116107af575f925050506107fd565b60105f8673ffffffffffffffffffffffffffffffffffffffff1673ffffffffffffffffffffffffffffffffffffffff1681526020019081526020015f2054816107f8919061185d565b925050505b92915050565b5f805f8373ffffffffffffffffffffffffffffffffffffffff1673ffffffffffffffffffffffffffffffffffffffff1681526020019081526020015f20549050919050565b610850610fd2565b6108595f611059565b565b5f60055f9054906101000a900473ffffffffffffffffffffffffffffffffffffffff16905090565b60085f9054906101000a900473ffffffffffffffffffffffffffffffffffffffff1681565b6d05790457fe4e8cb32891c000000081565b6060600480546108c990611800565b80601f01602080910402602001604051908101604052809291908181526020018280546108f590611800565b80156109405780601f1061091757610100808354040283529160200191610940565b820191905f5260205f20905b81548152906001019060200180831161092357829003601f168201915b5050505050905090565b5f80610954610e36565b9050610961818585610ee2565b600191505092915050565b600c5f9054906101000a900473ffffffffffffffffffffffffffffffffffffffff1681565b6010602052805f5260405f205f915090505481565b600a5f9054906101000a900473ffffffffffffffffffffffffffffffffffffffff1681565b60095f9054906101000a900473ffffffffffffffffffffffffffffffffffffffff1681565b5f60015f8473ffffffffffffffffffffffffffffffffffffffff1673ffffffffffffffffffffffffffffffffffffffff1681526020019081526020015f205f8373ffffffffffffffffffffffffffffffffffffffff1673ffffffffffffffffffffffffffffffffffffffff1681526020019081526020015f2054905092915050565b610a7a610fd2565b5f600d5414610abe576040517f08c379a0000000000000000000000000000000000000000000000000000000008152600401610ab590611978565b60405180910390fd5b42600d819055506001600e5f6101000a81548160ff021916908315150217905550565b600e5f9054906101000a900460ff1681565b60065f9054906101000a900473ffffffffffffffffffffffffffffffffffffffff1673ffffffffffffffffffffffffffffffffffffffff163373ffffffffffffffffffffffffffffffffffffffff161480610b9a575060075f9054906101000a900473ffffffffffffffffffffffffffffffffffffffff1673ffffffffffffffffffffffffffffffffffffffff163373ffffffffffffffffffffffffffffffffffffffff16145b80610bf1575060085f9054906101000a900473ffffffffffffffffffffffffffffffffffffffff1673ffffffffffffffffffffffffffffffffffffffff163373ffffffffffffffffffffffffffffffffffffffff16145b610c30576040517f08c379a0000000000000000000000000000000000000000000000000000000008152600401610c27906119e0565b60405180910390fd5b600e5f9054906101000a900460ff16610c7e576040517f08c379a0000000000000000000000000000000000000000000000000000000008152600401610c7590611a48565b60405180910390fd5b5f600f5f3373ffffffffffffffffffffffffffffffffffffffff1673ffffffffffffffffffffffffffffffffffffffff1681526020019081526020015f205490505f8111610d01576040517f08c379a0000000000000000000000000000000000000000000000000000000008152600401610cf890611ab0565b60405180910390fd5b5f610d0c33836106a2565b90505f8111610d50576040517f08c379a0000000000000000000000000000000000000000000000000000000008152600401610d4790611b18565b60405180910390fd5b8060105f3373ffffffffffffffffffffffffffffffffffffffff1673ffffffffffffffffffffffffffffffffffffffff1681526020019081526020015f205f828254610d9c9190611b36565b92505081905550610dae303383610ee2565b5050565b610dba610fd2565b5f73ffffffffffffffffffffffffffffffffffffffff168173ffffffffffffffffffffffffffffffffffffffff1603610e2a575f6040517f1e4fbdf7000000000000000000000000000000000000000000000000000000008152600401610e219190611543565b60405180910390fd5b610e3381611059565b50565b5f33905090565b610e4a838383600161111c565b505050565b5f610e5a84846109f0565b90507fffffffffffffffffffffffffffffffffffffffffffffffffffffffffffffffff811015610edc5781811015610ecd578281836040517ffb8f41b2000000000000000000000000000000000000000000000000000000008152600401610ec493929190611b69565b60405180910390fd5b610edb84848484035f61111c565b5b50505050565b5f73ffffffffffffffffffffffffffffffffffffffff168373ffffffffffffffffffffffffffffffffffffffff1603610f52575f6040517f96c6fd1e000000000000000000000000000000000000000000000000000000008152600401610f499190611543565b60405180910390fd5b5f73ffffffffffffffffffffffffffffffffffffffff168273ffffffffffffffffffffffffffffffffffffffff1603610fc2575f6040517fec442f05000000000000000000000000000000000000000000000000000000008152600401610fb99190611543565b60405180910390fd5b610fcd8383836112eb565b505050565b610fda610e36565b73ffffffffffffffffffffffffffffffffffffffff16610ff861085b565b73ffffffffffffffffffffffffffffffffffffffff16146110575761101b610e36565b6040517f118cdaa700000000000000000000000000000000000000000000000000000000815260040161104e9190611543565b60405180910390fd5b565b5f60055f9054906101000a900473ffffffffffffffffffffffffffffffffffffffff1690508160055f6101000a81548173ffffffffffffffffffffffffffffffffffffffff021916908373ffffffffffffffffffffffffffffffffffffffff1602179055508173ffffffffffffffffffffffffffffffffffffffff168173ffffffffffffffffffffffffffffffffffffffff167f8be0079c531659141344cd1fd0a4f28419497f9722a3daafe3b4186f6b6457e060405160405180910390a35050565b5f73ffffffffffffffffffffffffffffffffffffffff168473ffffffffffffffffffffffffffffffffffffffff160361118c575f6040517fe602df050000000000000000000000000000000000000000000000000000000081526004016111839190611543565b60405180910390fd5b5f73ffffffffffffffffffffffffffffffffffffffff168373ffffffffffffffffffffffffffffffffffffffff16036111fc575f6040517f94280d620000000000000000000000000000000000000000000000000000000081526004016111f39190611543565b60405180910390fd5b8160015f8673ffffffffffffffffffffffffffffffffffffffff1673ffffffffffffffffffffffffffffffffffffffff1681526020019081526020015f205f8573ffffffffffffffffffffffffffffffffffffffff1673ffffffffffffffffffffffffffffffffffffffff1681526020019081526020015f208190555080156112e5578273ffffffffffffffffffffffffffffffffffffffff168473ffffffffffffffffffffffffffffffffffffffff167f8c5be1e5ebec7d5bd14f71427d1e84f3dd0314c0f7b2291e5b200ac8c7c3b925846040516112dc91906116cd565b60405180910390a35b50505050565b5f73ffffffffffffffffffffffffffffffffffffffff168373ffffffffffffffffffffffffffffffffffffffff160361133b578060025f82825461132f9190611b36565b92505081905550611409565b5f805f8573ffffffffffffffffffffffffffffffffffffffff1673ffffffffffffffffffffffffffffffffffffffff1681526020019081526020015f20549050818110156113c4578381836040517fe450d38c0000000000000000000000000000000000000000000000000000000081526004016113bb93929190611b69565b60405180910390fd5b8181035f808673ffffffffffffffffffffffffffffffffffffffff1673ffffffffffffffffffffffffffffffffffffffff1681526020019081526020015f2081905550505b5f73ffffffffffffffffffffffffffffffffffffffff168273ffffffffffffffffffffffffffffffffffffffff1603611450578060025f828254039250508190555061149a565b805f808473ffffffffffffffffffffffffffffffffffffffff1673ffffffffffffffffffffffffffffffffffffffff1681526020019081526020015f205f82825401925050819055505b8173ffffffffffffffffffffffffffffffffffffffff168373ffffffffffffffffffffffffffffffffffffffff167fddf252ad1be2c89b69c2b068fc378daa952ba7f163c4a11628f55a4df523b3ef836040516114f791906116cd565b60405180910390a3505050565b5f73ffffffffffffffffffffffffffffffffffffffff82169050919050565b5f61152d82611504565b9050919050565b61153d81611523565b82525050565b5f6020820190506115565f830184611534565b92915050565b5f81519050919050565b5f82825260208201905092915050565b8281835e5f83830152505050565b5f601f19601f8301169050919050565b5f61159e8261155c565b6115a88185611566565b93506115b8818560208601611576565b6115c181611584565b840191505092915050565b5f6020820190508181035f8301526115e48184611594565b905092915050565b5f80fd5b6115f981611523565b8114611603575f80fd5b50565b5f81359050611614816115f0565b92915050565b5f819050919050565b61162c8161161a565b8114611636575f80fd5b50565b5f8135905061164781611623565b92915050565b5f8060408385031215611663576116626115ec565b5b5f61167085828601611606565b925050602061168185828601611639565b9150509250929050565b5f8115159050919050565b61169f8161168b565b82525050565b5f6020820190506116b85f830184611696565b92915050565b6116c78161161a565b82525050565b5f6020820190506116e05f8301846116be565b92915050565b5f805f606084860312156116fd576116fc6115ec565b5b5f61170a86828701611606565b935050602061171b86828701611606565b925050604061172c86828701611639565b9150509250925092565b5f60ff82169050919050565b61174b81611736565b82525050565b5f6020820190506117645f830184611742565b92915050565b5f6020828403121561177f5761177e6115ec565b5b5f61178c84828501611606565b91505092915050565b5f80604083850312156117ab576117aa6115ec565b5b5f6117b885828601611606565b92505060206117c985828601611606565b9150509250929050565b7f4e487b71000000000000000000000000000000000000000000000000000000005f52602260045260245ffd5b5f600282049050600182168061181757607f821691505b60208210810361182a576118296117d3565b5b50919050565b7f4e487b71000000000000000000000000000000000000000000000000000000005f52601160045260245ffd5b5f6118678261161a565b91506118728361161a565b925082820390508181111561188a57611889611830565b5b92915050565b5f61189a8261161a565b91506118a58361161a565b92508282026118b38161161a565b915082820484148315176118ca576118c9611830565b5b5092915050565b7f4e487b71000000000000000000000000000000000000000000000000000000005f52601260045260245ffd5b5f6119088261161a565b91506119138361161a565b925082611923576119226118d1565b5b828204905092915050565b7f56657374696e6720616c726561647920737461727465640000000000000000005f82015250565b5f611962601783611566565b915061196d8261192e565b602082019050919050565b5f6020820190508181035f83015261198f81611956565b9050919050565b7f4e6f742061207465616d206d656d6265720000000000000000000000000000005f82015250565b5f6119ca601183611566565b91506119d582611996565b602082019050919050565b5f6020820190508181035f8301526119f7816119be565b9050919050565b7f50726573616c65206e6f7420656e6465640000000000000000000000000000005f82015250565b5f611a32601183611566565b9150611a3d826119fe565b602082019050919050565b5f6020820190508181035f830152611a5f81611a26565b9050919050565b7f4e6f2076657374696e67000000000000000000000000000000000000000000005f82015250565b5f611a9a600a83611566565b9150611aa582611a66565b602082019050919050565b5f6020820190508181035f830152611ac781611a8e565b9050919050565b7f4e6f7468696e6720746f20636c61696d000000000000000000000000000000005f82015250565b5f611b02601083611566565b9150611b0d82611ace565b602082019050919050565b5f6020820190508181035f830152611b2f81611af6565b9050919050565b5f611b408261161a565b9150611b4b8361161a565b9250828201905080821115611b6357611b62611830565b5b92915050565b5f606082019050611b7c5f830186611534565b611b8960208301856116be565b611b9660408301846116be565b94935050505056fea264697066735822122005c2e40a6ec3f63c39e38d645b55ce9bdaa10731ac33e0d207dba231661899e764736f6c634300081a0033",
					"opcodes": "PUSH1 0x80 PUSH1 0x40 MSTORE CALLVALUE DUP1 ISZERO PUSH2 0xF JUMPI PUSH0 DUP1 REVERT JUMPDEST POP PUSH1 0x40 MLOAD PUSH2 0x2C5F CODESIZE SUB DUP1 PUSH2 0x2C5F DUP4 CODECOPY DUP2 DUP2 ADD PUSH1 0x40 MSTORE DUP2 ADD SWAP1 PUSH2 0x31 SWAP2 SWAP1 PUSH2 0xB8F JUMP JUMPDEST CALLER PUSH1 0x40 MLOAD DUP1 PUSH1 0x40 ADD PUSH1 0x40 MSTORE DUP1 PUSH1 0xB DUP2 MSTORE PUSH1 0x20 ADD PUSH32 0x416E696D616C546F6B656E000000000000000000000000000000000000000000 DUP2 MSTORE POP PUSH1 0x40 MLOAD DUP1 PUSH1 0x40 ADD PUSH1 0x40 MSTORE DUP1 PUSH1 0x4 DUP2 MSTORE PUSH1 0x20 ADD PUSH32 0x414E4D4C00000000000000000000000000000000000000000000000000000000 DUP2 MSTORE POP DUP2 PUSH1 0x3 SWAP1 DUP2 PUSH2 0xAD SWAP2 SWAP1 PUSH2 0xE52 JUMP JUMPDEST POP DUP1 PUSH1 0x4 SWAP1 DUP2 PUSH2 0xBD SWAP2 SWAP1 PUSH2 0xE52 JUMP JUMPDEST POP POP POP PUSH0 PUSH20 0xFFFFFFFFFFFFFFFFFFFFFFFFFFFFFFFFFFFFFFFF AND DUP2 PUSH20 0xFFFFFFFFFFFFFFFFFFFFFFFFFFFFFFFFFFFFFFFF AND SUB PUSH2 0x130 JUMPI PUSH0 PUSH1 0x40 MLOAD PUSH32 0x1E4FBDF700000000000000000000000000000000000000000000000000000000 DUP2 MSTORE PUSH1 0x4 ADD PUSH2 0x127 SWAP2 SWAP1 PUSH2 0xF30 JUMP JUMPDEST PUSH1 0x40 MLOAD DUP1 SWAP2 SUB SWAP1 REVERT JUMPDEST PUSH2 0x13F DUP2 PUSH2 0x6DA PUSH1 0x20 SHL PUSH1 0x20 SHR JUMP JUMPDEST POP PUSH0 PUSH20 0xFFFFFFFFFFFFFFFFFFFFFFFFFFFFFFFFFFFFFFFF AND DUP7 PUSH20 0xFFFFFFFFFFFFFFFFFFFFFFFFFFFFFFFFFFFFFFFF AND EQ ISZERO DUP1 ISZERO PUSH2 0x1A8 JUMPI POP PUSH0 PUSH20 0xFFFFFFFFFFFFFFFFFFFFFFFFFFFFFFFFFFFFFFFF AND DUP6 PUSH20 0xFFFFFFFFFFFFFFFFFFFFFFFFFFFFFFFFFFFFFFFF AND EQ ISZERO JUMPDEST PUSH2 0x1E7 JUMPI PUSH1 0x40 MLOAD PUSH32 0x8C379A000000000000000000000000000000000000000000000000000000000 DUP2 MSTORE PUSH1 0x4 ADD PUSH2 0x1DE SWAP1 PUSH2 0xFA3 JUMP JUMPDEST PUSH1 0x40 MLOAD DUP1 SWAP2 SUB SWAP1 REVERT JUMPDEST DUP6 PUSH1 0x6 PUSH0 PUSH2 0x100 EXP DUP2 SLOAD DUP2 PUSH20 0xFFFFFFFFFFFFFFFFFFFFFFFFFFFFFFFFFFFFFFFF MUL NOT AND SWAP1 DUP4 PUSH20 0xFFFFFFFFFFFFFFFFFFFFFFFFFFFFFFFFFFFFFFFF AND MUL OR SWAP1 SSTORE POP DUP5 PUSH1 0x7 PUSH0 PUSH2 0x100 EXP DUP2 SLOAD DUP2 PUSH20 0xFFFFFFFFFFFFFFFFFFFFFFFFFFFFFFFFFFFFFFFF MUL NOT AND SWAP1 DUP4 PUSH20 0xFFFFFFFFFFFFFFFFFFFFFFFFFFFFFFFFFFFFFFFF AND MUL OR SWAP1 SSTORE POP CALLER PUSH1 0x8 PUSH0 PUSH2 0x100 EXP DUP2 SLOAD DUP2 PUSH20 0xFFFFFFFFFFFFFFFFFFFFFFFFFFFFFFFFFFFFFFFF MUL NOT AND SWAP1 DUP4 PUSH20 0xFFFFFFFFFFFFFFFFFFFFFFFFFFFFFFFFFFFFFFFF AND MUL OR SWAP1 SSTORE POP DUP4 PUSH1 0x9 PUSH0 PUSH2 0x100 EXP DUP2 SLOAD DUP2 PUSH20 0xFFFFFFFFFFFFFFFFFFFFFFFFFFFFFFFFFFFFFFFF MUL NOT AND SWAP1 DUP4 PUSH20 0xFFFFFFFFFFFFFFFFFFFFFFFFFFFFFFFFFFFFFFFF AND MUL OR SWAP1 SSTORE POP DUP3 PUSH1 0xA PUSH0 PUSH2 0x100 EXP DUP2 SLOAD DUP2 PUSH20 0xFFFFFFFFFFFFFFFFFFFFFFFFFFFFFFFFFFFFFFFF MUL NOT AND SWAP1 DUP4 PUSH20 0xFFFFFFFFFFFFFFFFFFFFFFFFFFFFFFFFFFFFFFFF AND MUL OR SWAP1 SSTORE POP DUP2 PUSH1 0xB PUSH0 PUSH2 0x100 EXP DUP2 SLOAD DUP2 PUSH20 0xFFFFFFFFFFFFFFFFFFFFFFFFFFFFFFFFFFFFFFFF MUL NOT AND SWAP1 DUP4 PUSH20 0xFFFFFFFFFFFFFFFFFFFFFFFFFFFFFFFFFFFFFFFF AND MUL OR SWAP1 SSTORE POP DUP1 PUSH1 0xC PUSH0 PUSH2 0x100 EXP DUP2 SLOAD DUP2 PUSH20 0xFFFFFFFFFFFFFFFFFFFFFFFFFFFFFFFFFFFFFFFF MUL NOT AND SWAP1 DUP4 PUSH20 0xFFFFFFFFFFFFFFFFFFFFFFFFFFFFFFFFFFFFFFFF AND MUL OR SWAP1 SSTORE POP PUSH2 0x3C5 ADDRESS PUSH14 0x5790457FE4E8CB32891C0000000 PUSH2 0x79D PUSH1 0x20 SHL PUSH1 0x20 SHR JUMP JUMPDEST PUSH2 0x404 ADDRESS PUSH1 0x6 PUSH0 SWAP1 SLOAD SWAP1 PUSH2 0x100 EXP SWAP1 DIV PUSH20 0xFFFFFFFFFFFFFFFFFFFFFFFFFFFFFFFFFFFFFFFF AND PUSH13 0x97761759C34D7B26FB0000000 PUSH2 0x822 PUSH1 0x20 SHL PUSH1 0x20 SHR JUMP JUMPDEST PUSH2 0x443 ADDRESS PUSH1 0x7 PUSH0 SWAP1 SLOAD SWAP1 PUSH2 0x100 EXP SWAP1 DIV PUSH20 0xFFFFFFFFFFFFFFFFFFFFFFFFFFFFFFFFFFFFFFFF AND PUSH13 0x97761759C34D7B26FB0000000 PUSH2 0x822 PUSH1 0x20 SHL PUSH1 0x20 SHR JUMP JUMPDEST PUSH2 0x482 ADDRESS PUSH1 0x8 PUSH0 SWAP1 SLOAD SWAP1 PUSH2 0x100 EXP SWAP1 DIV PUSH20 0xFFFFFFFFFFFFFFFFFFFFFFFFFFFFFFFFFFFFFFFF AND PUSH13 0x456B755E7983831C8860000000 PUSH2 0x822 PUSH1 0x20 SHL PUSH1 0x20 SHR JUMP JUMPDEST PUSH13 0x1C662460D49E87174F10000000 PUSH1 0xF PUSH0 PUSH1 0x6 PUSH0 SWAP1 SLOAD SWAP1 PUSH2 0x100 EXP SWAP1 DIV PUSH20 0xFFFFFFFFFFFFFFFFFFFFFFFFFFFFFFFFFFFFFFFF AND PUSH20 0xFFFFFFFFFFFFFFFFFFFFFFFFFFFFFFFFFFFFFFFF AND PUSH20 0xFFFFFFFFFFFFFFFFFFFFFFFFFFFFFFFFFFFFFFFF AND DUP2 MSTORE PUSH1 0x20 ADD SWAP1 DUP2 MSTORE PUSH1 0x20 ADD PUSH0 KECCAK256 DUP2 SWAP1 SSTORE POP PUSH13 0x1C662460D49E87174F10000000 PUSH1 0xF PUSH0 PUSH1 0x7 PUSH0 SWAP1 SLOAD SWAP1 PUSH2 0x100 EXP SWAP1 DIV PUSH20 0xFFFFFFFFFFFFFFFFFFFFFFFFFFFFFFFFFFFFFFFF AND PUSH20 0xFFFFFFFFFFFFFFFFFFFFFFFFFFFFFFFFFFFFFFFF AND PUSH20 0xFFFFFFFFFFFFFFFFFFFFFFFFFFFFFFFFFFFFFFFF AND DUP2 MSTORE PUSH1 0x20 ADD SWAP1 DUP2 MSTORE PUSH1 0x20 ADD PUSH0 KECCAK256 DUP2 SWAP1 SSTORE POP PUSH13 0xD042601B6C8A89559920000000 PUSH1 0xF PUSH0 PUSH1 0x8 PUSH0 SWAP1 SLOAD SWAP1 PUSH2 0x100 EXP SWAP1 DIV PUSH20 0xFFFFFFFFFFFFFFFFFFFFFFFFFFFFFFFFFFFFFFFF AND PUSH20 0xFFFFFFFFFFFFFFFFFFFFFFFFFFFFFFFFFFFFFFFF AND PUSH20 0xFFFFFFFFFFFFFFFFFFFFFFFFFFFFFFFFFFFFFFFF AND DUP2 MSTORE PUSH1 0x20 ADD SWAP1 DUP2 MSTORE PUSH1 0x20 ADD PUSH0 KECCAK256 DUP2 SWAP1 SSTORE POP PUSH2 0x612 ADDRESS PUSH1 0x9 PUSH0 SWAP1 SLOAD SWAP1 PUSH2 0x100 EXP SWAP1 DIV PUSH20 0xFFFFFFFFFFFFFFFFFFFFFFFFFFFFFFFFFFFFFFFF AND PUSH14 0x11834119942E8F0A1B6C0000000 PUSH2 0x822 PUSH1 0x20 SHL PUSH1 0x20 SHR JUMP JUMPDEST PUSH2 0x651 ADDRESS PUSH1 0xA PUSH0 SWAP1 SLOAD SWAP1 PUSH2 0x100 EXP SWAP1 DIV PUSH20 0xFFFFFFFFFFFFFFFFFFFFFFFFFFFFFFFFFFFFFFFF AND PUSH13 0x8C1A08CCA1747850DB60000000 PUSH2 0x822 PUSH1 0x20 SHL PUSH1 0x20 SHR JUMP JUMPDEST PUSH2 0x690 ADDRESS PUSH1 0xB PUSH0 SWAP1 SLOAD SWAP1 PUSH2 0x100 EXP SWAP1 DIV PUSH20 0xFFFFFFFFFFFFFFFFFFFFFFFFFFFFFFFFFFFFFFFF AND PUSH13 0x8C1A08CCA1747850DB60000000 PUSH2 0x822 PUSH1 0x20 SHL PUSH1 0x20 SHR JUMP JUMPDEST PUSH2 0x6CF ADDRESS PUSH1 0xC PUSH0 SWAP1 SLOAD SWAP1 PUSH2 0x100 EXP SWAP1 DIV PUSH20 0xFFFFFFFFFFFFFFFFFFFFFFFFFFFFFFFFFFFFFFFF AND PUSH13 0x8C1A08CCA1747850DB60000000 PUSH2 0x822 PUSH1 0x20 SHL PUSH1 0x20 SHR JUMP JUMPDEST POP POP POP POP POP POP PUSH2 0x107E JUMP JUMPDEST PUSH0 PUSH1 0x5 PUSH0 SWAP1 SLOAD SWAP1 PUSH2 0x100 EXP SWAP1 DIV PUSH20 0xFFFFFFFFFFFFFFFFFFFFFFFFFFFFFFFFFFFFFFFF AND SWAP1 POP DUP2 PUSH1 0x5 PUSH0 PUSH2 0x100 EXP DUP2 SLOAD DUP2 PUSH20 0xFFFFFFFFFFFFFFFFFFFFFFFFFFFFFFFFFFFFFFFF MUL NOT AND SWAP1 DUP4 PUSH20 0xFFFFFFFFFFFFFFFFFFFFFFFFFFFFFFFFFFFFFFFF AND MUL OR SWAP1 SSTORE POP DUP2 PUSH20 0xFFFFFFFFFFFFFFFFFFFFFFFFFFFFFFFFFFFFFFFF AND DUP2 PUSH20 0xFFFFFFFFFFFFFFFFFFFFFFFFFFFFFFFFFFFFFFFF AND PUSH32 0x8BE0079C531659141344CD1FD0A4F28419497F9722A3DAAFE3B4186F6B6457E0 PUSH1 0x40 MLOAD PUSH1 0x40 MLOAD DUP1 SWAP2 SUB SWAP1 LOG3 POP POP JUMP JUMPDEST PUSH0 PUSH20 0xFFFFFFFFFFFFFFFFFFFFFFFFFFFFFFFFFFFFFFFF AND DUP3 PUSH20 0xFFFFFFFFFFFFFFFFFFFFFFFFFFFFFFFFFFFFFFFF AND SUB PUSH2 0x80D JUMPI PUSH0 PUSH1 0x40 MLOAD PUSH32 0xEC442F0500000000000000000000000000000000000000000000000000000000 DUP2 MSTORE PUSH1 0x4 ADD PUSH2 0x804 SWAP2 SWAP1 PUSH2 0xF30 JUMP JUMPDEST PUSH1 0x40 MLOAD DUP1 SWAP2 SUB SWAP1 REVERT JUMPDEST PUSH2 0x81E PUSH0 DUP4 DUP4 PUSH2 0x918 PUSH1 0x20 SHL PUSH1 0x20 SHR JUMP JUMPDEST POP POP JUMP JUMPDEST PUSH0 PUSH20 0xFFFFFFFFFFFFFFFFFFFFFFFFFFFFFFFFFFFFFFFF AND DUP4 PUSH20 0xFFFFFFFFFFFFFFFFFFFFFFFFFFFFFFFFFFFFFFFF AND SUB PUSH2 0x892 JUMPI PUSH0 PUSH1 0x40 MLOAD PUSH32 0x96C6FD1E00000000000000000000000000000000000000000000000000000000 DUP2 MSTORE PUSH1 0x4 ADD PUSH2 0x889 SWAP2 SWAP1 PUSH2 0xF30 JUMP JUMPDEST PUSH1 0x40 MLOAD DUP1 SWAP2 SUB SWAP1 REVERT JUMPDEST PUSH0 PUSH20 0xFFFFFFFFFFFFFFFFFFFFFFFFFFFFFFFFFFFFFFFF AND DUP3 PUSH20 0xFFFFFFFFFFFFFFFFFFFFFFFFFFFFFFFFFFFFFFFF AND SUB PUSH2 0x902 JUMPI PUSH0 PUSH1 0x40 MLOAD PUSH32 0xEC442F0500000000000000000000000000000000000000000000000000000000 DUP2 MSTORE PUSH1 0x4 ADD PUSH2 0x8F9 SWAP2 SWAP1 PUSH2 0xF30 JUMP JUMPDEST PUSH1 0x40 MLOAD DUP1 SWAP2 SUB SWAP1 REVERT JUMPDEST PUSH2 0x913 DUP4 DUP4 DUP4 PUSH2 0x918 PUSH1 0x20 SHL PUSH1 0x20 SHR JUMP JUMPDEST POP POP POP JUMP JUMPDEST PUSH0 PUSH20 0xFFFFFFFFFFFFFFFFFFFFFFFFFFFFFFFFFFFFFFFF AND DUP4 PUSH20 0xFFFFFFFFFFFFFFFFFFFFFFFFFFFFFFFFFFFFFFFF AND SUB PUSH2 0x968 JUMPI DUP1 PUSH1 0x2 PUSH0 DUP3 DUP3 SLOAD PUSH2 0x95C SWAP2 SWAP1 PUSH2 0xFEE JUMP JUMPDEST SWAP3 POP POP DUP2 SWAP1 SSTORE POP PUSH2 0xA36 JUMP JUMPDEST PUSH0 DUP1 PUSH0 DUP6 PUSH20 0xFFFFFFFFFFFFFFFFFFFFFFFFFFFFFFFFFFFFFFFF AND PUSH20 0xFFFFFFFFFFFFFFFFFFFFFFFFFFFFFFFFFFFFFFFF AND DUP2 MSTORE PUSH1 0x20 ADD SWAP1 DUP2 MSTORE PUSH1 0x20 ADD PUSH0 KECCAK256 SLOAD SWAP1 POP DUP2 DUP2 LT ISZERO PUSH2 0x9F1 JUMPI DUP4 DUP2 DUP4 PUSH1 0x40 MLOAD PUSH32 0xE450D38C00000000000000000000000000000000000000000000000000000000 DUP2 MSTORE PUSH1 0x4 ADD PUSH2 0x9E8 SWAP4 SWAP3 SWAP2 SWAP1 PUSH2 0x1030 JUMP JUMPDEST PUSH1 0x40 MLOAD DUP1 SWAP2 SUB SWAP1 REVERT JUMPDEST DUP2 DUP2 SUB PUSH0 DUP1 DUP7 PUSH20 0xFFFFFFFFFFFFFFFFFFFFFFFFFFFFFFFFFFFFFFFF AND PUSH20 0xFFFFFFFFFFFFFFFFFFFFFFFFFFFFFFFFFFFFFFFF AND DUP2 MSTORE PUSH1 0x20 ADD SWAP1 DUP2 MSTORE PUSH1 0x20 ADD PUSH0 KECCAK256 DUP2 SWAP1 SSTORE POP POP JUMPDEST PUSH0 PUSH20 0xFFFFFFFFFFFFFFFFFFFFFFFFFFFFFFFFFFFFFFFF AND DUP3 PUSH20 0xFFFFFFFFFFFFFFFFFFFFFFFFFFFFFFFFFFFFFFFF AND SUB PUSH2 0xA7D JUMPI DUP1 PUSH1 0x2 PUSH0 DUP3 DUP3 SLOAD SUB SWAP3 POP POP DUP2 SWAP1 SSTORE POP PUSH2 0xAC7 JUMP JUMPDEST DUP1 PUSH0 DUP1 DUP5 PUSH20 0xFFFFFFFFFFFFFFFFFFFFFFFFFFFFFFFFFFFFFFFF AND PUSH20 0xFFFFFFFFFFFFFFFFFFFFFFFFFFFFFFFFFFFFFFFF AND DUP2 MSTORE PUSH1 0x20 ADD SWAP1 DUP2 MSTORE PUSH1 0x20 ADD PUSH0 KECCAK256 PUSH0 DUP3 DUP3 SLOAD ADD SWAP3 POP POP DUP2 SWAP1 SSTORE POP JUMPDEST DUP2 PUSH20 0xFFFFFFFFFFFFFFFFFFFFFFFFFFFFFFFFFFFFFFFF AND DUP4 PUSH20 0xFFFFFFFFFFFFFFFFFFFFFFFFFFFFFFFFFFFFFFFF AND PUSH32 0xDDF252AD1BE2C89B69C2B068FC378DAA952BA7F163C4A11628F55A4DF523B3EF DUP4 PUSH1 0x40 MLOAD PUSH2 0xB24 SWAP2 SWAP1 PUSH2 0x1065 JUMP JUMPDEST PUSH1 0x40 MLOAD DUP1 SWAP2 SUB SWAP1 LOG3 POP POP POP JUMP JUMPDEST PUSH0 DUP1 REVERT JUMPDEST PUSH0 PUSH20 0xFFFFFFFFFFFFFFFFFFFFFFFFFFFFFFFFFFFFFFFF DUP3 AND SWAP1 POP SWAP2 SWAP1 POP JUMP JUMPDEST PUSH0 PUSH2 0xB5E DUP3 PUSH2 0xB35 JUMP JUMPDEST SWAP1 POP SWAP2 SWAP1 POP JUMP JUMPDEST PUSH2 0xB6E DUP2 PUSH2 0xB54 JUMP JUMPDEST DUP2 EQ PUSH2 0xB78 JUMPI PUSH0 DUP1 REVERT JUMPDEST POP JUMP JUMPDEST PUSH0 DUP2 MLOAD SWAP1 POP PUSH2 0xB89 DUP2 PUSH2 0xB65 JUMP JUMPDEST SWAP3 SWAP2 POP POP JUMP JUMPDEST PUSH0 DUP1 PUSH0 DUP1 PUSH0 DUP1 PUSH1 0xC0 DUP8 DUP10 SUB SLT ISZERO PUSH2 0xBA9 JUMPI PUSH2 0xBA8 PUSH2 0xB31 JUMP JUMPDEST JUMPDEST PUSH0 PUSH2 0xBB6 DUP10 DUP3 DUP11 ADD PUSH2 0xB7B JUMP JUMPDEST SWAP7 POP POP PUSH1 0x20 PUSH2 0xBC7 DUP10 DUP3 DUP11 ADD PUSH2 0xB7B JUMP JUMPDEST SWAP6 POP POP PUSH1 0x40 PUSH2 0xBD8 DUP10 DUP3 DUP11 ADD PUSH2 0xB7B JUMP JUMPDEST SWAP5 POP POP PUSH1 0x60 PUSH2 0xBE9 DUP10 DUP3 DUP11 ADD PUSH2 0xB7B JUMP JUMPDEST SWAP4 POP POP PUSH1 0x80 PUSH2 0xBFA DUP10 DUP3 DUP11 ADD PUSH2 0xB7B JUMP JUMPDEST SWAP3 POP POP PUSH1 0xA0 PUSH2 0xC0B DUP10 DUP3 DUP11 ADD PUSH2 0xB7B JUMP JUMPDEST SWAP2 POP POP SWAP3 SWAP6 POP SWAP3 SWAP6 POP SWAP3 SWAP6 JUMP JUMPDEST PUSH0 DUP2 MLOAD SWAP1 POP SWAP2 SWAP1 POP JUMP JUMPDEST PUSH32 0x4E487B7100000000000000000000000000000000000000000000000000000000 PUSH0 MSTORE PUSH1 0x41 PUSH1 0x4 MSTORE PUSH1 0x24 PUSH0 REVERT JUMPDEST PUSH32 0x4E487B7100000000000000000000000000000000000000000000000000000000 PUSH0 MSTORE PUSH1 0x22 PUSH1 0x4 MSTORE PUSH1 0x24 PUSH0 REVERT JUMPDEST PUSH0 PUSH1 0x2 DUP3 DIV SWAP1 POP PUSH1 0x1 DUP3 AND DUP1 PUSH2 0xC93 JUMPI PUSH1 0x7F DUP3 AND SWAP2 POP JUMPDEST PUSH1 0x20 DUP3 LT DUP2 SUB PUSH2 0xCA6 JUMPI PUSH2 0xCA5 PUSH2 0xC4F JUMP JUMPDEST JUMPDEST POP SWAP2 SWAP1 POP JUMP JUMPDEST PUSH0 DUP2 SWAP1 POP DUP2 PUSH0 MSTORE PUSH1 0x20 PUSH0 KECCAK256 SWAP1 POP SWAP2 SWAP1 POP JUMP JUMPDEST PUSH0 PUSH1 0x20 PUSH1 0x1F DUP4 ADD DIV SWAP1 POP SWAP2 SWAP1 POP JUMP JUMPDEST PUSH0 DUP3 DUP3 SHL SWAP1 POP SWAP3 SWAP2 POP POP JUMP JUMPDEST PUSH0 PUSH1 0x8 DUP4 MUL PUSH2 0xD08 PUSH32 0xFFFFFFFFFFFFFFFFFFFFFFFFFFFFFFFFFFFFFFFFFFFFFFFFFFFFFFFFFFFFFFFF DUP3 PUSH2 0xCCD JUMP JUMPDEST PUSH2 0xD12 DUP7 DUP4 PUSH2 0xCCD JUMP JUMPDEST SWAP6 POP DUP1 NOT DUP5 AND SWAP4 POP DUP1 DUP7 AND DUP5 OR SWAP3 POP POP POP SWAP4 SWAP3 POP POP POP JUMP JUMPDEST PUSH0 DUP2 SWAP1 POP SWAP2 SWAP1 POP JUMP JUMPDEST PUSH0 DUP2 SWAP1 POP SWAP2 SWAP1 POP JUMP JUMPDEST PUSH0 PUSH2 0xD56 PUSH2 0xD51 PUSH2 0xD4C DUP5 PUSH2 0xD2A JUMP JUMPDEST PUSH2 0xD33 JUMP JUMPDEST PUSH2 0xD2A JUMP JUMPDEST SWAP1 POP SWAP2 SWAP1 POP JUMP JUMPDEST PUSH0 DUP2 SWAP1 POP SWAP2 SWAP1 POP JUMP JUMPDEST PUSH2 0xD6F DUP4 PUSH2 0xD3C JUMP JUMPDEST PUSH2 0xD83 PUSH2 0xD7B DUP3 PUSH2 0xD5D JUMP JUMPDEST DUP5 DUP5 SLOAD PUSH2 0xCD9 JUMP JUMPDEST DUP3 SSTORE POP POP POP POP JUMP JUMPDEST PUSH0 SWAP1 JUMP JUMPDEST PUSH2 0xD97 PUSH2 0xD8B JUMP JUMPDEST PUSH2 0xDA2 DUP2 DUP5 DUP5 PUSH2 0xD66 JUMP JUMPDEST POP POP POP JUMP JUMPDEST JUMPDEST DUP2 DUP2 LT ISZERO PUSH2 0xDC5 JUMPI PUSH2 0xDBA PUSH0 DUP3 PUSH2 0xD8F JUMP JUMPDEST PUSH1 0x1 DUP2 ADD SWAP1 POP PUSH2 0xDA8 JUMP JUMPDEST POP POP JUMP JUMPDEST PUSH1 0x1F DUP3 GT ISZERO PUSH2 0xE0A JUMPI PUSH2 0xDDB DUP2 PUSH2 0xCAC JUMP JUMPDEST PUSH2 0xDE4 DUP5 PUSH2 0xCBE JUMP JUMPDEST DUP2 ADD PUSH1 0x20 DUP6 LT ISZERO PUSH2 0xDF3 JUMPI DUP2 SWAP1 POP JUMPDEST PUSH2 0xE07 PUSH2 0xDFF DUP6 PUSH2 0xCBE JUMP JUMPDEST DUP4 ADD DUP3 PUSH2 0xDA7 JUMP JUMPDEST POP POP JUMPDEST POP POP POP JUMP JUMPDEST PUSH0 DUP3 DUP3 SHR SWAP1 POP SWAP3 SWAP2 POP POP JUMP JUMPDEST PUSH0 PUSH2 0xE2A PUSH0 NOT DUP5 PUSH1 0x8 MUL PUSH2 0xE0F JUMP JUMPDEST NOT DUP1 DUP4 AND SWAP2 POP POP SWAP3 SWAP2 POP POP JUMP JUMPDEST PUSH0 PUSH2 0xE42 DUP4 DUP4 PUSH2 0xE1B JUMP JUMPDEST SWAP2 POP DUP3 PUSH1 0x2 MUL DUP3 OR SWAP1 POP SWAP3 SWAP2 POP POP JUMP JUMPDEST PUSH2 0xE5B DUP3 PUSH2 0xC18 JUMP JUMPDEST PUSH8 0xFFFFFFFFFFFFFFFF DUP2 GT ISZERO PUSH2 0xE74 JUMPI PUSH2 0xE73 PUSH2 0xC22 JUMP JUMPDEST JUMPDEST PUSH2 0xE7E DUP3 SLOAD PUSH2 0xC7C JUMP JUMPDEST PUSH2 0xE89 DUP3 DUP3 DUP6 PUSH2 0xDC9 JUMP JUMPDEST PUSH0 PUSH1 0x20 SWAP1 POP PUSH1 0x1F DUP4 GT PUSH1 0x1 DUP2 EQ PUSH2 0xEBA JUMPI PUSH0 DUP5 ISZERO PUSH2 0xEA8 JUMPI DUP3 DUP8 ADD MLOAD SWAP1 POP JUMPDEST PUSH2 0xEB2 DUP6 DUP3 PUSH2 0xE37 JUMP JUMPDEST DUP7 SSTORE POP PUSH2 0xF19 JUMP JUMPDEST PUSH1 0x1F NOT DUP5 AND PUSH2 0xEC8 DUP7 PUSH2 0xCAC JUMP JUMPDEST PUSH0 JUMPDEST DUP3 DUP2 LT ISZERO PUSH2 0xEEF JUMPI DUP5 DUP10 ADD MLOAD DUP3 SSTORE PUSH1 0x1 DUP3 ADD SWAP2 POP PUSH1 0x20 DUP6 ADD SWAP5 POP PUSH1 0x20 DUP2 ADD SWAP1 POP PUSH2 0xECA JUMP JUMPDEST DUP7 DUP4 LT ISZERO PUSH2 0xF0C JUMPI DUP5 DUP10 ADD MLOAD PUSH2 0xF08 PUSH1 0x1F DUP10 AND DUP3 PUSH2 0xE1B JUMP JUMPDEST DUP4 SSTORE POP JUMPDEST PUSH1 0x1 PUSH1 0x2 DUP9 MUL ADD DUP9 SSTORE POP POP POP JUMPDEST POP POP POP POP POP POP JUMP JUMPDEST PUSH2 0xF2A DUP2 PUSH2 0xB54 JUMP JUMPDEST DUP3 MSTORE POP POP JUMP JUMPDEST PUSH0 PUSH1 0x20 DUP3 ADD SWAP1 POP PUSH2 0xF43 PUSH0 DUP4 ADD DUP5 PUSH2 0xF21 JUMP JUMPDEST SWAP3 SWAP2 POP POP JUMP JUMPDEST PUSH0 DUP3 DUP3 MSTORE PUSH1 0x20 DUP3 ADD SWAP1 POP SWAP3 SWAP2 POP POP JUMP JUMPDEST PUSH32 0x496E76616C6964207465616D0000000000000000000000000000000000000000 PUSH0 DUP3 ADD MSTORE POP JUMP JUMPDEST PUSH0 PUSH2 0xF8D PUSH1 0xC DUP4 PUSH2 0xF49 JUMP JUMPDEST SWAP2 POP PUSH2 0xF98 DUP3 PUSH2 0xF59 JUMP JUMPDEST PUSH1 0x20 DUP3 ADD SWAP1 POP SWAP2 SWAP1 POP JUMP JUMPDEST PUSH0 PUSH1 0x20 DUP3 ADD SWAP1 POP DUP2 DUP2 SUB PUSH0 DUP4 ADD MSTORE PUSH2 0xFBA DUP2 PUSH2 0xF81 JUMP JUMPDEST SWAP1 POP SWAP2 SWAP1 POP JUMP JUMPDEST PUSH32 0x4E487B7100000000000000000000000000000000000000000000000000000000 PUSH0 MSTORE PUSH1 0x11 PUSH1 0x4 MSTORE PUSH1 0x24 PUSH0 REVERT JUMPDEST PUSH0 PUSH2 0xFF8 DUP3 PUSH2 0xD2A JUMP JUMPDEST SWAP2 POP PUSH2 0x1003 DUP4 PUSH2 0xD2A JUMP JUMPDEST SWAP3 POP DUP3 DUP3 ADD SWAP1 POP DUP1 DUP3 GT ISZERO PUSH2 0x101B JUMPI PUSH2 0x101A PUSH2 0xFC1 JUMP JUMPDEST JUMPDEST SWAP3 SWAP2 POP POP JUMP JUMPDEST PUSH2 0x102A DUP2 PUSH2 0xD2A JUMP JUMPDEST DUP3 MSTORE POP POP JUMP JUMPDEST PUSH0 PUSH1 0x60 DUP3 ADD SWAP1 POP PUSH2 0x1043 PUSH0 DUP4 ADD DUP7 PUSH2 0xF21 JUMP JUMPDEST PUSH2 0x1050 PUSH1 0x20 DUP4 ADD DUP6 PUSH2 0x1021 JUMP JUMPDEST PUSH2 0x105D PUSH1 0x40 DUP4 ADD DUP5 PUSH2 0x1021 JUMP JUMPDEST SWAP5 SWAP4 POP POP POP POP JUMP JUMPDEST PUSH0 PUSH1 0x20 DUP3 ADD SWAP1 POP PUSH2 0x1078 PUSH0 DUP4 ADD DUP5 PUSH2 0x1021 JUMP JUMPDEST SWAP3 SWAP2 POP POP JUMP JUMPDEST PUSH2 0x1BD4 DUP1 PUSH2 0x108B PUSH0 CODECOPY PUSH0 RETURN INVALID PUSH1 0x80 PUSH1 0x40 MSTORE CALLVALUE DUP1 ISZERO PUSH2 0xF JUMPI PUSH0 DUP1 REVERT JUMPDEST POP PUSH1 0x4 CALLDATASIZE LT PUSH2 0x1A7 JUMPI PUSH0 CALLDATALOAD PUSH1 0xE0 SHR DUP1 PUSH4 0x8DA5CB5B GT PUSH2 0xF7 JUMPI DUP1 PUSH4 0xD1431CA6 GT PUSH2 0x95 JUMPI DUP1 PUSH4 0xDEB36E32 GT PUSH2 0x6F JUMPI DUP1 PUSH4 0xDEB36E32 EQ PUSH2 0x4D9 JUMPI DUP1 PUSH4 0xE580B2B0 EQ PUSH2 0x4E3 JUMPI DUP1 PUSH4 0xE74F3FBB EQ PUSH2 0x501 JUMPI DUP1 PUSH4 0xF2FDE38B EQ PUSH2 0x50B JUMPI PUSH2 0x1A7 JUMP JUMPDEST DUP1 PUSH4 0xD1431CA6 EQ PUSH2 0x46D JUMPI DUP1 PUSH4 0xD4698016 EQ PUSH2 0x48B JUMPI DUP1 PUSH4 0xDD62ED3E EQ PUSH2 0x4A9 JUMPI PUSH2 0x1A7 JUMP JUMPDEST DUP1 PUSH4 0x95D89B41 GT PUSH2 0xD1 JUMPI DUP1 PUSH4 0x95D89B41 EQ PUSH2 0x3D1 JUMPI DUP1 PUSH4 0xA9059CBB EQ PUSH2 0x3EF JUMPI DUP1 PUSH4 0xBF16555F EQ PUSH2 0x41F JUMPI DUP1 PUSH4 0xC884EF83 EQ PUSH2 0x43D JUMPI PUSH2 0x1A7 JUMP JUMPDEST DUP1 PUSH4 0x8DA5CB5B EQ PUSH2 0x377 JUMPI DUP1 PUSH4 0x8F84AA09 EQ PUSH2 0x395 JUMPI DUP1 PUSH4 0x902D55A5 EQ PUSH2 0x3B3 JUMPI PUSH2 0x1A7 JUMP JUMPDEST DUP1 PUSH4 0x2FCBB5A2 GT PUSH2 0x164 JUMPI DUP1 PUSH4 0x61B1CBBA GT PUSH2 0x13E JUMPI DUP1 PUSH4 0x61B1CBBA EQ PUSH2 0x2EF JUMPI DUP1 PUSH4 0x6F5244B1 EQ PUSH2 0x30D JUMPI DUP1 PUSH4 0x70A08231 EQ PUSH2 0x33D JUMPI DUP1 PUSH4 0x715018A6 EQ PUSH2 0x36D JUMPI PUSH2 0x1A7 JUMP JUMPDEST DUP1 PUSH4 0x2FCBB5A2 EQ PUSH2 0x283 JUMPI DUP1 PUSH4 0x313CE567 EQ PUSH2 0x2A1 JUMPI DUP1 PUSH4 0x384711CC EQ PUSH2 0x2BF JUMPI PUSH2 0x1A7 JUMP JUMPDEST DUP1 PUSH4 0x6483A07 EQ PUSH2 0x1AB JUMPI DUP1 PUSH4 0x6FDDE03 EQ PUSH2 0x1C9 JUMPI DUP1 PUSH4 0x95EA7B3 EQ PUSH2 0x1E7 JUMPI DUP1 PUSH4 0x18160DDD EQ PUSH2 0x217 JUMPI DUP1 PUSH4 0x23B872DD EQ PUSH2 0x235 JUMPI DUP1 PUSH4 0x254800D4 EQ PUSH2 0x265 JUMPI JUMPDEST PUSH0 DUP1 REVERT JUMPDEST PUSH2 0x1B3 PUSH2 0x527 JUMP JUMPDEST PUSH1 0x40 MLOAD PUSH2 0x1C0 SWAP2 SWAP1 PUSH2 0x1543 JUMP JUMPDEST PUSH1 0x40 MLOAD DUP1 SWAP2 SUB SWAP1 RETURN JUMPDEST PUSH2 0x1D1 PUSH2 0x54C JUMP JUMPDEST PUSH1 0x40 MLOAD PUSH2 0x1DE SWAP2 SWAP1 PUSH2 0x15CC JUMP JUMPDEST PUSH1 0x40 MLOAD DUP1 SWAP2 SUB SWAP1 RETURN JUMPDEST PUSH2 0x201 PUSH1 0x4 DUP1 CALLDATASIZE SUB DUP2 ADD SWAP1 PUSH2 0x1FC SWAP2 SWAP1 PUSH2 0x164D JUMP JUMPDEST PUSH2 0x5DC JUMP JUMPDEST PUSH1 0x40 MLOAD PUSH2 0x20E SWAP2 SWAP1 PUSH2 0x16A5 JUMP JUMPDEST PUSH1 0x40 MLOAD DUP1 SWAP2 SUB SWAP1 RETURN JUMPDEST PUSH2 0x21F PUSH2 0x5FE JUMP JUMPDEST PUSH1 0x40 MLOAD PUSH2 0x22C SWAP2 SWAP1 PUSH2 0x16CD JUMP JUMPDEST PUSH1 0x40 MLOAD DUP1 SWAP2 SUB SWAP1 RETURN JUMPDEST PUSH2 0x24F PUSH1 0x4 DUP1 CALLDATASIZE SUB DUP2 ADD SWAP1 PUSH2 0x24A SWAP2 SWAP1 PUSH2 0x16E6 JUMP JUMPDEST PUSH2 0x607 JUMP JUMPDEST PUSH1 0x40 MLOAD PUSH2 0x25C SWAP2 SWAP1 PUSH2 0x16A5 JUMP JUMPDEST PUSH1 0x40 MLOAD DUP1 SWAP2 SUB SWAP1 RETURN JUMPDEST PUSH2 0x26D PUSH2 0x635 JUMP JUMPDEST PUSH1 0x40 MLOAD PUSH2 0x27A SWAP2 SWAP1 PUSH2 0x16CD JUMP JUMPDEST PUSH1 0x40 MLOAD DUP1 SWAP2 SUB SWAP1 RETURN JUMPDEST PUSH2 0x28B PUSH2 0x63B JUMP JUMPDEST PUSH1 0x40 MLOAD PUSH2 0x298 SWAP2 SWAP1 PUSH2 0x1543 JUMP JUMPDEST PUSH1 0x40 MLOAD DUP1 SWAP2 SUB SWAP1 RETURN JUMPDEST PUSH2 0x2A9 PUSH2 0x660 JUMP JUMPDEST PUSH1 0x40 MLOAD PUSH2 0x2B6 SWAP2 SWAP1 PUSH2 0x1751 JUMP JUMPDEST PUSH1 0x40 MLOAD DUP1 SWAP2 SUB SWAP1 RETURN JUMPDEST PUSH2 0x2D9 PUSH1 0x4 DUP1 CALLDATASIZE SUB DUP2 ADD SWAP1 PUSH2 0x2D4 SWAP2 SWAP1 PUSH2 0x176A JUMP JUMPDEST PUSH2 0x668 JUMP JUMPDEST PUSH1 0x40 MLOAD PUSH2 0x2E6 SWAP2 SWAP1 PUSH2 0x16CD JUMP JUMPDEST PUSH1 0x40 MLOAD DUP1 SWAP2 SUB SWAP1 RETURN JUMPDEST PUSH2 0x2F7 PUSH2 0x67D JUMP JUMPDEST PUSH1 0x40 MLOAD PUSH2 0x304 SWAP2 SWAP1 PUSH2 0x1543 JUMP JUMPDEST PUSH1 0x40 MLOAD DUP1 SWAP2 SUB SWAP1 RETURN JUMPDEST PUSH2 0x327 PUSH1 0x4 DUP1 CALLDATASIZE SUB DUP2 ADD SWAP1 PUSH2 0x322 SWAP2 SWAP1 PUSH2 0x164D JUMP JUMPDEST PUSH2 0x6A2 JUMP JUMPDEST PUSH1 0x40 MLOAD PUSH2 0x334 SWAP2 SWAP1 PUSH2 0x16CD JUMP JUMPDEST PUSH1 0x40 MLOAD DUP1 SWAP2 SUB SWAP1 RETURN JUMPDEST PUSH2 0x357 PUSH1 0x4 DUP1 CALLDATASIZE SUB DUP2 ADD SWAP1 PUSH2 0x352 SWAP2 SWAP1 PUSH2 0x176A JUMP JUMPDEST PUSH2 0x803 JUMP JUMPDEST PUSH1 0x40 MLOAD PUSH2 0x364 SWAP2 SWAP1 PUSH2 0x16CD JUMP JUMPDEST PUSH1 0x40 MLOAD DUP1 SWAP2 SUB SWAP1 RETURN JUMPDEST PUSH2 0x375 PUSH2 0x848 JUMP JUMPDEST STOP JUMPDEST PUSH2 0x37F PUSH2 0x85B JUMP JUMPDEST PUSH1 0x40 MLOAD PUSH2 0x38C SWAP2 SWAP1 PUSH2 0x1543 JUMP JUMPDEST PUSH1 0x40 MLOAD DUP1 SWAP2 SUB SWAP1 RETURN JUMPDEST PUSH2 0x39D PUSH2 0x883 JUMP JUMPDEST PUSH1 0x40 MLOAD PUSH2 0x3AA SWAP2 SWAP1 PUSH2 0x1543 JUMP JUMPDEST PUSH1 0x40 MLOAD DUP1 SWAP2 SUB SWAP1 RETURN JUMPDEST PUSH2 0x3BB PUSH2 0x8A8 JUMP JUMPDEST PUSH1 0x40 MLOAD PUSH2 0x3C8 SWAP2 SWAP1 PUSH2 0x16CD JUMP JUMPDEST PUSH1 0x40 MLOAD DUP1 SWAP2 SUB SWAP1 RETURN JUMPDEST PUSH2 0x3D9 PUSH2 0x8BA JUMP JUMPDEST PUSH1 0x40 MLOAD PUSH2 0x3E6 SWAP2 SWAP1 PUSH2 0x15CC JUMP JUMPDEST PUSH1 0x40 MLOAD DUP1 SWAP2 SUB SWAP1 RETURN JUMPDEST PUSH2 0x409 PUSH1 0x4 DUP1 CALLDATASIZE SUB DUP2 ADD SWAP1 PUSH2 0x404 SWAP2 SWAP1 PUSH2 0x164D JUMP JUMPDEST PUSH2 0x94A JUMP JUMPDEST PUSH1 0x40 MLOAD PUSH2 0x416 SWAP2 SWAP1 PUSH2 0x16A5 JUMP JUMPDEST PUSH1 0x40 MLOAD DUP1 SWAP2 SUB SWAP1 RETURN JUMPDEST PUSH2 0x427 PUSH2 0x96C JUMP JUMPDEST PUSH1 0x40 MLOAD PUSH2 0x434 SWAP2 SWAP1 PUSH2 0x1543 JUMP JUMPDEST PUSH1 0x40 MLOAD DUP1 SWAP2 SUB SWAP1 RETURN JUMPDEST PUSH2 0x457 PUSH1 0x4 DUP1 CALLDATASIZE SUB DUP2 ADD SWAP1 PUSH2 0x452 SWAP2 SWAP1 PUSH2 0x176A JUMP JUMPDEST PUSH2 0x991 JUMP JUMPDEST PUSH1 0x40 MLOAD PUSH2 0x464 SWAP2 SWAP1 PUSH2 0x16CD JUMP JUMPDEST PUSH1 0x40 MLOAD DUP1 SWAP2 SUB SWAP1 RETURN JUMPDEST PUSH2 0x475 PUSH2 0x9A6 JUMP JUMPDEST PUSH1 0x40 MLOAD PUSH2 0x482 SWAP2 SWAP1 PUSH2 0x1543 JUMP JUMPDEST PUSH1 0x40 MLOAD DUP1 SWAP2 SUB SWAP1 RETURN JUMPDEST PUSH2 0x493 PUSH2 0x9CB JUMP JUMPDEST PUSH1 0x40 MLOAD PUSH2 0x4A0 SWAP2 SWAP1 PUSH2 0x1543 JUMP JUMPDEST PUSH1 0x40 MLOAD DUP1 SWAP2 SUB SWAP1 RETURN JUMPDEST PUSH2 0x4C3 PUSH1 0x4 DUP1 CALLDATASIZE SUB DUP2 ADD SWAP1 PUSH2 0x4BE SWAP2 SWAP1 PUSH2 0x1795 JUMP JUMPDEST PUSH2 0x9F0 JUMP JUMPDEST PUSH1 0x40 MLOAD PUSH2 0x4D0 SWAP2 SWAP1 PUSH2 0x16CD JUMP JUMPDEST PUSH1 0x40 MLOAD DUP1 SWAP2 SUB SWAP1 RETURN JUMPDEST PUSH2 0x4E1 PUSH2 0xA72 JUMP JUMPDEST STOP JUMPDEST PUSH2 0x4EB PUSH2 0xAE1 JUMP JUMPDEST PUSH1 0x40 MLOAD PUSH2 0x4F8 SWAP2 SWAP1 PUSH2 0x16A5 JUMP JUMPDEST PUSH1 0x40 MLOAD DUP1 SWAP2 SUB SWAP1 RETURN JUMPDEST PUSH2 0x509 PUSH2 0xAF3 JUMP JUMPDEST STOP JUMPDEST PUSH2 0x525 PUSH1 0x4 DUP1 CALLDATASIZE SUB DUP2 ADD SWAP1 PUSH2 0x520 SWAP2 SWAP1 PUSH2 0x176A JUMP JUMPDEST PUSH2 0xDB2 JUMP JUMPDEST STOP JUMPDEST PUSH1 0x6 PUSH0 SWAP1 SLOAD SWAP1 PUSH2 0x100 EXP SWAP1 DIV PUSH20 0xFFFFFFFFFFFFFFFFFFFFFFFFFFFFFFFFFFFFFFFF AND DUP2 JUMP JUMPDEST PUSH1 0x60 PUSH1 0x3 DUP1 SLOAD PUSH2 0x55B SWAP1 PUSH2 0x1800 JUMP JUMPDEST DUP1 PUSH1 0x1F ADD PUSH1 0x20 DUP1 SWAP2 DIV MUL PUSH1 0x20 ADD PUSH1 0x40 MLOAD SWAP1 DUP2 ADD PUSH1 0x40 MSTORE DUP1 SWAP3 SWAP2 SWAP1 DUP2 DUP2 MSTORE PUSH1 0x20 ADD DUP3 DUP1 SLOAD PUSH2 0x587 SWAP1 PUSH2 0x1800 JUMP JUMPDEST DUP1 ISZERO PUSH2 0x5D2 JUMPI DUP1 PUSH1 0x1F LT PUSH2 0x5A9 JUMPI PUSH2 0x100 DUP1 DUP4 SLOAD DIV MUL DUP4 MSTORE SWAP2 PUSH1 0x20 ADD SWAP2 PUSH2 0x5D2 JUMP JUMPDEST DUP3 ADD SWAP2 SWAP1 PUSH0 MSTORE PUSH1 0x20 PUSH0 KECCAK256 SWAP1 JUMPDEST DUP2 SLOAD DUP2 MSTORE SWAP1 PUSH1 0x1 ADD SWAP1 PUSH1 0x20 ADD DUP1 DUP4 GT PUSH2 0x5B5 JUMPI DUP3 SWAP1 SUB PUSH1 0x1F AND DUP3 ADD SWAP2 JUMPDEST POP POP POP POP POP SWAP1 POP SWAP1 JUMP JUMPDEST PUSH0 DUP1 PUSH2 0x5E6 PUSH2 0xE36 JUMP JUMPDEST SWAP1 POP PUSH2 0x5F3 DUP2 DUP6 DUP6 PUSH2 0xE3D JUMP JUMPDEST PUSH1 0x1 SWAP2 POP POP SWAP3 SWAP2 POP POP JUMP JUMPDEST PUSH0 PUSH1 0x2 SLOAD SWAP1 POP SWAP1 JUMP JUMPDEST PUSH0 DUP1 PUSH2 0x611 PUSH2 0xE36 JUMP JUMPDEST SWAP1 POP PUSH2 0x61E DUP6 DUP3 DUP6 PUSH2 0xE4F JUMP JUMPDEST PUSH2 0x629 DUP6 DUP6 DUP6 PUSH2 0xEE2 JUMP JUMPDEST PUSH1 0x1 SWAP2 POP POP SWAP4 SWAP3 POP POP POP JUMP JUMPDEST PUSH1 0xD SLOAD DUP2 JUMP JUMPDEST PUSH1 0xB PUSH0 SWAP1 SLOAD SWAP1 PUSH2 0x100 EXP SWAP1 DIV PUSH20 0xFFFFFFFFFFFFFFFFFFFFFFFFFFFFFFFFFFFFFFFF AND DUP2 JUMP JUMPDEST PUSH0 PUSH1 0x12 SWAP1 POP SWAP1 JUMP JUMPDEST PUSH1 0xF PUSH1 0x20 MSTORE DUP1 PUSH0 MSTORE PUSH1 0x40 PUSH0 KECCAK256 PUSH0 SWAP2 POP SWAP1 POP SLOAD DUP2 JUMP JUMPDEST PUSH1 0x7 PUSH0 SWAP1 SLOAD SWAP1 PUSH2 0x100 EXP SWAP1 DIV PUSH20 0xFFFFFFFFFFFFFFFFFFFFFFFFFFFFFFFFFFFFFFFF AND DUP2 JUMP JUMPDEST PUSH0 DUP1 PUSH1 0xD SLOAD SUB PUSH2 0x6B4 JUMPI PUSH0 SWAP1 POP PUSH2 0x7FD JUMP JUMPDEST PUSH0 PUSH1 0xD SLOAD TIMESTAMP PUSH2 0x6C3 SWAP2 SWAP1 PUSH2 0x185D JUMP JUMPDEST SWAP1 POP PUSH0 PUSH4 0x3B53800 DUP3 LT PUSH2 0x6D9 JUMPI DUP4 SWAP1 POP PUSH2 0x761 JUMP JUMPDEST PUSH4 0x33E9100 DUP3 LT PUSH2 0x704 JUMPI PUSH1 0x64 PUSH1 0x4B DUP6 PUSH2 0x6F3 SWAP2 SWAP1 PUSH2 0x1890 JUMP JUMPDEST PUSH2 0x6FD SWAP2 SWAP1 PUSH2 0x18FE JUMP JUMPDEST SWAP1 POP PUSH2 0x760 JUMP JUMPDEST PUSH4 0x2C7EA00 DUP3 LT PUSH2 0x72F JUMPI PUSH1 0x64 PUSH1 0x32 DUP6 PUSH2 0x71E SWAP2 SWAP1 PUSH2 0x1890 JUMP JUMPDEST PUSH2 0x728 SWAP2 SWAP1 PUSH2 0x18FE JUMP JUMPDEST SWAP1 POP PUSH2 0x75F JUMP JUMPDEST PUSH4 0x2514300 DUP3 LT PUSH2 0x75A JUMPI PUSH1 0x64 PUSH1 0x19 DUP6 PUSH2 0x749 SWAP2 SWAP1 PUSH2 0x1890 JUMP JUMPDEST PUSH2 0x753 SWAP2 SWAP1 PUSH2 0x18FE JUMP JUMPDEST SWAP1 POP PUSH2 0x75E JUMP JUMPDEST PUSH0 SWAP1 POP JUMPDEST JUMPDEST JUMPDEST JUMPDEST PUSH1 0x10 PUSH0 DUP7 PUSH20 0xFFFFFFFFFFFFFFFFFFFFFFFFFFFFFFFFFFFFFFFF AND PUSH20 0xFFFFFFFFFFFFFFFFFFFFFFFFFFFFFFFFFFFFFFFF AND DUP2 MSTORE PUSH1 0x20 ADD SWAP1 DUP2 MSTORE PUSH1 0x20 ADD PUSH0 KECCAK256 SLOAD DUP2 GT PUSH2 0x7AF JUMPI PUSH0 SWAP3 POP POP POP PUSH2 0x7FD JUMP JUMPDEST PUSH1 0x10 PUSH0 DUP7 PUSH20 0xFFFFFFFFFFFFFFFFFFFFFFFFFFFFFFFFFFFFFFFF AND PUSH20 0xFFFFFFFFFFFFFFFFFFFFFFFFFFFFFFFFFFFFFFFF AND DUP2 MSTORE PUSH1 0x20 ADD SWAP1 DUP2 MSTORE PUSH1 0x20 ADD PUSH0 KECCAK256 SLOAD DUP2 PUSH2 0x7F8 SWAP2 SWAP1 PUSH2 0x185D JUMP JUMPDEST SWAP3 POP POP POP JUMPDEST SWAP3 SWAP2 POP POP JUMP JUMPDEST PUSH0 DUP1 PUSH0 DUP4 PUSH20 0xFFFFFFFFFFFFFFFFFFFFFFFFFFFFFFFFFFFFFFFF AND PUSH20 0xFFFFFFFFFFFFFFFFFFFFFFFFFFFFFFFFFFFFFFFF AND DUP2 MSTORE PUSH1 0x20 ADD SWAP1 DUP2 MSTORE PUSH1 0x20 ADD PUSH0 KECCAK256 SLOAD SWAP1 POP SWAP2 SWAP1 POP JUMP JUMPDEST PUSH2 0x850 PUSH2 0xFD2 JUMP JUMPDEST PUSH2 0x859 PUSH0 PUSH2 0x1059 JUMP JUMPDEST JUMP JUMPDEST PUSH0 PUSH1 0x5 PUSH0 SWAP1 SLOAD SWAP1 PUSH2 0x100 EXP SWAP1 DIV PUSH20 0xFFFFFFFFFFFFFFFFFFFFFFFFFFFFFFFFFFFFFFFF AND SWAP1 POP SWAP1 JUMP JUMPDEST PUSH1 0x8 PUSH0 SWAP1 SLOAD SWAP1 PUSH2 0x100 EXP SWAP1 DIV PUSH20 0xFFFFFFFFFFFFFFFFFFFFFFFFFFFFFFFFFFFFFFFF AND DUP2 JUMP JUMPDEST PUSH14 0x5790457FE4E8CB32891C0000000 DUP2 JUMP JUMPDEST PUSH1 0x60 PUSH1 0x4 DUP1 SLOAD PUSH2 0x8C9 SWAP1 PUSH2 0x1800 JUMP JUMPDEST DUP1 PUSH1 0x1F ADD PUSH1 0x20 DUP1 SWAP2 DIV MUL PUSH1 0x20 ADD PUSH1 0x40 MLOAD SWAP1 DUP2 ADD PUSH1 0x40 MSTORE DUP1 SWAP3 SWAP2 SWAP1 DUP2 DUP2 MSTORE PUSH1 0x20 ADD DUP3 DUP1 SLOAD PUSH2 0x8F5 SWAP1 PUSH2 0x1800 JUMP JUMPDEST DUP1 ISZERO PUSH2 0x940 JUMPI DUP1 PUSH1 0x1F LT PUSH2 0x917 JUMPI PUSH2 0x100 DUP1 DUP4 SLOAD DIV MUL DUP4 MSTORE SWAP2 PUSH1 0x20 ADD SWAP2 PUSH2 0x940 JUMP JUMPDEST DUP3 ADD SWAP2 SWAP1 PUSH0 MSTORE PUSH1 0x20 PUSH0 KECCAK256 SWAP1 JUMPDEST DUP2 SLOAD DUP2 MSTORE SWAP1 PUSH1 0x1 ADD SWAP1 PUSH1 0x20 ADD DUP1 DUP4 GT PUSH2 0x923 JUMPI DUP3 SWAP1 SUB PUSH1 0x1F AND DUP3 ADD SWAP2 JUMPDEST POP POP POP POP POP SWAP1 POP SWAP1 JUMP JUMPDEST PUSH0 DUP1 PUSH2 0x954 PUSH2 0xE36 JUMP JUMPDEST SWAP1 POP PUSH2 0x961 DUP2 DUP6 DUP6 PUSH2 0xEE2 JUMP JUMPDEST PUSH1 0x1 SWAP2 POP POP SWAP3 SWAP2 POP POP JUMP JUMPDEST PUSH1 0xC PUSH0 SWAP1 SLOAD SWAP1 PUSH2 0x100 EXP SWAP1 DIV PUSH20 0xFFFFFFFFFFFFFFFFFFFFFFFFFFFFFFFFFFFFFFFF AND DUP2 JUMP JUMPDEST PUSH1 0x10 PUSH1 0x20 MSTORE DUP1 PUSH0 MSTORE PUSH1 0x40 PUSH0 KECCAK256 PUSH0 SWAP2 POP SWAP1 POP SLOAD DUP2 JUMP JUMPDEST PUSH1 0xA PUSH0 SWAP1 SLOAD SWAP1 PUSH2 0x100 EXP SWAP1 DIV PUSH20 0xFFFFFFFFFFFFFFFFFFFFFFFFFFFFFFFFFFFFFFFF AND DUP2 JUMP JUMPDEST PUSH1 0x9 PUSH0 SWAP1 SLOAD SWAP1 PUSH2 0x100 EXP SWAP1 DIV PUSH20 0xFFFFFFFFFFFFFFFFFFFFFFFFFFFFFFFFFFFFFFFF AND DUP2 JUMP JUMPDEST PUSH0 PUSH1 0x1 PUSH0 DUP5 PUSH20 0xFFFFFFFFFFFFFFFFFFFFFFFFFFFFFFFFFFFFFFFF AND PUSH20 0xFFFFFFFFFFFFFFFFFFFFFFFFFFFFFFFFFFFFFFFF AND DUP2 MSTORE PUSH1 0x20 ADD SWAP1 DUP2 MSTORE PUSH1 0x20 ADD PUSH0 KECCAK256 PUSH0 DUP4 PUSH20 0xFFFFFFFFFFFFFFFFFFFFFFFFFFFFFFFFFFFFFFFF AND PUSH20 0xFFFFFFFFFFFFFFFFFFFFFFFFFFFFFFFFFFFFFFFF AND DUP2 MSTORE PUSH1 0x20 ADD SWAP1 DUP2 MSTORE PUSH1 0x20 ADD PUSH0 KECCAK256 SLOAD SWAP1 POP SWAP3 SWAP2 POP POP JUMP JUMPDEST PUSH2 0xA7A PUSH2 0xFD2 JUMP JUMPDEST PUSH0 PUSH1 0xD SLOAD EQ PUSH2 0xABE JUMPI PUSH1 0x40 MLOAD PUSH32 0x8C379A000000000000000000000000000000000000000000000000000000000 DUP2 MSTORE PUSH1 0x4 ADD PUSH2 0xAB5 SWAP1 PUSH2 0x1978 JUMP JUMPDEST PUSH1 0x40 MLOAD DUP1 SWAP2 SUB SWAP1 REVERT JUMPDEST TIMESTAMP PUSH1 0xD DUP2 SWAP1 SSTORE POP PUSH1 0x1 PUSH1 0xE PUSH0 PUSH2 0x100 EXP DUP2 SLOAD DUP2 PUSH1 0xFF MUL NOT AND SWAP1 DUP4 ISZERO ISZERO MUL OR SWAP1 SSTORE POP JUMP JUMPDEST PUSH1 0xE PUSH0 SWAP1 SLOAD SWAP1 PUSH2 0x100 EXP SWAP1 DIV PUSH1 0xFF AND DUP2 JUMP JUMPDEST PUSH1 0x6 PUSH0 SWAP1 SLOAD SWAP1 PUSH2 0x100 EXP SWAP1 DIV PUSH20 0xFFFFFFFFFFFFFFFFFFFFFFFFFFFFFFFFFFFFFFFF AND PUSH20 0xFFFFFFFFFFFFFFFFFFFFFFFFFFFFFFFFFFFFFFFF AND CALLER PUSH20 0xFFFFFFFFFFFFFFFFFFFFFFFFFFFFFFFFFFFFFFFF AND EQ DUP1 PUSH2 0xB9A JUMPI POP PUSH1 0x7 PUSH0 SWAP1 SLOAD SWAP1 PUSH2 0x100 EXP SWAP1 DIV PUSH20 0xFFFFFFFFFFFFFFFFFFFFFFFFFFFFFFFFFFFFFFFF AND PUSH20 0xFFFFFFFFFFFFFFFFFFFFFFFFFFFFFFFFFFFFFFFF AND CALLER PUSH20 0xFFFFFFFFFFFFFFFFFFFFFFFFFFFFFFFFFFFFFFFF AND EQ JUMPDEST DUP1 PUSH2 0xBF1 JUMPI POP PUSH1 0x8 PUSH0 SWAP1 SLOAD SWAP1 PUSH2 0x100 EXP SWAP1 DIV PUSH20 0xFFFFFFFFFFFFFFFFFFFFFFFFFFFFFFFFFFFFFFFF AND PUSH20 0xFFFFFFFFFFFFFFFFFFFFFFFFFFFFFFFFFFFFFFFF AND CALLER PUSH20 0xFFFFFFFFFFFFFFFFFFFFFFFFFFFFFFFFFFFFFFFF AND EQ JUMPDEST PUSH2 0xC30 JUMPI PUSH1 0x40 MLOAD PUSH32 0x8C379A000000000000000000000000000000000000000000000000000000000 DUP2 MSTORE PUSH1 0x4 ADD PUSH2 0xC27 SWAP1 PUSH2 0x19E0 JUMP JUMPDEST PUSH1 0x40 MLOAD DUP1 SWAP2 SUB SWAP1 REVERT JUMPDEST PUSH1 0xE PUSH0 SWAP1 SLOAD SWAP1 PUSH2 0x100 EXP SWAP1 DIV PUSH1 0xFF AND PUSH2 0xC7E JUMPI PUSH1 0x40 MLOAD PUSH32 0x8C379A000000000000000000000000000000000000000000000000000000000 DUP2 MSTORE PUSH1 0x4 ADD PUSH2 0xC75 SWAP1 PUSH2 0x1A48 JUMP JUMPDEST PUSH1 0x40 MLOAD DUP1 SWAP2 SUB SWAP1 REVERT JUMPDEST PUSH0 PUSH1 0xF PUSH0 CALLER PUSH20 0xFFFFFFFFFFFFFFFFFFFFFFFFFFFFFFFFFFFFFFFF AND PUSH20 0xFFFFFFFFFFFFFFFFFFFFFFFFFFFFFFFFFFFFFFFF AND DUP2 MSTORE PUSH1 0x20 ADD SWAP1 DUP2 MSTORE PUSH1 0x20 ADD PUSH0 KECCAK256 SLOAD SWAP1 POP PUSH0 DUP2 GT PUSH2 0xD01 JUMPI PUSH1 0x40 MLOAD PUSH32 0x8C379A000000000000000000000000000000000000000000000000000000000 DUP2 MSTORE PUSH1 0x4 ADD PUSH2 0xCF8 SWAP1 PUSH2 0x1AB0 JUMP JUMPDEST PUSH1 0x40 MLOAD DUP1 SWAP2 SUB SWAP1 REVERT JUMPDEST PUSH0 PUSH2 0xD0C CALLER DUP4 PUSH2 0x6A2 JUMP JUMPDEST SWAP1 POP PUSH0 DUP2 GT PUSH2 0xD50 JUMPI PUSH1 0x40 MLOAD PUSH32 0x8C379A000000000000000000000000000000000000000000000000000000000 DUP2 MSTORE PUSH1 0x4 ADD PUSH2 0xD47 SWAP1 PUSH2 0x1B18 JUMP JUMPDEST PUSH1 0x40 MLOAD DUP1 SWAP2 SUB SWAP1 REVERT JUMPDEST DUP1 PUSH1 0x10 PUSH0 CALLER PUSH20 0xFFFFFFFFFFFFFFFFFFFFFFFFFFFFFFFFFFFFFFFF AND PUSH20 0xFFFFFFFFFFFFFFFFFFFFFFFFFFFFFFFFFFFFFFFF AND DUP2 MSTORE PUSH1 0x20 ADD SWAP1 DUP2 MSTORE PUSH1 0x20 ADD PUSH0 KECCAK256 PUSH0 DUP3 DUP3 SLOAD PUSH2 0xD9C SWAP2 SWAP1 PUSH2 0x1B36 JUMP JUMPDEST SWAP3 POP POP DUP2 SWAP1 SSTORE POP PUSH2 0xDAE ADDRESS CALLER DUP4 PUSH2 0xEE2 JUMP JUMPDEST POP POP JUMP JUMPDEST PUSH2 0xDBA PUSH2 0xFD2 JUMP JUMPDEST PUSH0 PUSH20 0xFFFFFFFFFFFFFFFFFFFFFFFFFFFFFFFFFFFFFFFF AND DUP2 PUSH20 0xFFFFFFFFFFFFFFFFFFFFFFFFFFFFFFFFFFFFFFFF AND SUB PUSH2 0xE2A JUMPI PUSH0 PUSH1 0x40 MLOAD PUSH32 0x1E4FBDF700000000000000000000000000000000000000000000000000000000 DUP2 MSTORE PUSH1 0x4 ADD PUSH2 0xE21 SWAP2 SWAP1 PUSH2 0x1543 JUMP JUMPDEST PUSH1 0x40 MLOAD DUP1 SWAP2 SUB SWAP1 REVERT JUMPDEST PUSH2 0xE33 DUP2 PUSH2 0x1059 JUMP JUMPDEST POP JUMP JUMPDEST PUSH0 CALLER SWAP1 POP SWAP1 JUMP JUMPDEST PUSH2 0xE4A DUP4 DUP4 DUP4 PUSH1 0x1 PUSH2 0x111C JUMP JUMPDEST POP POP POP JUMP JUMPDEST PUSH0 PUSH2 0xE5A DUP5 DUP5 PUSH2 0x9F0 JUMP JUMPDEST SWAP1 POP PUSH32 0xFFFFFFFFFFFFFFFFFFFFFFFFFFFFFFFFFFFFFFFFFFFFFFFFFFFFFFFFFFFFFFFF DUP2 LT ISZERO PUSH2 0xEDC JUMPI DUP2 DUP2 LT ISZERO PUSH2 0xECD JUMPI DUP3 DUP2 DUP4 PUSH1 0x40 MLOAD PUSH32 0xFB8F41B200000000000000000000000000000000000000000000000000000000 DUP2 MSTORE PUSH1 0x4 ADD PUSH2 0xEC4 SWAP4 SWAP3 SWAP2 SWAP1 PUSH2 0x1B69 JUMP JUMPDEST PUSH1 0x40 MLOAD DUP1 SWAP2 SUB SWAP1 REVERT JUMPDEST PUSH2 0xEDB DUP5 DUP5 DUP5 DUP5 SUB PUSH0 PUSH2 0x111C JUMP JUMPDEST JUMPDEST POP POP POP POP JUMP JUMPDEST PUSH0 PUSH20 0xFFFFFFFFFFFFFFFFFFFFFFFFFFFFFFFFFFFFFFFF AND DUP4 PUSH20 0xFFFFFFFFFFFFFFFFFFFFFFFFFFFFFFFFFFFFFFFF AND SUB PUSH2 0xF52 JUMPI PUSH0 PUSH1 0x40 MLOAD PUSH32 0x96C6FD1E00000000000000000000000000000000000000000000000000000000 DUP2 MSTORE PUSH1 0x4 ADD PUSH2 0xF49 SWAP2 SWAP1 PUSH2 0x1543 JUMP JUMPDEST PUSH1 0x40 MLOAD DUP1 SWAP2 SUB SWAP1 REVERT JUMPDEST PUSH0 PUSH20 0xFFFFFFFFFFFFFFFFFFFFFFFFFFFFFFFFFFFFFFFF AND DUP3 PUSH20 0xFFFFFFFFFFFFFFFFFFFFFFFFFFFFFFFFFFFFFFFF AND SUB PUSH2 0xFC2 JUMPI PUSH0 PUSH1 0x40 MLOAD PUSH32 0xEC442F0500000000000000000000000000000000000000000000000000000000 DUP2 MSTORE PUSH1 0x4 ADD PUSH2 0xFB9 SWAP2 SWAP1 PUSH2 0x1543 JUMP JUMPDEST PUSH1 0x40 MLOAD DUP1 SWAP2 SUB SWAP1 REVERT JUMPDEST PUSH2 0xFCD DUP4 DUP4 DUP4 PUSH2 0x12EB JUMP JUMPDEST POP POP POP JUMP JUMPDEST PUSH2 0xFDA PUSH2 0xE36 JUMP JUMPDEST PUSH20 0xFFFFFFFFFFFFFFFFFFFFFFFFFFFFFFFFFFFFFFFF AND PUSH2 0xFF8 PUSH2 0x85B JUMP JUMPDEST PUSH20 0xFFFFFFFFFFFFFFFFFFFFFFFFFFFFFFFFFFFFFFFF AND EQ PUSH2 0x1057 JUMPI PUSH2 0x101B PUSH2 0xE36 JUMP JUMPDEST PUSH1 0x40 MLOAD PUSH32 0x118CDAA700000000000000000000000000000000000000000000000000000000 DUP2 MSTORE PUSH1 0x4 ADD PUSH2 0x104E SWAP2 SWAP1 PUSH2 0x1543 JUMP JUMPDEST PUSH1 0x40 MLOAD DUP1 SWAP2 SUB SWAP1 REVERT JUMPDEST JUMP JUMPDEST PUSH0 PUSH1 0x5 PUSH0 SWAP1 SLOAD SWAP1 PUSH2 0x100 EXP SWAP1 DIV PUSH20 0xFFFFFFFFFFFFFFFFFFFFFFFFFFFFFFFFFFFFFFFF AND SWAP1 POP DUP2 PUSH1 0x5 PUSH0 PUSH2 0x100 EXP DUP2 SLOAD DUP2 PUSH20 0xFFFFFFFFFFFFFFFFFFFFFFFFFFFFFFFFFFFFFFFF MUL NOT AND SWAP1 DUP4 PUSH20 0xFFFFFFFFFFFFFFFFFFFFFFFFFFFFFFFFFFFFFFFF AND MUL OR SWAP1 SSTORE POP DUP2 PUSH20 0xFFFFFFFFFFFFFFFFFFFFFFFFFFFFFFFFFFFFFFFF AND DUP2 PUSH20 0xFFFFFFFFFFFFFFFFFFFFFFFFFFFFFFFFFFFFFFFF AND PUSH32 0x8BE0079C531659141344CD1FD0A4F28419497F9722A3DAAFE3B4186F6B6457E0 PUSH1 0x40 MLOAD PUSH1 0x40 MLOAD DUP1 SWAP2 SUB SWAP1 LOG3 POP POP JUMP JUMPDEST PUSH0 PUSH20 0xFFFFFFFFFFFFFFFFFFFFFFFFFFFFFFFFFFFFFFFF AND DUP5 PUSH20 0xFFFFFFFFFFFFFFFFFFFFFFFFFFFFFFFFFFFFFFFF AND SUB PUSH2 0x118C JUMPI PUSH0 PUSH1 0x40 MLOAD PUSH32 0xE602DF0500000000000000000000000000000000000000000000000000000000 DUP2 MSTORE PUSH1 0x4 ADD PUSH2 0x1183 SWAP2 SWAP1 PUSH2 0x1543 JUMP JUMPDEST PUSH1 0x40 MLOAD DUP1 SWAP2 SUB SWAP1 REVERT JUMPDEST PUSH0 PUSH20 0xFFFFFFFFFFFFFFFFFFFFFFFFFFFFFFFFFFFFFFFF AND DUP4 PUSH20 0xFFFFFFFFFFFFFFFFFFFFFFFFFFFFFFFFFFFFFFFF AND SUB PUSH2 0x11FC JUMPI PUSH0 PUSH1 0x40 MLOAD PUSH32 0x94280D6200000000000000000000000000000000000000000000000000000000 DUP2 MSTORE PUSH1 0x4 ADD PUSH2 0x11F3 SWAP2 SWAP1 PUSH2 0x1543 JUMP JUMPDEST PUSH1 0x40 MLOAD DUP1 SWAP2 SUB SWAP1 REVERT JUMPDEST DUP2 PUSH1 0x1 PUSH0 DUP7 PUSH20 0xFFFFFFFFFFFFFFFFFFFFFFFFFFFFFFFFFFFFFFFF AND PUSH20 0xFFFFFFFFFFFFFFFFFFFFFFFFFFFFFFFFFFFFFFFF AND DUP2 MSTORE PUSH1 0x20 ADD SWAP1 DUP2 MSTORE PUSH1 0x20 ADD PUSH0 KECCAK256 PUSH0 DUP6 PUSH20 0xFFFFFFFFFFFFFFFFFFFFFFFFFFFFFFFFFFFFFFFF AND PUSH20 0xFFFFFFFFFFFFFFFFFFFFFFFFFFFFFFFFFFFFFFFF AND DUP2 MSTORE PUSH1 0x20 ADD SWAP1 DUP2 MSTORE PUSH1 0x20 ADD PUSH0 KECCAK256 DUP2 SWAP1 SSTORE POP DUP1 ISZERO PUSH2 0x12E5 JUMPI DUP3 PUSH20 0xFFFFFFFFFFFFFFFFFFFFFFFFFFFFFFFFFFFFFFFF AND DUP5 PUSH20 0xFFFFFFFFFFFFFFFFFFFFFFFFFFFFFFFFFFFFFFFF AND PUSH32 0x8C5BE1E5EBEC7D5BD14F71427D1E84F3DD0314C0F7B2291E5B200AC8C7C3B925 DUP5 PUSH1 0x40 MLOAD PUSH2 0x12DC SWAP2 SWAP1 PUSH2 0x16CD JUMP JUMPDEST PUSH1 0x40 MLOAD DUP1 SWAP2 SUB SWAP1 LOG3 JUMPDEST POP POP POP POP JUMP JUMPDEST PUSH0 PUSH20 0xFFFFFFFFFFFFFFFFFFFFFFFFFFFFFFFFFFFFFFFF AND DUP4 PUSH20 0xFFFFFFFFFFFFFFFFFFFFFFFFFFFFFFFFFFFFFFFF AND SUB PUSH2 0x133B JUMPI DUP1 PUSH1 0x2 PUSH0 DUP3 DUP3 SLOAD PUSH2 0x132F SWAP2 SWAP1 PUSH2 0x1B36 JUMP JUMPDEST SWAP3 POP POP DUP2 SWAP1 SSTORE POP PUSH2 0x1409 JUMP JUMPDEST PUSH0 DUP1 PUSH0 DUP6 PUSH20 0xFFFFFFFFFFFFFFFFFFFFFFFFFFFFFFFFFFFFFFFF AND PUSH20 0xFFFFFFFFFFFFFFFFFFFFFFFFFFFFFFFFFFFFFFFF AND DUP2 MSTORE PUSH1 0x20 ADD SWAP1 DUP2 MSTORE PUSH1 0x20 ADD PUSH0 KECCAK256 SLOAD SWAP1 POP DUP2 DUP2 LT ISZERO PUSH2 0x13C4 JUMPI DUP4 DUP2 DUP4 PUSH1 0x40 MLOAD PUSH32 0xE450D38C00000000000000000000000000000000000000000000000000000000 DUP2 MSTORE PUSH1 0x4 ADD PUSH2 0x13BB SWAP4 SWAP3 SWAP2 SWAP1 PUSH2 0x1B69 JUMP JUMPDEST PUSH1 0x40 MLOAD DUP1 SWAP2 SUB SWAP1 REVERT JUMPDEST DUP2 DUP2 SUB PUSH0 DUP1 DUP7 PUSH20 0xFFFFFFFFFFFFFFFFFFFFFFFFFFFFFFFFFFFFFFFF AND PUSH20 0xFFFFFFFFFFFFFFFFFFFFFFFFFFFFFFFFFFFFFFFF AND DUP2 MSTORE PUSH1 0x20 ADD SWAP1 DUP2 MSTORE PUSH1 0x20 ADD PUSH0 KECCAK256 DUP2 SWAP1 SSTORE POP POP JUMPDEST PUSH0 PUSH20 0xFFFFFFFFFFFFFFFFFFFFFFFFFFFFFFFFFFFFFFFF AND DUP3 PUSH20 0xFFFFFFFFFFFFFFFFFFFFFFFFFFFFFFFFFFFFFFFF AND SUB PUSH2 0x1450 JUMPI DUP1 PUSH1 0x2 PUSH0 DUP3 DUP3 SLOAD SUB SWAP3 POP POP DUP2 SWAP1 SSTORE POP PUSH2 0x149A JUMP JUMPDEST DUP1 PUSH0 DUP1 DUP5 PUSH20 0xFFFFFFFFFFFFFFFFFFFFFFFFFFFFFFFFFFFFFFFF AND PUSH20 0xFFFFFFFFFFFFFFFFFFFFFFFFFFFFFFFFFFFFFFFF AND DUP2 MSTORE PUSH1 0x20 ADD SWAP1 DUP2 MSTORE PUSH1 0x20 ADD PUSH0 KECCAK256 PUSH0 DUP3 DUP3 SLOAD ADD SWAP3 POP POP DUP2 SWAP1 SSTORE POP JUMPDEST DUP2 PUSH20 0xFFFFFFFFFFFFFFFFFFFFFFFFFFFFFFFFFFFFFFFF AND DUP4 PUSH20 0xFFFFFFFFFFFFFFFFFFFFFFFFFFFFFFFFFFFFFFFF AND PUSH32 0xDDF252AD1BE2C89B69C2B068FC378DAA952BA7F163C4A11628F55A4DF523B3EF DUP4 PUSH1 0x40 MLOAD PUSH2 0x14F7 SWAP2 SWAP1 PUSH2 0x16CD JUMP JUMPDEST PUSH1 0x40 MLOAD DUP1 SWAP2 SUB SWAP1 LOG3 POP POP POP JUMP JUMPDEST PUSH0 PUSH20 0xFFFFFFFFFFFFFFFFFFFFFFFFFFFFFFFFFFFFFFFF DUP3 AND SWAP1 POP SWAP2 SWAP1 POP JUMP JUMPDEST PUSH0 PUSH2 0x152D DUP3 PUSH2 0x1504 JUMP JUMPDEST SWAP1 POP SWAP2 SWAP1 POP JUMP JUMPDEST PUSH2 0x153D DUP2 PUSH2 0x1523 JUMP JUMPDEST DUP3 MSTORE POP POP JUMP JUMPDEST PUSH0 PUSH1 0x20 DUP3 ADD SWAP1 POP PUSH2 0x1556 PUSH0 DUP4 ADD DUP5 PUSH2 0x1534 JUMP JUMPDEST SWAP3 SWAP2 POP POP JUMP JUMPDEST PUSH0 DUP2 MLOAD SWAP1 POP SWAP2 SWAP1 POP JUMP JUMPDEST PUSH0 DUP3 DUP3 MSTORE PUSH1 0x20 DUP3 ADD SWAP1 POP SWAP3 SWAP2 POP POP JUMP JUMPDEST DUP3 DUP2 DUP4 MCOPY PUSH0 DUP4 DUP4 ADD MSTORE POP POP POP JUMP JUMPDEST PUSH0 PUSH1 0x1F NOT PUSH1 0x1F DUP4 ADD AND SWAP1 POP SWAP2 SWAP1 POP JUMP JUMPDEST PUSH0 PUSH2 0x159E DUP3 PUSH2 0x155C JUMP JUMPDEST PUSH2 0x15A8 DUP2 DUP6 PUSH2 0x1566 JUMP JUMPDEST SWAP4 POP PUSH2 0x15B8 DUP2 DUP6 PUSH1 0x20 DUP7 ADD PUSH2 0x1576 JUMP JUMPDEST PUSH2 0x15C1 DUP2 PUSH2 0x1584 JUMP JUMPDEST DUP5 ADD SWAP2 POP POP SWAP3 SWAP2 POP POP JUMP JUMPDEST PUSH0 PUSH1 0x20 DUP3 ADD SWAP1 POP DUP2 DUP2 SUB PUSH0 DUP4 ADD MSTORE PUSH2 0x15E4 DUP2 DUP5 PUSH2 0x1594 JUMP JUMPDEST SWAP1 POP SWAP3 SWAP2 POP POP JUMP JUMPDEST PUSH0 DUP1 REVERT JUMPDEST PUSH2 0x15F9 DUP2 PUSH2 0x1523 JUMP JUMPDEST DUP2 EQ PUSH2 0x1603 JUMPI PUSH0 DUP1 REVERT JUMPDEST POP JUMP JUMPDEST PUSH0 DUP2 CALLDATALOAD SWAP1 POP PUSH2 0x1614 DUP2 PUSH2 0x15F0 JUMP JUMPDEST SWAP3 SWAP2 POP POP JUMP JUMPDEST PUSH0 DUP2 SWAP1 POP SWAP2 SWAP1 POP JUMP JUMPDEST PUSH2 0x162C DUP2 PUSH2 0x161A JUMP JUMPDEST DUP2 EQ PUSH2 0x1636 JUMPI PUSH0 DUP1 REVERT JUMPDEST POP JUMP JUMPDEST PUSH0 DUP2 CALLDATALOAD SWAP1 POP PUSH2 0x1647 DUP2 PUSH2 0x1623 JUMP JUMPDEST SWAP3 SWAP2 POP POP JUMP JUMPDEST PUSH0 DUP1 PUSH1 0x40 DUP4 DUP6 SUB SLT ISZERO PUSH2 0x1663 JUMPI PUSH2 0x1662 PUSH2 0x15EC JUMP JUMPDEST JUMPDEST PUSH0 PUSH2 0x1670 DUP6 DUP3 DUP7 ADD PUSH2 0x1606 JUMP JUMPDEST SWAP3 POP POP PUSH1 0x20 PUSH2 0x1681 DUP6 DUP3 DUP7 ADD PUSH2 0x1639 JUMP JUMPDEST SWAP2 POP POP SWAP3 POP SWAP3 SWAP1 POP JUMP JUMPDEST PUSH0 DUP2 ISZERO ISZERO SWAP1 POP SWAP2 SWAP1 POP JUMP JUMPDEST PUSH2 0x169F DUP2 PUSH2 0x168B JUMP JUMPDEST DUP3 MSTORE POP POP JUMP JUMPDEST PUSH0 PUSH1 0x20 DUP3 ADD SWAP1 POP PUSH2 0x16B8 PUSH0 DUP4 ADD DUP5 PUSH2 0x1696 JUMP JUMPDEST SWAP3 SWAP2 POP POP JUMP JUMPDEST PUSH2 0x16C7 DUP2 PUSH2 0x161A JUMP JUMPDEST DUP3 MSTORE POP POP JUMP JUMPDEST PUSH0 PUSH1 0x20 DUP3 ADD SWAP1 POP PUSH2 0x16E0 PUSH0 DUP4 ADD DUP5 PUSH2 0x16BE JUMP JUMPDEST SWAP3 SWAP2 POP POP JUMP JUMPDEST PUSH0 DUP1 PUSH0 PUSH1 0x60 DUP5 DUP7 SUB SLT ISZERO PUSH2 0x16FD JUMPI PUSH2 0x16FC PUSH2 0x15EC JUMP JUMPDEST JUMPDEST PUSH0 PUSH2 0x170A DUP7 DUP3 DUP8 ADD PUSH2 0x1606 JUMP JUMPDEST SWAP4 POP POP PUSH1 0x20 PUSH2 0x171B DUP7 DUP3 DUP8 ADD PUSH2 0x1606 JUMP JUMPDEST SWAP3 POP POP PUSH1 0x40 PUSH2 0x172C DUP7 DUP3 DUP8 ADD PUSH2 0x1639 JUMP JUMPDEST SWAP2 POP POP SWAP3 POP SWAP3 POP SWAP3 JUMP JUMPDEST PUSH0 PUSH1 0xFF DUP3 AND SWAP1 POP SWAP2 SWAP1 POP JUMP JUMPDEST PUSH2 0x174B DUP2 PUSH2 0x1736 JUMP JUMPDEST DUP3 MSTORE POP POP JUMP JUMPDEST PUSH0 PUSH1 0x20 DUP3 ADD SWAP1 POP PUSH2 0x1764 PUSH0 DUP4 ADD DUP5 PUSH2 0x1742 JUMP JUMPDEST SWAP3 SWAP2 POP POP JUMP JUMPDEST PUSH0 PUSH1 0x20 DUP3 DUP5 SUB SLT ISZERO PUSH2 0x177F JUMPI PUSH2 0x177E PUSH2 0x15EC JUMP JUMPDEST JUMPDEST PUSH0 PUSH2 0x178C DUP5 DUP3 DUP6 ADD PUSH2 0x1606 JUMP JUMPDEST SWAP2 POP POP SWAP3 SWAP2 POP POP JUMP JUMPDEST PUSH0 DUP1 PUSH1 0x40 DUP4 DUP6 SUB SLT ISZERO PUSH2 0x17AB JUMPI PUSH2 0x17AA PUSH2 0x15EC JUMP JUMPDEST JUMPDEST PUSH0 PUSH2 0x17B8 DUP6 DUP3 DUP7 ADD PUSH2 0x1606 JUMP JUMPDEST SWAP3 POP POP PUSH1 0x20 PUSH2 0x17C9 DUP6 DUP3 DUP7 ADD PUSH2 0x1606 JUMP JUMPDEST SWAP2 POP POP SWAP3 POP SWAP3 SWAP1 POP JUMP JUMPDEST PUSH32 0x4E487B7100000000000000000000000000000000000000000000000000000000 PUSH0 MSTORE PUSH1 0x22 PUSH1 0x4 MSTORE PUSH1 0x24 PUSH0 REVERT JUMPDEST PUSH0 PUSH1 0x2 DUP3 DIV SWAP1 POP PUSH1 0x1 DUP3 AND DUP1 PUSH2 0x1817 JUMPI PUSH1 0x7F DUP3 AND SWAP2 POP JUMPDEST PUSH1 0x20 DUP3 LT DUP2 SUB PUSH2 0x182A JUMPI PUSH2 0x1829 PUSH2 0x17D3 JUMP JUMPDEST JUMPDEST POP SWAP2 SWAP1 POP JUMP JUMPDEST PUSH32 0x4E487B7100000000000000000000000000000000000000000000000000000000 PUSH0 MSTORE PUSH1 0x11 PUSH1 0x4 MSTORE PUSH1 0x24 PUSH0 REVERT JUMPDEST PUSH0 PUSH2 0x1867 DUP3 PUSH2 0x161A JUMP JUMPDEST SWAP2 POP PUSH2 0x1872 DUP4 PUSH2 0x161A JUMP JUMPDEST SWAP3 POP DUP3 DUP3 SUB SWAP1 POP DUP2 DUP2 GT ISZERO PUSH2 0x188A JUMPI PUSH2 0x1889 PUSH2 0x1830 JUMP JUMPDEST JUMPDEST SWAP3 SWAP2 POP POP JUMP JUMPDEST PUSH0 PUSH2 0x189A DUP3 PUSH2 0x161A JUMP JUMPDEST SWAP2 POP PUSH2 0x18A5 DUP4 PUSH2 0x161A JUMP JUMPDEST SWAP3 POP DUP3 DUP3 MUL PUSH2 0x18B3 DUP2 PUSH2 0x161A JUMP JUMPDEST SWAP2 POP DUP3 DUP3 DIV DUP5 EQ DUP4 ISZERO OR PUSH2 0x18CA JUMPI PUSH2 0x18C9 PUSH2 0x1830 JUMP JUMPDEST JUMPDEST POP SWAP3 SWAP2 POP POP JUMP JUMPDEST PUSH32 0x4E487B7100000000000000000000000000000000000000000000000000000000 PUSH0 MSTORE PUSH1 0x12 PUSH1 0x4 MSTORE PUSH1 0x24 PUSH0 REVERT JUMPDEST PUSH0 PUSH2 0x1908 DUP3 PUSH2 0x161A JUMP JUMPDEST SWAP2 POP PUSH2 0x1913 DUP4 PUSH2 0x161A JUMP JUMPDEST SWAP3 POP DUP3 PUSH2 0x1923 JUMPI PUSH2 0x1922 PUSH2 0x18D1 JUMP JUMPDEST JUMPDEST DUP3 DUP3 DIV SWAP1 POP SWAP3 SWAP2 POP POP JUMP JUMPDEST PUSH32 0x56657374696E6720616C72656164792073746172746564000000000000000000 PUSH0 DUP3 ADD MSTORE POP JUMP JUMPDEST PUSH0 PUSH2 0x1962 PUSH1 0x17 DUP4 PUSH2 0x1566 JUMP JUMPDEST SWAP2 POP PUSH2 0x196D DUP3 PUSH2 0x192E JUMP JUMPDEST PUSH1 0x20 DUP3 ADD SWAP1 POP SWAP2 SWAP1 POP JUMP JUMPDEST PUSH0 PUSH1 0x20 DUP3 ADD SWAP1 POP DUP2 DUP2 SUB PUSH0 DUP4 ADD MSTORE PUSH2 0x198F DUP2 PUSH2 0x1956 JUMP JUMPDEST SWAP1 POP SWAP2 SWAP1 POP JUMP JUMPDEST PUSH32 0x4E6F742061207465616D206D656D626572000000000000000000000000000000 PUSH0 DUP3 ADD MSTORE POP JUMP JUMPDEST PUSH0 PUSH2 0x19CA PUSH1 0x11 DUP4 PUSH2 0x1566 JUMP JUMPDEST SWAP2 POP PUSH2 0x19D5 DUP3 PUSH2 0x1996 JUMP JUMPDEST PUSH1 0x20 DUP3 ADD SWAP1 POP SWAP2 SWAP1 POP JUMP JUMPDEST PUSH0 PUSH1 0x20 DUP3 ADD SWAP1 POP DUP2 DUP2 SUB PUSH0 DUP4 ADD MSTORE PUSH2 0x19F7 DUP2 PUSH2 0x19BE JUMP JUMPDEST SWAP1 POP SWAP2 SWAP1 POP JUMP JUMPDEST PUSH32 0x50726573616C65206E6F7420656E646564000000000000000000000000000000 PUSH0 DUP3 ADD MSTORE POP JUMP JUMPDEST PUSH0 PUSH2 0x1A32 PUSH1 0x11 DUP4 PUSH2 0x1566 JUMP JUMPDEST SWAP2 POP PUSH2 0x1A3D DUP3 PUSH2 0x19FE JUMP JUMPDEST PUSH1 0x20 DUP3 ADD SWAP1 POP SWAP2 SWAP1 POP JUMP JUMPDEST PUSH0 PUSH1 0x20 DUP3 ADD SWAP1 POP DUP2 DUP2 SUB PUSH0 DUP4 ADD MSTORE PUSH2 0x1A5F DUP2 PUSH2 0x1A26 JUMP JUMPDEST SWAP1 POP SWAP2 SWAP1 POP JUMP JUMPDEST PUSH32 0x4E6F2076657374696E6700000000000000000000000000000000000000000000 PUSH0 DUP3 ADD MSTORE POP JUMP JUMPDEST PUSH0 PUSH2 0x1A9A PUSH1 0xA DUP4 PUSH2 0x1566 JUMP JUMPDEST SWAP2 POP PUSH2 0x1AA5 DUP3 PUSH2 0x1A66 JUMP JUMPDEST PUSH1 0x20 DUP3 ADD SWAP1 POP SWAP2 SWAP1 POP JUMP JUMPDEST PUSH0 PUSH1 0x20 DUP3 ADD SWAP1 POP DUP2 DUP2 SUB PUSH0 DUP4 ADD MSTORE PUSH2 0x1AC7 DUP2 PUSH2 0x1A8E JUMP JUMPDEST SWAP1 POP SWAP2 SWAP1 POP JUMP JUMPDEST PUSH32 0x4E6F7468696E6720746F20636C61696D00000000000000000000000000000000 PUSH0 DUP3 ADD MSTORE POP JUMP JUMPDEST PUSH0 PUSH2 0x1B02 PUSH1 0x10 DUP4 PUSH2 0x1566 JUMP JUMPDEST SWAP2 POP PUSH2 0x1B0D DUP3 PUSH2 0x1ACE JUMP JUMPDEST PUSH1 0x20 DUP3 ADD SWAP1 POP SWAP2 SWAP1 POP JUMP JUMPDEST PUSH0 PUSH1 0x20 DUP3 ADD SWAP1 POP DUP2 DUP2 SUB PUSH0 DUP4 ADD MSTORE PUSH2 0x1B2F DUP2 PUSH2 0x1AF6 JUMP JUMPDEST SWAP1 POP SWAP2 SWAP1 POP JUMP JUMPDEST PUSH0 PUSH2 0x1B40 DUP3 PUSH2 0x161A JUMP JUMPDEST SWAP2 POP PUSH2 0x1B4B DUP4 PUSH2 0x161A JUMP JUMPDEST SWAP3 POP DUP3 DUP3 ADD SWAP1 POP DUP1 DUP3 GT ISZERO PUSH2 0x1B63 JUMPI PUSH2 0x1B62 PUSH2 0x1830 JUMP JUMPDEST JUMPDEST SWAP3 SWAP2 POP POP JUMP JUMPDEST PUSH0 PUSH1 0x60 DUP3 ADD SWAP1 POP PUSH2 0x1B7C PUSH0 DUP4 ADD DUP7 PUSH2 0x1534 JUMP JUMPDEST PUSH2 0x1B89 PUSH1 0x20 DUP4 ADD DUP6 PUSH2 0x16BE JUMP JUMPDEST PUSH2 0x1B96 PUSH1 0x40 DUP4 ADD DUP5 PUSH2 0x16BE JUMP JUMPDEST SWAP5 SWAP4 POP POP POP POP JUMP INVALID LOG2 PUSH5 0x6970667358 0x22 SLT KECCAK256 SDIV 0xC2 0xE4 EXP PUSH15 0xC3F63C39E38D645B55CE9BDAA10731 0xAC CALLER 0xE0 0xD2 SMOD 0xDB LOG2 BALANCE PUSH7 0x1899E764736F6C PUSH4 0x4300081A STOP CALLER "
				},
				"gasEstimates": {
					"creation": {
						"codeDepositCost": "1424800",
						"executionCost": "infinite",
						"totalCost": "infinite"
					},
					"external": {
						"TOTAL_SUPPLY()": "415",
						"allowance(address,address)": "infinite",
						"animalFundWallet()": "2553",
						"approve(address,uint256)": "infinite",
						"balanceOf(address)": "2918",
						"claimVestedTokens()": "infinite",
						"claimed(address)": "2913",
						"communityRewardsWallet()": "2554",
						"decimals()": "406",
						"devMarketingWallet()": "2597",
						"getClaimable(address,uint256)": "infinite",
						"liquidityWallet()": "2575",
						"name()": "infinite",
						"owner()": "2561",
						"ownerAddress()": "2576",
						"presaleEnded()": "2532",
						"renounceOwnership()": "infinite",
						"startVesting()": "infinite",
						"symbol()": "infinite",
						"teamPlayer2()": "2532",
						"teamPlayer3()": "2553",
						"totalSupply()": "2522",
						"transfer(address,uint256)": "infinite",
						"transferFrom(address,address,uint256)": "infinite",
						"transferOwnership(address)": "infinite",
						"vestedAmount(address)": "2892",
						"vestingStart()": "2559"
					}
				},
				"methodIdentifiers": {
					"TOTAL_SUPPLY()": "902d55a5",
					"allowance(address,address)": "dd62ed3e",
					"animalFundWallet()": "d1431ca6",
					"approve(address,uint256)": "095ea7b3",
					"balanceOf(address)": "70a08231",
					"claimVestedTokens()": "e74f3fbb",
					"claimed(address)": "c884ef83",
					"communityRewardsWallet()": "2fcbb5a2",
					"decimals()": "313ce567",
					"devMarketingWallet()": "bf16555f",
					"getClaimable(address,uint256)": "6f5244b1",
					"liquidityWallet()": "d4698016",
					"name()": "06fdde03",
					"owner()": "8da5cb5b",
					"ownerAddress()": "8f84aa09",
					"presaleEnded()": "e580b2b0",
					"renounceOwnership()": "715018a6",
					"startVesting()": "deb36e32",
					"symbol()": "95d89b41",
					"teamPlayer2()": "06483a07",
					"teamPlayer3()": "61b1cbba",
					"totalSupply()": "18160ddd",
					"transfer(address,uint256)": "a9059cbb",
					"transferFrom(address,address,uint256)": "23b872dd",
					"transferOwnership(address)": "f2fde38b",
					"vestedAmount(address)": "384711cc",
					"vestingStart()": "254800d4"
				}
			},
			"storageLayout": {
				"storage": [
					{
						"astId": 307,
						"contract": "contracts/3_Ballot.sol:AnimalToken",
						"label": "_balances",
						"offset": 0,
						"slot": "0",
						"type": "t_mapping(t_address,t_uint256)"
					},
					{
						"astId": 313,
						"contract": "contracts/3_Ballot.sol:AnimalToken",
						"label": "_allowances",
						"offset": 0,
						"slot": "1",
						"type": "t_mapping(t_address,t_mapping(t_address,t_uint256))"
					},
					{
						"astId": 315,
						"contract": "contracts/3_Ballot.sol:AnimalToken",
						"label": "_totalSupply",
						"offset": 0,
						"slot": "2",
						"type": "t_uint256"
					},
					{
						"astId": 317,
						"contract": "contracts/3_Ballot.sol:AnimalToken",
						"label": "_name",
						"offset": 0,
						"slot": "3",
						"type": "t_string_storage"
					},
					{
						"astId": 319,
						"contract": "contracts/3_Ballot.sol:AnimalToken",
						"label": "_symbol",
						"offset": 0,
						"slot": "4",
						"type": "t_string_storage"
					},
					{
						"astId": 8,
						"contract": "contracts/3_Ballot.sol:AnimalToken",
						"label": "_owner",
						"offset": 0,
						"slot": "5",
						"type": "t_address"
					},
					{
						"astId": 948,
						"contract": "contracts/3_Ballot.sol:AnimalToken",
						"label": "teamPlayer2",
						"offset": 0,
						"slot": "6",
						"type": "t_address"
					},
					{
						"astId": 950,
						"contract": "contracts/3_Ballot.sol:AnimalToken",
						"label": "teamPlayer3",
						"offset": 0,
						"slot": "7",
						"type": "t_address"
					},
					{
						"astId": 952,
						"contract": "contracts/3_Ballot.sol:AnimalToken",
						"label": "ownerAddress",
						"offset": 0,
						"slot": "8",
						"type": "t_address"
					},
					{
						"astId": 954,
						"contract": "contracts/3_Ballot.sol:AnimalToken",
						"label": "liquidityWallet",
						"offset": 0,
						"slot": "9",
						"type": "t_address"
					},
					{
						"astId": 956,
						"contract": "contracts/3_Ballot.sol:AnimalToken",
						"label": "animalFundWallet",
						"offset": 0,
						"slot": "10",
						"type": "t_address"
					},
					{
						"astId": 958,
						"contract": "contracts/3_Ballot.sol:AnimalToken",
						"label": "communityRewardsWallet",
						"offset": 0,
						"slot": "11",
						"type": "t_address"
					},
					{
						"astId": 960,
						"contract": "contracts/3_Ballot.sol:AnimalToken",
						"label": "devMarketingWallet",
						"offset": 0,
						"slot": "12",
						"type": "t_address"
					},
					{
						"astId": 962,
						"contract": "contracts/3_Ballot.sol:AnimalToken",
						"label": "vestingStart",
						"offset": 0,
						"slot": "13",
						"type": "t_uint256"
					},
					{
						"astId": 964,
						"contract": "contracts/3_Ballot.sol:AnimalToken",
						"label": "presaleEnded",
						"offset": 0,
						"slot": "14",
						"type": "t_bool"
					},
					{
						"astId": 968,
						"contract": "contracts/3_Ballot.sol:AnimalToken",
						"label": "vestedAmount",
						"offset": 0,
						"slot": "15",
						"type": "t_mapping(t_address,t_uint256)"
					},
					{
						"astId": 972,
						"contract": "contracts/3_Ballot.sol:AnimalToken",
						"label": "claimed",
						"offset": 0,
						"slot": "16",
						"type": "t_mapping(t_address,t_uint256)"
					}
				],
				"types": {
					"t_address": {
						"encoding": "inplace",
						"label": "address",
						"numberOfBytes": "20"
					},
					"t_bool": {
						"encoding": "inplace",
						"label": "bool",
						"numberOfBytes": "1"
					},
					"t_mapping(t_address,t_mapping(t_address,t_uint256))": {
						"encoding": "mapping",
						"key": "t_address",
						"label": "mapping(address => mapping(address => uint256))",
						"numberOfBytes": "32",
						"value": "t_mapping(t_address,t_uint256)"
					},
					"t_mapping(t_address,t_uint256)": {
						"encoding": "mapping",
						"key": "t_address",
						"label": "mapping(address => uint256)",
						"numberOfBytes": "32",
						"value": "t_uint256"
					},
					"t_string_storage": {
						"encoding": "bytes",
						"label": "string",
						"numberOfBytes": "32"
					},
					"t_uint256": {
						"encoding": "inplace",
						"label": "uint256",
						"numberOfBytes": "32"
					}
				}
			},
			"userdoc": {
				"kind": "user",
				"methods": {},
				"version": 1
			}
		}
	}
}